:1070000061C00000A0C0000084C0000082C0000079
:1070100080C000007EC000007CC000007AC000007C
:1070200078C0000076C0000074C0000072C000008C
:1070300070C000006EC000006CC000006AC000009C
:1070400068C0000066C0000064C0000062C00000AC
:1070500060C00000EC2DFD2DB7B6B0FCFDCF27BF02
:10706000E895B7B6B0FCFDCF21E1B7B6B6FCF4CFDA
:107070000895090212000101008032090400000095
:107080000000000012011001FF000008C016DC051E
:107090000201010200010E0355005300420061008D
:1070A000730070001C037700770077002E006600E5
:1070B00069007300630068006C002E0064006500C6
:1070C0000403090411241FBECFE5D8E0DEBFCDBF05
:1070D00024B7D8E0CEE539913833399109F03FEF44
:1070E00030939C0020939B0010E0A0E6B0E0E8E421
:1070F000F8E702C005900D92A636B107D9F720E057
:10710000A6E6B0E001C01D92AB39B207E1F775D138
:1071100099C376CFA82FB92F80E090E041E050EAE4
:10712000609530E009C02D9182279795879510F0E2
:1071300084279527305EC8F36F5FA8F30895EADFD0
:107140008D939D930895CF93CFB7CF93DF93C3953E
:10715000839BE9F7839B0BC0839B09C0839B07C07C
:10716000839B05C0839B03C0839B01C089C06F9331
:10717000C0917E00DD27CB57DF4F2F9365E5839BC2
:1071800003C02F916F91E6CF0F931F934F9320E091
:1071900040E15F9300B30C7003FB27F93F9350E08D
:1071A0003BE039C01C7040642F77012F5F5F1EC029
:1071B000406810B31C702F7752501FC0406400B35A
:1071C0002F770C70D1F15F5F00C023C0406210B315
:1071D0002F771C7091F15F5F00C025C00C701027E5
:1071E000515012F45D5F0000115027952C3F10B3F1
:1071F000C8F61C700127015027952C3FC8F642277E
:10720000499300B30C7010274F73115027952C3FF2
:10721000A8F64695469510B31C7079F001270150E9
:1072200027952C3F98F66B5A60F3315000B3B0F6B7
:1072300000C010E41ABF002717C03B503195C31B94
:10724000D04010E41ABF0881033CF9F00B34E9F098
:1072500020917C001981110F1213EDCF093651F1E5
:107260000D3211F0013E39F7009383003F915F9199
:107270004F911F910F912F916F91CAB7C6FD67CFA4
:10728000DF91CF91CFBFCF9118952091830022231A
:1072900069F310918100112339F534303AF13093BC
:1072A000810020937D0010917E003BE0311B3093E4
:1072B0007E001CC0009181000130B4F40AE53091D9
:1072C000610034FD14C000936100C1E7D0E013C039
:1072D000052710E000C0000002BB1AC0052710E01F
:1072E000221F1DC010E021C04AE502C032ED432F2D
:1072F000C4E1D0E032E011B31C60939A02B311BB39
:107300005CE020E865E320FF052702BB2795179581
:107310001C3FF0F66695B8F7B1F720FF052702BBD2
:10732000279517951C3FD0F62795179517FF05272A
:1073300000001C3F02BBB0F629913A9519F7037F74
:1073400010918200110FC651D04002BB11F0109372
:107350007C0010E41ABF086011B3137F402F437FF5
:1073600054E05A95F1F702BB11BB42BB7FCFFC0141
:1073700043813481838194819827892798272281AA
:10738000203339F43370E32FF0E0EE59FF4F808162
:107390000895283561F489E0E1E0F0E0442371F0DC
:1073A00089E0E3E0F0E0483049F080E008952035DE
:1073B00049F44111FACF89E0F0E0E0E08093570012
:1073C00084910895203229F4880F991FFC0184913B
:1073D0000895283221F4880F991F0196F7CF203A9B
:1073E00009F41BC2203C19F465811FD2DECF2F3F68
:1073F000E1F681EF80936F00D8CF11BA80E182BBB4
:1074000081E08BBF82E08BBFE0E0F1E7A895319788
:107410008040E1F780919B00877F21F480919C0060
:10742000882369F0849B0BC0F8948B9A12BA1BBE18
:1074300015BE81E08BBF1BBEF0E0E0E009958EEF4A
:1074400080936F0014BE0FB6F894A89581B588613B
:1074500081BD11BC0FBE85B7826085BF8BB78064CC
:107460008BBF8B9A8CE0E0E0F5E3A89531978040E4
:10747000E1F78B98789410918100135017FD5AC052
:1074800080917E00CCE0D0E0C81BD109CB57DF4F04
:1074900080917D008D3209F00BC1183009F048C091
:1074A00083EC809371008AE58093610010927000F4
:1074B0003881832F80769981882309F49BC046E622
:1074C00050E05093800040937F00933069F4CE01E8
:1074D0004EDF8093690084E09F81911127C09E81D7
:1074E000981720F5892F22C0953009F4DFC09A3013
:1074F00009F4DCC08CEF890F863008F070C04A8137
:107500005B8150936E0040936D00993009F46EC01A
:107510008E8180936C002D81227020936B0090935C
:107520006A0037FF8FEF90E89093700080936000BF
:10753000109281008091610084FF36C080916000CC
:107540008F3F91F1182F893008F018E0982F911B88
:10755000909360009091710028E8922790937100B9
:107560008823A9F03091700037FF2EC180916C0004
:10757000811708F4182F811B80936C00D0906A004B
:1075800000E082E7E82E80E0F82E101305C1612F9D
:1075900082E790E0D4DD84E0810F183019F09FEF8E
:1075A000909360008093610084E190B39C7031F40B
:1075B0008150D9F71092820010927C0080916F0068
:1075C000803108F41FC1849B05C080916F008051F9
:1075D00080936F0080916F0081114DCF25CF8091F6
:1075E0006F00923029F48E7F80936F0080E074CF1B
:1075F0008160FACF2A8110927A0091110AC010920C
:107600007B002AE730E082E03093800020937F0007
:1076100063CF953029F4209382002AE730E0F4CF3D
:10762000963099F59B81913059F484E890E79093D6
:10763000800080937F0082E190E4909370004CCFB3
:10764000923019F482E790E7F2CF9330A9F7211135
:1076500008C080EC90E79093800080937F0084E0E6
:10766000EBCF213041F484EA90E79093800080933F
:107670007F008CE1E1CF2230F9F686E990E7909324
:10768000800080937F008EE0D7CF983059F09930FA
:1076900019F420938400C1CF81E09A3009F4BDCF62
:1076A00080E0BBCF24E830E081E0AECF81E014CFB2
:1076B0008091700087FF3CCF00916C00011708F4A7
:1076C000102F011B00936C00F12CF11628F0011112
:1076D0002FCF109260002CCF80916D0090916E00A2
:1076E00020916A00273058F069919C012F5F3F4F2D
:1076F00030936E0020936D0098D0F394E6CF8115FF
:10770000904738F7F394F394F894E0916D00F0917A
:107710006E002991399181E0090180935700E89525
:107720001124789480916D0090916E000296909350
:107730006E0080936D008F779927892B51F001118E
:10774000C4CFF11608F4C1CF80916B00882309F4EF
:10775000BCCFF894E0916D00F0916E00329783E019
:1077600080935700E895789407B600FCFDCFF89415
:10777000E0916D00F0916E00329785E080935700A4
:10778000E895789407B600FCFDCFF89481E18093EA
:107790005700E895789499CFC0916D00D0916E0014
:1077A00026E02D1570F4CE0138D0F7018083FFEF6D
:1077B000EF1AFF0A2196D0936E00C0936D000F5F01
:1077C000E4CEFE018491F1CF80917F009091800002
:1077D000212F280FFC0182E790E036FF0CC0349186
:1077E000DC013C93019631962E13F9CFF093800083
:1077F000E0937F00CCCEDC0131913C9301962E13B7
:10780000FACFF4CF8499E6CE80916F00823008F4ED
:10781000E1CE80916F008250DBCEE199FECF9FBB1D
:107820008EBBE09A99278DB30895262FE199FECF5C
:107830009FBB8EBB2DBB0FB6F894E29AE19A0FBEA8
:0878400001960895F894FFCFB2
:06784800FF5A1E9502002C
:040000030000700089
:00000001FF
