:100000000C940C040C9429040C9444040C942904BE
:100010000C9429040C9429040C9429040C942904AC
:100020000C9429040C9429040C9499250C9429040B
:100030000C9429040C9429040C9429040C9429048C
:100040000C9429040C9429040C9429040C9429047C
:100050000C942904000000000000000000000000D3
:100060000000000000000000000000000000000090
:100070000000000000000000000000000000000080
:100080000000000000000000000000000000000070
:100090000000000000000000000000000000000060
:1000A0000000000000000000000000000000000050
:1000B0000000000000000000000000000000000040
:1000C0000000000000000000000000000000000030
:1000D0000000000000000000000000000C30608004
:1000E0000000000000000000000000000000000010
:1000F0000000000000000000000000000000000000
:1001000000000000000000000000000000000000EF
:10011000000000000000000000000020C30618E1FD
:10012000030CB0600000000000C0000000807800F8
:100130000000E01C0000C07C000000001CE000008B
:10014000047880000038F8F8F0F0E0C0C08080004B
:1001500000000000000000000090FF1F3FFE3E7FF7
:10016000FE7C7F7C3C2020E07C4340C0F887808080
:10017000E01E0100C07C03000000000000011EE042
:1001800000000778808083BFFFFFE3C1C1C1C1F7D2
:10019000FEFEFC7800001090884C64221211080CBE
:1001A0000700000000003C03008078070000E01E0C
:1001B0000101C13D070202F20E0202067EC20203E5
:1001C0001FE1010107788000033FFFFFFFFF7F3F32
:1001D0000F03000002030100000000000000000007
:1001E000000000000000000000070000201E0100C9
:1001F000C07C070000F00F000000000000077CC07A
:1002000000011EE0000007380000030703010000A2
:1002100000000000000000000000000000000000DE
:1002200000000000000000000000000000000000CE
:1002300001000000030000000000000000000003B7
:1002400000000001000000000000000000000000AD
:10025000000000000000000000000000000000009E
:10026000000000000000000080808080000000008E
:10027000008080808080808080000000808080807E
:1002800080000000000000000000000000000000EE
:10029000000000000000000000000000000000005E
:1002A0000000000038FEC783FFFF0181030FFEF04E
:1002B00000FFFF010161FF9F01FEEF83FFFF0101CE
:1002C0000307FEF80000000000000000000000002E
:1002D000000000000000000000000000000000001E
:1002E0000000000000000119FFFF3B79F8CF070173
:1002F00000F1FF0E0E0E040000000101FFFF0301DC
:100300000080FF7F000000000000000000000000EF
:100310000000000030F0F0000010F0F000F0F030CD
:100320003030B0F07090C0E2F3F370303163E3C26C
:100330000083C3E3F3F373333360E08203F3F31317
:1003400063F3B1F0E000000010F0F000C0E07030A6
:100350003030E0C000FFFF303030FFFF801F7FE013
:10036000C0C09F1F00071F38FFFF60601080FFFFA5
:10037000000F1F38FFFF60600080FF7F00FFFF005D
:10038000000103FFFF1C78E0C0FFFF00FFFF00003B
:1003900004E6E763607F7F0002467F7F007C7F6327
:1003A00061616060600000007F7F47070F3F7960F8
:1003B000400000007F7F47070F3F7140007F7F4074
:1003C0000000007F7F400000477F7F001F3F70607C
:1003D000607F7F400000000000000000000000007F
:1003E000000000000000000000000000000000000D
:1003F00000000000000000000000000000000000FD
:1004000000000000000000000000000000000000EC
:1004100000000000000000000000000000000000DC
:1004200000000000000000000000000000000000CC
:1004300000000000000000000000000000000000BC
:1004400000000000000000000000000000000000AC
:1004500000000000A900AA004E004B003A003B003B
:100460003C003D003E003F00400041004200430090
:100470004400450046004700A80035001E001F004C
:100480002000210022002300240025002600270050
:100490002D002E0031002A002B0014001A00080045
:1004A000150017001C0018000C00120013002F008C
:1004B000300031004A00390004001600070009002E
:1004C0000A000B000D000E000F003300340028005E
:1004D0004B004E00E1001D001B0006001900050046
:1004E00011001000360037003800E500E50052002A
:1004F000E100E000E300E20076002C0021522152EE
:100500002C00E600E700E400500051004F002900F5
:10051000007C010001000100010001000100010058
:10052000010001000100010001000100427C010006
:1005300001000100010001000100010001000100B3
:1005400001000100010001000100010001000100A3
:100550000100010001000100010001000100010093
:100560000100010001000100010001000100010083
:100570000100010001000100010001000100010073
:100580000100010001000100010001000100010063
:100590000100010001000100010001000100010053
:1005A0000100010001000100010001000100010043
:1005B0000100010001000100010001000100010033
:1005C0000100017C00AE00AF00DA1281FFD9F1DB3F
:1005D00020A4A62EAF00A0C0D36000A1C8D32000E5
:1005E000AED580A83FDC008D142000000000000084
:1005F00000002A2B2800000000000000000000007E
:10060000000000000029000000002C1E34202122E0
:1006100024342627252E362D3738271E1F20212249
:10062000232425263333362E37381F0405060708C2
:10063000090A0B0C0D0E0F101112131415161718B2
:10064000191A1B1C1D2F3130232D350405060708F0
:10065000090A0B0C0D0E0F10111213141516171892
:10066000191A1B1C1D2F3130354C000000000000F2
:10067000000000000000000000000000000000007A
:1006800000000000000000000000000000007E0FDD
:1006900000D4FFFFFFC70000007809025B000301E0
:1006A00000A0FA0904000001030101000921010171
:1006B000000122440007058103080001090401002C
:1006C00002030000000921010100012222000705A8
:1006D000840308000107050403080001090402005F
:1006E0000103000000092101010001227B00070530
:1006F000830308000112011001000000089EDCEDD8
:10070000120001010200011803520065006400207C
:1007100000480065007200720069006E006700000A
:1007200000100364006300700065006400690074D9
:10073000000000040309040660FF0961A1010962C9
:10074000150026FF00952075088102096315002613
:10075000FF00952075089102C005010902A10185DD
:10076000020901A1000509190129081500250195B3
:1007700008750181020501093009311581257F9530
:10078000027508810609381581257F950175088154
:1007900006050C0A38021581257F9501750881062A
:1007A000C0C005010980A101850319012AB7001500
:1007B0000126B700950175108100C0050C0901A143
:1007C00001850419012AA002150126A002950175D0
:1007D000108100C005010906A101050719E029E7FC
:1007E00015002501950875018102950175088103A1
:1007F0000507190029FF150026FF009506750881D9
:1008000000050819012905150025019505750191B7
:1008100002950175039103C011241FBECFE5D8E0F6
:10082000DEBFCDBF11E0A0E6B0E0E8E8F6E502C02B
:1008300005900D92A432B107D9F727E0A4E2B1E008
:1008400001C01D92A335B207E1F70E949A150C94DE
:10085000EB2A0C940000A82FB92F80E090E041E033
:1008600050EA609530E009C02D91822797958795D1
:1008700010F084279527305EC8F36F5FA8F30895C2
:10088000EADF8D939D930895CF93CFB7CF93DF93F6
:10089000C395839BE9F7839B10C0839B0EC0839B0A
:1008A0000CC0839B0AC0839B08C0839B06C0C09179
:1008B0002A07C395C0932A078EC06F93C09129075A
:1008C000DD27CF5CD84F2F9365E5839B03C02F9125
:1008D0006F91E1CF0F931F934F9320E040E15F931F
:1008E00000B30C7003FB27F93F9350E03BE039C0A5
:1008F0001C7040642F77012F5F5F1EC0406810B3EB
:100900001C702F7752501FC0406400B32F770C70BB
:10091000D1F15F5F00C023C0406210B32F771C701D
:1009200091F15F5F00C025C00C701027515012F488
:100930005D5F0000115027952C3F10B3C8F61C7066
:100940000127015027952C3FC8F64227499300B351
:100950000C7010274F73115027952C3FA8F6469521
:10096000469510B31C7079F00127015027952C3F54
:1009700098F66B5A60F3315000B3B0F600C010E83F
:100980001ABF00271CC03B503195C31BD04010E854
:100990001ABF0881033C21F10B3411F12091260785
:1009A0001981110F1213EDCF4A81441F093679F1D5
:1009B0000D3211F0013E29F74F7009F0042F00931A
:1009C0002F073F915F914F911F910F912F916F9141
:1009D000CAB7C7FD5DCFDF91CF91CFBFCF9118953B
:1009E00020912F07222369F310912D07112309F07D
:1009F00049C034300AF448C030932D0720932807AB
:100A0000109129073BE0311B309329073DC000912D
:100A10002D070130BCF50AE54F7049F430917B0099
:100A200034FD33C000937B00C3E0D7E032C04330D5
:100A300059F0443091F030910E0734FD26C00093F8
:100A40000E07CFE0D7E025C03091470734FD1DC029
:100A500000934707C8E4D7E01CC030911A0734FD63
:100A600014C000931A07CBE1D7E013C0052710E0AC
:100A700000C0000002BB1AC0052710E0221F1DC0E5
:100A800010E021C04AE502C032ED432FC4E1D0E0BE
:100A900032E011B31C60939A02B311BB5CE020E812
:100AA00065E320FF052702BB279517951C3FF0F64D
:100AB0006695B8F7B1F720FF052702BB2795179574
:100AC0001C3FD0F62795179517FF052700001C3F00
:100AD00002BBB0F629913A9519F7037F10912E07C2
:100AE000110FC651D04002BB11F01093260710E839
:100AF0001ABF086011B3137F402F437F54E05A950B
:100B0000F1F702BB11BB42BB5CCF60E080E00E940A
:100B1000D31A60E074E084E590E00E94EA1A80E075
:100B200008958230B8F46630A8F44F3098F450E05D
:100B30009FE0699F400D511D1124FA019AE5899F9C
:100B4000E00DF11D1124EE0FFF1FE45AFB4F8591BC
:100B50009491089581E090E00895823088F46111C5
:100B60000FC090E0880F991FE1E0E427E80FF92F0C
:100B7000F11DEE0FFF1FEC5AFB4F859194910895E4
:100B800081E090E0089581E008950E94C3050895F2
:100B900081E008950E94C30508950E94CA05089542
:100BA00008950E94D0050895A6E0B0E0EAEDF5E0D2
:100BB0000C94562A49835A839E8330912B01898154
:100BC0009A8131111AC03E81332399F0222389F092
:100BD0000E94D40B182F682F89819A810E94A10B43
:100BE00069817A81812F0E94FC122696E3E00C94A1
:100BF000722A0E94BB0B182FF3CF0E94D40B69817D
:100C00007A81F1CFFC01262F40815181628173816D
:100C1000848195810E94D4050895CF93DF93EC01E0
:100C200061E00E940206BE010E94C505DF91CF91DE
:100C30000895CF93DF93EC0160E00E940206BE01AD
:100C40000E94D105DF91CF91089508950E949D0AD9
:100C50000E9425062FEF84E39CE0215080409040C5
:100C6000E1F700C000000E944C2308950E94260670
:100C70000E94BD2508950E9426060E94D025089551
:100C80000F931F93CF93DF938C0161E00E940206C4
:100C9000EC01B8010E948721811106C080E0DF913C
:100CA000CF911F910F910895B801CE010E9496181F
:100CB0008823A1F3B801CE010E94CD05882371F3EA
:100CC000B801CE010E94B323882341F3B801CE01BD
:100CD0000E94AE1C882311F3B801CE010E945B2153
:100CE0008823E1F2B801CE010E94F7238823B1F2F4
:100CF000F8018581882361F0C330FCE7DF07E9F064
:100D000058F4C115ECE7DE07A9F0C130DC47B9F0B3
:100D1000C8010E94C805C3CFCB358CE7D807A9F01E
:100D2000CC35ECE7DE0771F0CA35DC4789F70E9465
:100D30000910EECF0E943606B1CF0E9411100E941A
:100D40003B06ACCF0E94FF0FE3CF0E940D10E0CF17
:100D50000E943C250E94D8060E94661C08950E94AD
:100D6000DC060E9441250895089581E0089581FFE1
:100D700002C0D89A0895D8980895CF93DF93D82FBA
:100D80000E94B506C82F882319F08D2F0E94B70640
:100D90008C2FDF91CF910895D09AD8980895CF9352
:100DA000C82F0E94B4068C2F0E94BD06CF910895D3
:100DB00080E00E94CF0608950E9445240E94CF063D
:100DC0000895CF930E944524C82F809126018C1747
:100DD00079F0C09326010E947E25609327017093CD
:100DE00028018093290190932A018C2F0E94CF061D
:100DF000CF910895ADE0B0E0E0E0F7E00C94572A21
:100E0000488759876A877B878C879D8791110E94C5
:100E10004D0F1F8286E0FE013896DE01119601908B
:100E20000D928A95E1F78D8181110DC029813A815A
:100E30004B815C816D817E818F810E94800E2D9619
:100E4000E2E00C94732ACE0101960E940D068111F6
:100E5000EDCFF5CFFC012481213021F480819181F7
:100E60000E94F40B0895662329F00E9431160E9417
:100E7000041708950E948B16FACFCF93C82F8823AA
:100E8000C9F08238C9F40E94522481FD13C089E35D
:100E90000E94050F0E94860F2FEF87EE93E02150EE
:100EA00080409040E1F700C0000089E30E940D0FF0
:100EB0000E94860FCF9108958338A1F40E94522496
:100EC00080FDF8CF83E50E94050F0E94860F2FEF6B
:100ED00081EE94E0215080409040E1F700C0000096
:100EE00083E5E4CF8438A1F40E94522482FDE2CF4E
:100EF00087E40E94050F0E94860F2FEF81EE94E099
:100F0000215080409040E1F700C0000087E4CECF40
:100F10008CEF8C0F813A90F46C2F8091600090914F
:100F200061000E94CA24882329F08C2F0E940D0F93
:100F30000E94860F8C2F0E94050FBACF80E28C0F83
:100F4000883048F4C77081E001C0880FCA95EAF77D
:100F50000E94300FADCFEBE5EC0FE33040F4F0E052
:100F6000EE54FF4F808190E00E946E24A3CFE8E50D
:100F7000EC0FEB3150F4F0E0EE0FFF1FE458FF4FA1
:100F8000808191810E94932495CF83E38C0F8331DC
:100F900008F090CF61E08C2F0E9433078BCF88231D
:100FA00009F456C0823879F40E94522481FF50C05F
:100FB00089E30E94050F0E94860F89E30E940D0FAE
:100FC0000E94860F0895833859F40E94522480FFAE
:100FD0003FC083E50E94050F0E94860F83E5EECF98
:100FE000843859F40E94522482FF32C087E40E9460
:100FF000050F0E94860F87E4E1CF9CEF980F913A8E
:10100000E8F290E2980F983050F4877091E001C0B8
:10101000990F8A95EAF7892F0E94360FD1CF9BE569
:10102000980F933028F490E080E00E946E24089599
:1010300098E5980F9B3128F490E080E00E9493247B
:10104000089593E3980F933118F460E00E943307FA
:1010500008951F93CF93DF93182FEB010E943D0754
:10106000209739F4812F0E94CF07DF91CF911F91F4
:1010700008958FE99FE00197F1F700C000002197E4
:10108000EFCF6AE070E0893311F460E570E00E9410
:1010900029080895882321F00E94300F0E94860FAE
:1010A0000895882321F00E94360F0E94860F08952C
:1010B000B0E0A0E0EEE5F8E00C94502A6C01D62FE9
:1010C000C72FFC011581068102950F700E94260F23
:1010D000E82E8823E9F0E12E1123D1F08C2F807FB8
:1010E000803451F080E28D0F8830F8F0011104C097
:1010F0008C2F807E8032C9F08091DC0282FF15C087
:1011000082E00E94D30F0E94260F91E0E82EE9268C
:10111000BC2EB2949FE0B922FBE0FB15B8F1EB2D99
:10112000F0E0E351F54D0C943A2AE12CF1CF0C2F6D
:101130000F70C07F11F00295007F112399F00023FA
:1011400059F080E28D0F883010F0D11107C0802F48
:101150000E94300F0E94860F8D2F5AC0802F0E9450
:10116000400FF8CF8D2F0E94CF07002379F080E247
:101170008D0F883010F0D11104C0802F0E94360FDF
:1011800003C0802F0E94460F0E94860FEB2DE8506F
:10119000FF0B349720F40E9445240E94CF06EE20D6
:1011A00089F00E94220F80FD0DC0F60115820E9479
:1011B0001C0F0E94150BC6010E94640A0E941C0F9E
:1011C0000E94210BCDB7DEB7E9E00C946C2A2C2FDE
:1011D0002F70F22EC07FC03219F0F29480EFF82207
:1011E000DD2341F0D130D1F1112309F444C00023B3
:1011F000F1F0B2CF8091DC0282FD15C0112359F0CD
:10120000FF2029F08F2D0E94300F0E94860F80E072
:101210000E943D07BBCF80E00E94CF07FF2009F46A
:10122000B5CF8F2DABCF112369F0011104C08F2DE5
:101230000E944A08ABCF013009F0A8CF8F2D0E9441
:10124000640FA4CF0111A2CF8F2D0E9451088F2DC2
:101250000E94700F8F2D0E94540F98CF112321F000
:10126000063008F093CFE3CF053008F08FCF8F2DF5
:101270000E9451088BCF0023D1F3D93369F43FEF9B
:1012800087EE93E0315080409040E1F700C00000CD
:101290008D2F0E94CF077ACFEFE3FCE93197F1F76A
:1012A000F5CF8C2F86958695837069F0813009F093
:1012B0006DCF8D2F9C2F9370111102C080E090E0B4
:1012C0000E94932463CF8D2F9C2F9370111102C025
:1012D00080E090E00E946E2459CF612F8D2F0E94F4
:1012E000330754CF8C2F837079F511114FCF4D2FC9
:1012F000429546954770440F440F8D2F8F70042EF2
:1013000001C0880F0A94EAF72D2F2071D4FF07C07F
:101310002FE030E001C0220F4A95EAF72095C695EC
:10132000C695C370822BC23049F058F4C13019F011
:101330000E94F10A2BCF0E94EB0A28CF0E94F70AE5
:1013400025CF0E94E80A22CF8695112311F08C2F19
:101350008170882309F41ACF4D2F42954695477026
:10136000440F440F8D2F8F70042E01C0880F0A94F4
:10137000EAF72D2F2071D4FF07C02FE030E001C025
:10138000220F4A95EAF72095C695C695C370822B21
:10139000C23049F058F4C13019F00E94400BF6CE2B
:1013A0000E943A0BF3CE0E94460BF0CE0E94030B34
:1013B000EDCECF70112329F08C2F0E94150B8D2FAD
:1013C00037CF8D2F0E9451088C2F0E94210BDECE2B
:1013D000D23F41F160F4D03FB9F0D13F81F0112309
:1013E00009F446C00111B8CE8C2F8F711FC0D33FB6
:1013F00001F1D43FA1F78091DC0282FD24C08C2F43
:101400008F71112311F312C0112341F0053008F040
:10141000BDCE8C2F8F710E942E0BB8CE063008F0F7
:10142000B5CEF7CF8C2F8F711111CFCF0E94150B36
:10143000ADCE112329F08C2F8F710E940C0BA6CEFC
:101440000E94080BA3CE112349F0CF718C2F0E946C
:10145000150B63E08C2F0E94B50F98CE81E00E949F
:10146000D30F023008F492CE82E00E94D30F8ECECA
:10147000002379F0D93341F4FFEF27EE33E0F15048
:1014800020403040E1F702CF8FE39CE90197F1F76C
:10149000FDCE8C2F8F7199CF0F931F93CF93DF9336
:1014A000EC01688179818D810E94FF0B8C010E9483
:1014B0004C0B0E94E70AB801CE010E945808DF9148
:1014C000CF911F910F910895CF93DF93EC018C8101
:1014D000882399F0CE010E944006811111C00E941C
:1014E000260F882351F08D81882339F08091DC020A
:1014F00082FF03C082E00E94D30FDF91CF91089555
:10150000CE010E944C0ACE010E941906F6CF90E04F
:1015100080E00E946E2490E080E00E9493240E946C
:101520004D0F0E94860F0E9420170E9404170895F5
:101530000E94150F0E94870A08950E943D0F0E9485
:10154000980A089592959F70963091F058F4925FA2
:101550009F70923058F4803F19F030F4883E30F498
:1015600081E008959A5FF4CF843FD1F380E008953D
:10157000883EB0F3813FD1F7F3CFFC0124812223D1
:1015800039F0808191810E94F40B0E94A20A089593
:1015900080E00895A6E0B0E0E0EDFAE00C94572A70
:1015A0002696E2E00C94732AA7E0B0E0EAEDFAE0B8
:1015B0000C94572A2796E2E00C94732A08950E940F
:1015C000DE0A08950E94DF0A809354010895089569
:1015D0000E94E20A089590915401892B0E94E20A28
:1015E00008959091540189230E94E20A08959091F0
:1015F000540189270E94E20A08950E94DE0A089594
:101600000E94FD0A08950E94000B809353010895E3
:1016100080E00E94030B089591E001C0990F8A9524
:10162000EAF7892F0E94030B089521E030E001C002
:10163000220F8A95EAF780915301822B0E94030BB7
:10164000089521E030E001C0220F8A95EAF7209545
:101650008091530182230E94030B089521E030E022
:1016600001C0220F8A95EAF78091530182270E94D8
:10167000030B089590915301892B0E94030B089549
:101680009091530189230E94030B08959091530177
:1016900089270E94030B08950895262F277091E053
:1016A00001C0990F2A95EAF723E0769567952A9568
:1016B000E1F7FB01EE0FFF1FE60FF71FE40FF51F29
:1016C00050E040E0682F70E08191DF0111979B01AD
:1016D000042E02C0369527950A94E2F721702195D1
:1016E0002827292328272C934F5F5F4F433051052C
:1016F00059F70895A82FA77023E0969587952A9506
:10170000E1F7FC01EE0FFF1FE80FF91FE60FF71FCF
:1017100050E040E080E0219130E00A2E02C0369592
:1017200027950A94E2F721703327042E01C0220F77
:101730000A94EAF7822B4F5F5F4F4330510559F708
:101740000895282F862F963070F42F3058F4622F8A
:1017500070E02FE0929F600D711D11244FE251E067
:101760000E944D0B08959C5F9230E0F7622F70E06D
:101770004CE251E0F5CF292F963068F48F3090F489
:1017800090E06FE271E03FE0239F800D911D1124F6
:101790000E947A0B08952C5F223020F46CE271E0F5
:1017A00090E0F6CF80E008950F931F93CF938C01C4
:1017B000C091530180915401C82BC1FD0DC08C2FE5
:1017C0008170C0FF05C0B80180E00E94151380E061
:1017D000CF911F910F910895B80181E00E941513D8
:1017E000019769F381E0F4CFCF93DF93EC010E947E
:1017F000D40BBE010E941513DF91CF9108951F9362
:10180000CF93DF93EB0190912B01992339F0CB011A
:101810000E94F40BDF91CF911F910895882369F006
:10182000CB010E94D40B182F682FCE010E94A10B70
:10183000BE01812F0E941513EDCFCB010E94BB0B7F
:10184000182FF6CFE1E0F0E0DF0102C0AA0FBB1FC6
:101850006A95E2F7BD01DF0102C0AA0FBB1F4A95DE
:10186000E2F76A2B01C0EE0F2A95EAF7962F98232C
:10187000961302C08E2B0895E0958E230895242F91
:10188000462F682F809153010E94220C0E94030B67
:1018900008951F93CF93DF93C091550117E0809176
:1018A00056018C1304C0DF91CF911F910895D0E0B1
:1018B0001C9FF0011D9FF00D1124E95AFE4F20815D
:1018C0003181428153816481758186810E94D40A6D
:1018D0002196C770E4CF20918F0130919001409103
:1018E00091015091920160919301709194018091C6
:1018F00095010E94D40A0895CF93DF9380919501BA
:10190000807F09F04DC080919401882309F448C07C
:10191000E091550150915601C0919001D0918F01F5
:10192000609191017091920147E05E17C9F18E2F8D
:1019300090E0E49FF0011124E95AFE4F2481222314
:1019400091F1489FF001499FF00D1124DF01A95A40
:10195000BE4F11962C9111972C1325C02C912D134D
:1019600022C015962C91159721111DC012962D910C
:101970003C91261B370B283C3105A8F4809195013A
:101980008F70806180939501E35AFE4F80818F7044
:10199000806180838FE891E00E94640A0E94490C74
:1019A000DF91CF910895FC013196E770BECF482FAB
:1019B000209155019091560157E0291302C080E013
:1019C000089530E0529FF001539FF00D1124E95A21
:1019D000FE4F8181681306C08081481303C0858152
:1019E0008111EECF2F5F3F4F2770E7CFA4E1B0E02A
:1019F000ECEFFCE00C944D2A8C0186E0F801DE014E
:101A00001F9601900D928A95E1F7F8018481E58097
:101A10009FE8A92E91E0B92E9091930191111FC0DA
:101A20008823D1F0EE20A9F0C8010E94BD0AF82E4B
:101A3000882379F087E0F801D50101900D928A950D
:101A4000E1F7C5010E942A070E947C0C0E946B0CE2
:101A50005FC0C8010E94640AFF24F39459C0C0808B
:101A6000D18082809380F0909401209191013091F7
:101A70009201A401421B530BFF2009F4F9C0483C1A
:101A8000510508F0A7C0882309F442C09091900145
:101A900080919501282F207F09F05CC09D1116C010
:101AA00090918F01C91212C0E1104EC08F708061F9
:101AB000809395010E946B0C8FE891E00E94640A6C
:101AC00080919501F8018683F12C22C0E1103CC081
:101AD0006D2D8C2D0E94D70C6D2D8C2D0E94D70C56
:101AE000E82E8111F1CFCF86D88A8F8598890E9400
:101AF000F40B292F22952F70243078F49F70223018
:101B0000A8F09923B9F0F8019681907F99F4FE2C02
:101B10008F2D6496ECE00C94692A2A5F2F70223096
:101B200068F0C8010E94640AEF2CF1CF992311F0EC
:101B3000882369F3805E883050F3F3CF803F38F319
:101B4000815F833070F7E3CF80919501816080934E
:101B50009501BACF9D1113C090918F01C9120FC08A
:101B6000E1100DC08683C8010E94640A87E0F80175
:101B7000AFE8B1E001900D928A95E1F767CFC80117
:101B80000E94BD0A882309F464CFEE2009F461CFD6
:101B900080919501803288F020918F0130919001E1
:101BA000398728879B868A86909193019C871D861A
:101BB0008E87CE0108960E94640A87E0F801AFE89C
:101BC000B1E001900D928A95E1F70E947C0C0E9491
:101BD0006B0C42CF90919501292F207FA1F4682DA5
:101BE0009A8A898AA6017A899E2D0E94CA0A8FE85C
:101BF00091E00E94640A87E0F50111928A95E9F765
:101C00000E946B0C61CF882309F482CF80919001F0
:101C10008D1110C080918F01C8120CC0E1100AC054
:101C20009683C8010E94640A87E0F50111928A95A3
:101C3000E9F76ECFC8010E94BD0A882309F409CFD5
:101C4000EE2009F406CF80919501803208F4B5CFDB
:101C500020918F01309190013A8329839C828B825D
:101C6000909193019D831E828F83CE010196A3CF15
:101C7000483C5105B8F5882309F4EECEFE2CEE2041
:101C800009F4E7CE809190018D111EC080918F01E3
:101C9000C8121AC08091950180FD0DC0982F907FC9
:101CA00051F08683903F09F45ECF982F907F905F2C
:101CB0008F70892B57CF87E0F801AFE8B1E0019032
:101CC0000D928A95E1F724CFC8010E94BD0A8111C7
:101CD00074CF80919501816080939501C8010E9425
:101CE000640A16CF682D9A8A898AA6017A899E2D60
:101CF0000E94CA0A87E0F50111928A95E9F7A6CEFB
:101D0000AEE0B0E0E6E8FEE00C94562A288739877A
:101D10004A875B876C877D878E87CE0108960E94F5
:101D2000F60C8823B1F06C85662341F0288539854F
:101D30004A855B857D858E850E94D40A17E0809157
:101D400055019091560189133DC02E96E3E00C9405
:101D5000722A87E0FE013896DE01119601900D92FD
:101D60008A95E1F78C85882349F32091560130E06C
:101D7000C9010196877099274091550148171906A6
:101D800099F097E0929FD001939FB00D1124A95A2A
:101D9000BE4FFE01319601900D929A95E1F7809326
:101DA00056010E94490CCACF0E949D0A109256010A
:101DB0001092550187E0EFE8F1E0DF011D928A956E
:101DC000E9F7BCCF819FC0011124895A9E4F0E9420
:101DD000F60C882309F4B9CFE09155011E9FF0015C
:101DE0001124E95AFE4F208131814281538164815F
:101DF000758186810E94D40A8091550190E00196F8
:101E000087709927809355019ACF682F8091600041
:101E1000909161000E9400250895682F80916000D4
:101E2000909161000E940325089580916000909137
:101E300061000E94062508958091960186958695F9
:101E400086950895809196018770089590919601E6
:101E5000977081E009F480E008958091A2010895CF
:101E60009091A201892B8093A20108958095909171
:101E7000A20198239093A20108951092A2010895BF
:101E80009091A101892B8093A10108958095909153
:101E9000A10198239093A10108951092A1010895A2
:101EA00008950E94500F089590919701292F28239B
:101EB00031F080958923809397010E94510F0895F6
:101EC00008950E94600F089590919801292F28236A
:101ED000281729F0982B909398010E94610F08957C
:101EE00090919801292F282331F0809589238093A0
:101EF00098010E94610F089580919801882329F02C
:101F00001092980180E00E94610F0895E0916000B6
:101F1000F09161008091A2018083E0916000F091D6
:101F2000610080819091A101892B8083909198011B
:101F3000992381F0E0916000F09161008081892B0C
:101F4000808380916000909161000E94B82481118B
:101F50000E947C0F80916000909161000E94552446
:101F6000089508950E94B10F08959091DC0292FFA8
:101F700011C098E0899F90011124622B6093960113
:101F80000E94150B809196018695869586950E94F4
:101F9000B20F08950E94150B08951092960180E0EB
:101FA0000E94B20F089590919601809589238093A5
:101FB0009601282F277069F4891759F09091DC0257
:101FC00092FF07C08695869586950E94210B0E94F8
:101FD000CD0F08959091DC0292FB222720F928175B
:101FE00069F080FB92F99093DC028091DB02909182
:101FF000DC020E94331082E00E94D30F089580918A
:10200000DC0282FB882780F991E089270E94EA0F91
:10201000089581E00E94EA0F089580E00E94EA0F8F
:1020200008956FEF7FEF90E080E00E94D52A089539
:1020300090E080E00E94A22A863E9E4F19F40E9402
:102040003018089580E0089582E090E00E94942A7C
:10205000089583E090E00E94942A089584E090E03F
:102060000E94A22A0895BC0184E090E00E94D52A33
:102070000895AB01BC018FE090E00E94C92A089549
:10208000AB01BC0183E190E00E94C92A089560E0A1
:1020900070E0CB010E944010089560E070E0CB0139
:1020A0000E9439100E9447100895A8E0B0E0EBE5C7
:1020B000F0E10C94572A66EE7EEF90E080E00E94FB
:1020C000D52A60E082E090E00E94B82A60E083E0D8
:1020D00090E00E94B82A1092540160E074E184E01C
:1020E00090E00E94D52A60E086E090E00E94B82A45
:1020F0006FEF87E090E00E94B82A40E050E0BA011C
:1021000088E090E00E94C92A60E084E290E00E94AA
:10211000B82A60E087E190E00E94B82A60E08CE095
:1021200090E00E94B82A60E08DE090E00E94B82A1A
:1021300019821A821B821C821D821E821F821886AF
:1021400048E050E068E170E0CE0101960E94A82AC4
:1021500040E050E0BA0180E290E00E94C92A0E946B
:102160002F2280E00E9449180E9478180E944D108A
:102170002896E2E00C94732A0E945510089580E29C
:1021800090E00E949C2A0895AB01BC0180E290E09F
:102190000E94C92A0895682F8EE090E00E94B82A14
:1021A0000895A6E0B0E0E7EDF0E10C94552A0E9416
:1021B00072258C018091A3019091A4018017910751
:1021C00081F019821A820E947225682F49815A81F2
:1021D000792F80E090E00E94FA061093A40100930A
:1021E000A3012696E4E00C94712A0E947E25609358
:1021F000B9017093BA018093BB019093BC016093C5
:10220000B5017093B6018093B7019093B80108951A
:102210000E947E256093B9017093BA018093BB013F
:102220009093BC016093B1017093B2018093B301AC
:102230009093B4010895089508950E941B11089584
:1022400008950E94201108958BE094E10E94A71543
:102250000E941C110E941D11089581E008950E94A2
:102260002D1108950E942D110895089508950E943A
:1022700035110E94361108950E942A140E94CC063E
:102280000E94492208950E946B250E9488180E948E
:10229000541E0E9402150E943C1180E00E94871A81
:1022A0000E9421110895A6E0B0E0E9E5F1E10C9467
:1022B0004A2A0E942F11782E811111C00E94D1103C
:1022C000712C0E94DD210E94781E882309F46AC0C7
:1022D0000E9408110E94841C0E942A1B67C00E9451
:1022E000181525EA822E21E0922E640110E0F601F5
:1022F000E190F1906F01812F0E944D141F5F163005
:1023000009F44BC0E816F90691F38091BD0181FDF7
:102310000E9456140E943211682E10E055245394E6
:10232000812F0E944D147C01F401A190B1904F01C6
:102330008A159B0561F1A826BF2400E0CC24C39434
:10234000D12CC5018C219D21892BC1F06620B1F0D3
:1023500009831A830E9472259C838B835D8221E00E
:10236000C7018C219D21892B09F420E049815A81E4
:102370006B817C818D81922F0E94FA060F5FCC0CBD
:10238000DD1C0F30F1F6F4013297F182E0821F5F1D
:10239000163031F60E94F51094CFE816F90609F0D0
:1023A000B4CF8CCF0E94841C711096CF0E9442172C
:1023B0000E94E1062696EFE00C94662A1F93CF93C5
:1023C000DF930E941A13EC01C11580E5D807F0F5E0
:1023D000C11580E4D80708F09CC0C03ED10520F5A7
:1023E000CD3CD10508F082C0C83AD10578F4C53A91
:1023F000D10508F073C0C130D10519F1209709F15A
:10240000C430D105F0F4D0E0C0E01BC0C33CD1051E
:10241000D0F7C85AD0E0CC0FDD1FCB54DF4F099066
:10242000D881C02DD4640DC0C11580E2D80708F052
:10243000D1C0C11581E0D80708F05AC0C83ED10507
:1024400010F7CE01DF91CF911F910895C03682E53C
:10245000D80718F5C03482E5D80708F06BC0C03241
:1024600082E5D80708F05FC0C11582E5D80708F4F7
:1024700097C02C2F2695269580E2289F9001112445
:102480008C2F8370C1E0D0E002C0CC0FDD1F8A9595
:10249000E2F7C22BD32BDD68D4CFC03A82E5D80750
:1024A00060F4C03882E5D80708F459C0CF71D0E095
:1024B000DC2FCC27C46FD06AC4CFC03C82E5D807DC
:1024C00008F462C0C03E82E5D80708F09CCFDC2F3C
:1024D000CC27CC27DF71C06FD06AB3CFC55AD0E00C
:1024E000C551DF4FC881D0E0D064ABCFD065A9CF54
:1024F0008D2F0E94BC13182FCE0199270E941A130A
:10250000C12FD0E0DC2FCC27CC27DF71C82BD92BF3
:1025100098CFCE0199270E941A13CC27DF70C82BC1
:10252000D92BD06A8ECFCF71D0E0DC2FCC27C16FF2
:10253000D06A87CF2C2F26952695277080E2289F7A
:10254000900111248C2F8370C1E0D0E002C0CC0F29
:10255000DD1F8A95E2F7C22BD32BDC6872CF2C2FBC
:1025600026952695277080E2289F900111248C2FB4
:102570008370C1E0D0E002C0CC0FDD1F8A95E2F786
:10258000C22BD32BDA685DCF8C2F8F710E94BC13C6
:10259000C82FD0E0DC2FCC27CC27DF71D06251CF01
:1025A0008C2F8F710E94BC1355E0D695C7955A9514
:1025B000E1F7CF70D0E0DC2FCC27282F30E084FF6C
:1025C00005C044E0220F331F4A95E1F7C22BD32BFD
:1025D000D06937CF8D2F8F710E94BC13182FCE0179
:1025E00099270E941A13C12FD0E0DC2FCC27CC27CB
:1025F000DF71C82BD92BD2CF462F672F763028F426
:102600004F3080F40E94692008957D3F39F44111D4
:1026100009C041E060E00E94752008957C3F11F4FC
:102620004423C1F390E080E008950E94FC120E94D0
:10263000DE11089582389105B9F1B0F48133910526
:1026400009F47DC048F48932910509F46DC08A32DD
:10265000910509F47BC008958533910509F45FC0A5
:102660008933910509F10895833E9105D9F138F434
:10267000803E910529F1823E910579F10895863ECB
:102680009105D9F1873E910509F43EC0843E91053C
:1026900041F52091DC0221FF24C08091DB0284FD02
:1026A00019C087EE90E008952091DB02237009F0B5
:1026B0005AC02091DC0223FF14C089E290E0089503
:1026C0002091DB0220FD38C03091DC0230FF09C0D0
:1026D00024FF43C090E080E008952091DB0222FDBA
:1026E000F7CF08952091DB0222FD3AC03091DC0241
:1026F00030FD39C024FFF5CFEDCF2091DB0223FF61
:10270000F0CF24FDE7CFCDCF2091DB0223FD2EC0FB
:102710003091DC0231FFEECF84EE90E008952091FD
:10272000DB0225FFDECFC9CF2091DB0225FD21C0D2
:102730002091DC0223FFD5CF89E390E0D2CF209116
:10274000DB0226FFCECF8AE290E008952091DB02E3
:1027500026FFC7CF81E390E0089583EE90E00895CF
:1027600082EE90E0089580EE90E0089586EE90E08D
:10277000089585E390E008959091DB0292FF10C0E8
:1027800041E0282F2471243009F040E031E0282F67
:102790002871283009F030E0431711F02CE082272F
:1027A00093FF10C041E0282F2471243109F040E04C
:1027B00031E0282F2871283109F030E0431711F05B
:1027C0002CE082273091DC0230FF10C051E0282F2E
:1027D0002171213009F050E041E0282F2871283084
:1027E00009F040E0541711F029E0822731FF10C0B2
:1027F00041E0282F2171213109F040E031E0282FFC
:102800002871283109F030E0431711F029E08227C0
:1028100094FD877E089580E008950E941110089528
:102820000E9418152FEF86E791E0215080409040DC
:10283000E1F700C000000E94181585E00E944D14C9
:1028400096FF04C00E940D140E94BD2508950E94A9
:10285000101408950E941810811102C00E94BC102B
:102860000E9424108093BD010E942E109093DC02E0
:102870008093DB020E9427140E9429100E94E80A1C
:10288000809153010E94000B089508950E94451401
:10289000089508950E9449140895E82FF0E0EE0F7E
:1028A000FF1FE751FD4F808191810895089580EACF
:1028B0008A95F1F7089500C008950E94571408956D
:1028C000F894E82FE295EF70F0E031A9282F2F70EF
:1028D00081E090E001C0880F2A95EAF7982F909543
:1028E000932391AB92A9892B82AB78940895CF93CF
:1028F000DF93CDEFD0E089918F3F11F00E946014FB
:1029000081E0C330D807B9F7CEEED0E089918F3F90
:1029100011F00E94601480E0CD3FD807B9F7DF9135
:10292000CF910895AF92BF92DF92EF92FF920F93F3
:102930001F93CF93DF938C01D62EC62FD0E0CE010C
:1029400083509F4F7C01FC0120812F3F09F44DC033
:10295000F894E22FE295EF70F0E031A92F7081E05A
:1029600090E001C0880F2A95EAF7932F982B91AB3E
:1029700092A98095892382AB78940E945B14EEEE35
:10298000F0E04DEF50E021E030E0B12CA12C61915E
:102990006F3FA9F1A62FA295AF70B0E0D0968C91B1
:1029A00090E06F7002C0959587956A95E2F780FD7B
:1029B00026C0C901A82AB92A220F331F4E175F0764
:1029C00031F7F70180818F3F11F00E94601461E0C0
:1029D000A114B10409F460E08D2D0E945D14CC0FA8
:1029E000DD1FC00FD11FB982A882DF91CF911F9147
:1029F0000F91FF90EF90DF90BF90AF90089590E01F
:102A000080E0D8CF0E9477148CE0E9EEF2E0DF019D
:102A1000982F1D929A95E9F7EDEDF2E0DF011D92F6
:102A20008A95E9F786E00E9453150E94461408959E
:102A3000ACE0B0E0EEE1F5E10C94542A8E010F5FBA
:102A40001F4F8CE0F80111928A95E9F7F12C6F2D58
:102A5000C8010E949214F394F6E0FF12F8CF4CE004
:102A600050E0B8018DED92E00E947E2A21E00097AF
:102A700009F420E0892B41F08CE0F801ADEDB2E0E3
:102A800001900D928A95E1F746E069EE72E08DEDD6
:102A900092E00E945415182F0E944A14812F2C9600
:102AA000E5E00C94702A0895CF92DF92EF92FF92A6
:102AB0001F93CF93DF936C017B01C42F222349F036
:102AC00081E08093C0010E9472259093BF018093A2
:102AD000BE011091C00111110AC010E0812FDF91D9
:102AE000CF911F91FF90EF90DF90CF90089580914C
:102AF000BE019091BF010E948A25059770F3D0E036
:102B0000CC0FDD1FAE01B601C7010E947E2A892BC2
:102B100041F0AE01B601C7010E948B2A1092C0019C
:102B2000DDCF10E0FBCF0E94C6260E9443110E9419
:102B3000D72608950E9459250E94BF260E9424117D
:102B40000E9493150E94E5260E943711FBCF9093B7
:102B50002501809324010895282F35EB2303C0011C
:102B6000112497FF04C080589109892F0895805837
:102B70009F4FFBCF8091C70180FF0DC06091670020
:102B800070E0660F771F6038710570F5611571058B
:102B900069F1862F089581FF07C06091670084E086
:102BA000689FB0011124EFCF6091670082FD0AC0D9
:102BB0008091C6018823A9F020916600609167008A
:102BC000821710F088E0ECCF869FC001112433E01B
:102BD000880F991F3A95E1F7622F70E00E94262A2C
:102BE000D2CF68E070E0D5CF8FE7089581E00895F7
:102BF0008091C70180FF0CC06091630070E0759503
:102C00006795759567956115710549F1862F08954A
:102C100081FF06C06091630070E075956795F3CF02
:102C20006091630082FD0BC09091C5019923A1F0D2
:102C30006091620080916300961738F0682F70E011
:102C40006038710500F38FE70895899FC001112452
:102C500070E00E94262AF4CF61E070E0D7CF81E0D7
:102C600008958D3C31F40E94BA1581958093CB0173
:102C700008958E3C19F40E94BA15F8CF8F3C31F4B8
:102C80000E94BA1581958093CA010895803D19F478
:102C90000E94BA15F8CF893D29F40E94F815809357
:102CA000CC0108958A3D21F40E94F8158195F7CF53
:102CB0008B3D31F40E94F81581958093CD010895E4
:102CC0008C3D19F40E94F815F8CF9FE2980F9830C8
:102CD00070F4815D990B21E030E001C0220F8A95EC
:102CE000EAF78091C901822B8093C90108958D3D37
:102CF00031F48091C70181608093C70108958E3DB2
:102D000021F48091C7018260F7CF8F3DB9F78091A0
:102D1000C7018460F1CF4091CA018D3C59F4809184
:102D2000CB0187FF0DC01092CB0141110BC0109257
:102D3000C60108C08E3C81F48091CB0118169CF32B
:102D4000442381F08091CC019091CD01892B09F031
:102D50005AC01092C50108958F3C49F447FFF0CF47
:102D60001092CA018091CB018111ECCFE0CF803D60
:102D700019F41416ACF3E4CF9091CC01893D29F4F9
:102D80001916F4F61092CC01DBCF8A3D19F497FFA7
:102D9000D7CFF8CF9091CD018B3D29F497FFD0CFBD
:102DA0001092CD01CDCF8C3D19F41916CCF3C8CFBC
:102DB0009FE2980F983090F4815D990B21E030E00C
:102DC000B90102C0660F771F8A95E2F7CB018095A3
:102DD0009091C90189238093C901B2CF8D3D31F40F
:102DE0008091C7018E7F8093C701AACF8E3D21F4C9
:102DF0008091C7018D7FF7CF8F3D09F0A1CF8091E2
:102E0000C7018B7FF0CF08950E9472259C0190919D
:102E1000CA018091CB01982B21F03093C4012093FB
:102E2000C3019091CC018091CD01982B21F030937A
:102E3000C2012093C10188EC91E00E9460240895B2
:102E400086E0E8ECF1E0DF011D928A95E9F7109247
:102E5000C6011092C5011092C7010895FC0182813C
:102E600081110EC0838181110BC08481811108C042
:102E700091E08581811101C090E0892F81700895D2
:102E800081E0FCCFA6E0B0E0E8E4F7E10C94562A3C
:102E900086E0E8ECF1E0DE01119601900D928A9552
:102EA000E1F71092CA011092CB011092CC0110925E
:102EB000CD018B819C81892B89F08091C3019091F8
:102EC000C4010E948A25AC019091C6019923C9F1E1
:102ED000809168008417150608F440C08D819E819A
:102EE000892B91F08091C1019091C2010E948A25A5
:102EF000AC019091C501992309F46AC080916400E6
:102F00008417150608F472C0BE016F5F7F4F88EC0E
:102F100091E00E940D25811105C088EC91E00E948E
:102F20002E1781110E94041786E0FE013196A8EC4D
:102F3000B1E001900D928A95E1F72696E3E00C94BA
:102F4000722A209169008AE0289F90011124241799
:102F5000350720F69F5F9093C60102C09F3FD1F7CF
:102F60001B81112359F00E94BA159FEF11160CF422
:102F700091E0899F802D11248093CA011C81112327
:102F800059F00E94BA159FEF11160CF491E0899F39
:102F9000802D11248093CB018091CA01882309F4EC
:102FA0009DCF1091CB01112309F498CF0E94AC154D
:102FB000882351F08093CA01812F0E94AC15882389
:102FC00029F08093CB018ACF81E0F4CF81E0F9CF63
:102FD000209165008AE0289F90011124241735076D
:102FE00008F092CF9F5F9093C50102C09F3FD1F739
:102FF0001D81112359F00E94F8159FEF11160CF452
:1030000091E0899F802D11248093CC011E81112392
:1030100059F00E94F8159FEF11160CF491E0899F6A
:10302000802D11248093CD018091CC01882309F457
:103030006BCF1091CD01112309F466CF0E94AC151E
:10304000882351F08093CC01812F0E94AC158823F6
:1030500029F08093CD0158CF81E0F4CF81E0F9CF02
:1030600085E290E00E94942A833289F486E290E01F
:103070000E94942A813159F487E290E00E94942AB8
:1030800091E0853009F090E0892F8170089580E00B
:10309000FCCFCF93C82F6FEF811163E285E290E000
:1030A0000E94B82A6FEFC11161E186E290E00E94B0
:1030B000B82A6FEFC11165E087E290E00E94B82A5C
:1030C000CF910895089588E290E00E94942A682F95
:1030D00070E090E080E008950895CF93C62F0E949D
:1030E0006C186C2F88E290E00E94B82ACF91089566
:1030F00080E00E94491860E070E0CB010E946D18EA
:103100000E94EA1F0E94CE2081E00E944918089583
:103110000E9462180E9463180E946C180E94301866
:10312000811102C00E947818089508959C01FB0146
:103130008581882351F0A90157574038510530F453
:10314000822F0E94DE2080E0089581E008952FEF15
:10315000FC01208308950E94A718089580E0089537
:10316000B0E0A0E0E6EBF8E10C94512AEC01C62EA9
:103170000E94AE18811110C0E881E150E531B8F429
:10318000F0E0E750F54D0C943A2A19828CE08A83DE
:103190006C2DCE010E94B527CDB7DEB7E8E00C94C8
:1031A0006D2A89818230C1F028F4813061F08FEF7F
:1031B0008883EECF833099F08430C9F71A821B825E
:1031C0001C821D82E5CF0E947E250E94402A6A83D0
:1031D0007B838C839D83DCCF0E946318F6CF8A812A
:1031E000082F10E07E019EE0D92ED80E0630110582
:1031F00078F6802F0E944D14F701938384830F5F2C
:103200001F4FF2E0EF0EF11CD012F0CFC1CF898139
:10321000823031F0853059F68A810E949518B8CFF6
:103220006A817B818C819D810E94402A0E946D1859
:10323000AFCF4B816A8189810E944E1F98278927D1
:1032400098279D838C83A4CF2C813D81322723270F
:1032500032274B816A8189810E94701F99CF0E9419
:10326000EA1F96CF6C2DCE010E94AB1891CF0E9421
:103270007F2089838DCF0E948120982789279827D6
:103280009A83898385CF6B8170E089819A81AE01B1
:103290004C5F5F4F9827892798270E94842078CF1A
:1032A0006B8170E089819A81AE014C5F5F4F9827F6
:1032B000892798270E94A9206BCF0E94CE2068CF33
:1032C0000E943C1FD6CF6B8170E089819A81AE014C
:1032D0004C5F5F4F9827892798270E94212058CF5D
:1032E0006B8170E089819A81AE014C5F5F4F9827B6
:1032F000892798270E9445204BCF41E08B8181117F
:1033000001C040E06A8189810E948C1F97CF2C8187
:103310003D8132272327322741E08B81811101C073
:1033200040E06A8189810E94BF1F32CF80936A008A
:10333000089590E0FC01E253FE4F208121110AC064
:10334000C59AFC01EE52FE4F10828F529E4FFC0137
:1033500010820895C598F5CFCF93DF93C82FD0E0A2
:103360008091FC0680FD06C0FE01EE52FE4F90816A
:1033700091111DC0FE01EF52FE4F80FF03C08081FE
:10338000811115C0DE01AE52BE4F81E08C93808367
:103390000E947225FE01EE0FFF1FE153FE4F918345
:1033A0008083C253DE4F8881882321F0C59ADF9144
:1033B000CF910895C598FBCF80E00E94AC19089585
:1033C0008091D201882359F18091CF019091D00151
:1033D0000E948A2520916A002817190620F480E0AF
:1033E0000E94991908952091FC0620FF18C0909121
:1033F000D10182FD0BC0911112C081E08093D101F7
:103400008091CE01882351F0C59A0895992339F00F
:103410001092D1018091CE018823B1F3C59808950F
:1034200081E08093CE01C598BD9A80E00E94AC19DE
:1034300008958091CE01811102C0C59A0895C59862
:103440000895AB0124E630E0BC0188E70E947626AF
:1034500021E0892B09F020E0822F0895B0E0A0E060
:10346000E4E3FAE10C94512A6C017B0164E670E01C
:1034700088E70E94E9258C01E601EC0CFD1CCE15C5
:10348000DF0561F40E94BC2681E00115110509F0F9
:1034900080E0CDB7DEB7E8E00C946D2A17FDF2CFDF
:1034A000FE01849164E670E00E944C268C01219616
:1034B000E6CF0F931F939B0104E610E0AC0160E49C
:1034C00088E70E94962621E0892B09F020E0822FD0
:1034D0001F910F9108950E94D925089508950E9483
:1034E0006E1A0895E5EFF2E080E094E0DF019C01C0
:1034F0001D9221503040E1F7F093FA06E093F9066F
:103500008FEF9FEF90931902809318020895CF9345
:103510000E946E1A0E946F1A8093140280FD11C0DF
:1035200080E4809313020E946B1A6BE070E08FEDD1
:1035300095E00E942E1A811106C0C0E08C2FCF9119
:10354000089580E8EECF8091140265E070E081FD7F
:1035500027C08AED95E00E942E1A882371F36DE052
:1035600070E088EC95E00E942E1AC82F882329F37A
:103570000E947E25605A75418F4F9F4F6093F506DC
:103580007093F6068093F7069093F8060E94721ADD
:1035900081E0809317028093160210921502CECF1D
:1035A00085ED95E0D8CF2091130236E0839FC001CE
:1035B0001124629F800D911D1124811524E0920732
:1035C00014F090E080E08B509D4F9093FA0680932A
:1035D000F9060895CF93DF932091F9063091FA060A
:1035E000255F3240A901460F571F4130544020F05B
:1035F00060E074E0621B730B409118025091190255
:10360000FC01C901620F731FC1E0D0E08617970764
:1036100038F05093190240931802DF91CF9108952A
:103620002491DC01AB50BD4F3C91321781F02C93BB
:103630009C01A6E036952795AA95E1F7DE0102C028
:10364000AA0FBB1F2A95E2F79D014A2B532B019627
:103650003196DCCF80911702811103C08091160250
:1036600008950E947E25605A75418F4F9F4F609349
:10367000F5067093F6068093F7069093F80680910E
:1036800016028111EBCF62E070E086EC95E00E94BB
:103690002E1A882319F381E080931602DFCF4F9210
:1036A0005F927F928F929F92AF92BF92CF92DF9262
:1036B000EF92FF920F931F93CF93DF9380911802A5
:1036C00090911902892B09F4D3C0809117028823A5
:1036D00009F4CEC0809115028111CAC00E942A1B34
:1036E00020911802309119022115310509F4C0C04A
:1036F00080E041E050E0082F10E02A01082E02C0CF
:10370000440C551C0A94E2F7B20162237323672B21
:1037100011F48F5FF0CF9091140290FFB9C098011F
:1037200046E0220F331F4A95E1F7C901880F892F20
:10373000881F990B9195880F880F880F63E0369545
:1037400027956A95E1F720952870206B20936C00EF
:10375000982F9F7090936D0082958F7080618093F9
:103760006E0064E070E08BE690E00E94211A8823EE
:1037700009F47EC036E0000F111F3A95E1F7809101
:10378000140280FF8CC0E3EDF1E080E4DF011D92C4
:103790008A95E9F7ABE0B1E093E0E92E91E0F92EEC
:1037A00027E0922E882483948D91E70149917E0130
:1037B000400F512F511D4B505D4FE82FF0E0ED525F
:1037C000FE4F30E020E0792C721AA82C022E01C0A6
:1037D000AA0C0A94EAF76A0180E0E60199916E0169
:1037E0009A21672D681B6770B62E062E000C770B8A
:1037F000D92F01C0DD0FBA94EAF77195619571096F
:103800006770772701C096956A95EAF76D2F692B47
:103810009081962B90838F5F8830F9F62F5F3F4F12
:1038200031962830310579F6E1E0A331BE0709F081
:10383000BBCF03ED11E08BE0E82E82E0F82E68E0CC
:1038400070E0C8010E94591A882391F0E016F10631
:1038500079F180916C008F5F80936C0064E070E080
:103860008BE690E00E94211A085F1F4F8111E7CF7D
:10387000DF91CF911F910F91FF90EF90DF90CF904C
:10388000BF90AF909F908F907F905F904F900895E2
:10389000806B80936C0010926D0080E160CF60E4DB
:1038A00070E0C8018B509D4F0E94591A882301F384
:1038B000E201C095D0958091180290911902C82319
:1038C000D923D0931902C0931802D2CF8091160247
:1038D00090911702911103C091E0892708958823E0
:1038E00069F062E070E084EC95E00E942E1A81118C
:1038F00003C080911602089510921602809116025C
:10390000EBCF0E94850508950F931F9380911702B6
:10391000882309F160E080E00E94D31A0E94811C94
:103920000E944F1B809116028823A9F00E947E25D9
:103930000091F5061091F6062091F7063091F806F1
:10394000601B710B820B930B6F3F7F4F8F4F9F4715
:1039500010F40E94661C1F910F910895CF93DF937E
:10396000EC01FB018581882309F4D2C09E01305708
:103970002332310508F0B2C00E942E109093DC0271
:103980008093DB02FE01E150F047E232F10520F4C2
:10399000E25FF44D0C943A2A8091DB0281608093BF
:1039A000DB0293C08091DC0288608093DC028DC0D2
:1039B0008091DB028260F3CF8091DB028460EFCFE5
:1039C0008091DB028860EBCF8091DC028160EDCFDB
:1039D0008091DC028260E9CF8091DB028061DFCFE1
:1039E0008091DB028062DBCF8091DB028064D7CFE5
:1039F0000E949D0A8091DB028068D1CF8091DB021A
:103A00008C60CDCF8091DC028360CFCF8091DB02D0
:103A10008E7FC5CF8091DC02877FC7CF8091DB028C
:103A20008D7FBDCF8091DB028B7FB9CF8091DB0290
:103A3000877FB5CF8091DC028E7FB7CF8091DC028B
:103A40008D7FB3CF8091DB028F7EA9CF8091DB0287
:103A50008F7DA5CF8091DB028F7BA1CF0E949D0A35
:103A60008091DB028F779BCF8091DB02837F97CFA2
:103A70008091DC028C7F99CF8091DB0282FB9927B9
:103A800090F921E0922790FB82F990FB83F987CF90
:103A90008091DC02982F909591708E7F892B90FBFE
:103AA00081F983CF9091DB02892F8F7B96FF806411
:103AB00076CF0E949D0A9091DB02892F97FB87F9B0
:103AC00080586DCF81E00E94CB108091DB029091F5
:103AD000DC020E9433100E949D0A80E0DF91CF91AA
:103AE000089580E0F0CF9091DB02892F8F7E94FFC4
:103AF000806155CF9091DB02892F8E7F90FF81608E
:103B00004ECF9091DC02892F877F93FF88604DCF45
:103B100081E0E4CFB0E0A0E0E0E9FDE10C94522ABE
:103B2000E82FF0E0E651FA4FD490282F26952695FD
:103B3000269530E0F901E657F94F0491877010E0BF
:103B4000082E02C0159507950A94E2F70170112717
:103B5000F901E658F94FE490F12C082E02C0F594D3
:103B6000E7940A94E2F791E0E922FF24F901E6598B
:103B7000F94FC491D0E002C0D595C7958A95E2F778
:103B8000C170DD270115110519F081EE0E943D0776
:103B9000E114F10419F086EE0E943D078D2D0E947C
:103BA0004108E114F10419F086EE0E94CF070115D7
:103BB000110519F081EE0E94CF07CD2B19F08CE290
:103BC0000E944108CDB7DEB7E7E00C946E2AEF9271
:103BD000FF920F931F93CF93DF93EC01162F0AE010
:103BE0008881882309F454C0813009F04EC089814E
:103BF000813099F47E0122E0E20EF11C8A810E945C
:103C00004108E7012196812F815050F3EFE9FFE051
:103C10003197F1F700C00000F7CF823041F47E0108
:103C200082E0E80EF11C8A810E943D07EACF8330D2
:103C300041F47E01E2E0EE0EF11C8A810E94CF0782
:103C4000E0CF843011F02196DDCF2A81229690E0DA
:103C500080E0AE014F5F5F4F2053330B2A303105B8
:103C600048F0019778F2EFE9FFE03197F1F700C0F3
:103C70000000F7CF089FB001099F700D1124C90102
:103C8000860F971F2981EA01E4CF0E948A1DBACFCF
:103C9000CDB7DEB7E6E00C946F2A8FE891E001978C
:103CA000F1F700C00000089581E080931B02A29804
:103CB000AA9A8F98979A0E944D1E40911B026DE11F
:103CC00072E0FB018E2F861B841708F0089583B3E2
:103CD00082FB882780F920B330E0220F232F221F98
:103CE000330B90E0232B09F092E0892B8193EACFEC
:103CF000A8E1B0E0EEE7FEE10C944A2A10E000E013
:103D000032E0932E44E0A42EB12C5DEF852E772473
:103D100073946CEF662E73E0572E80911B02181778
:103D200028F0802F6896EFE00C94662AE12EF12CA3
:103D3000E3B3E2FBEE27E0F980B390E0880F892F30
:103D4000881F990B892B09F095C080E08E2BD70135
:103D5000A35EBD4FEC919E2F9370981709F488C015
:103D6000EE0FEE0FE82BEC93EF70F0E0ED5EFE4F00
:103D7000C701845E9D4F6C018081F6019081890F9F
:103D8000808320E084309CF1F701E65EFD4F808166
:103D90008F5F80830E9472251D876E86682F8F87B4
:103DA000988B598A7A8A412F5CEF792F83E091E0D2
:103DB0000E94FA068FE39CE90197F1F700C000002A
:103DC0000E9472251B8B6C8A682F8D8B9E8B5F8A5D
:103DD000188E412F5CEF792F83E090E00E94FA0665
:103DE000EFE3FCE93197F1F700C0000021E0F601B4
:103DF00080818D3F9CF5F701E65EFD4F808181500B
:103E000080830E94722519838A82682F8B839C830A
:103E10009D827E82412F5DEF792F82E091E00E94AA
:103E2000FA068FE39CE90197F1F700C000000E94B9
:103E300072251F838886682F89879A879B861C86B0
:103E4000412F5DEF792F82E090E00E94FA06EFE3C8
:103E5000FCE93197F1F700C0000021E0F601808114
:103E6000082E000C990BB5010E94262A8083022B94
:103E70001F5F53CF82E06ACF82E0089550E0440F85
:103E8000551F9EE1699F400D511D112494EB899FA0
:103E9000400D511D1124CA01899608950F931F9357
:103EA000CF93DF938230C8F46630B8F44F30A8F473
:103EB0000E943E1F8C010E94942AC82FD0E0DC2F64
:103EC000CC27C80101960E94942A9E01282BC90183
:103ED000DF91CF911F910F91089590E080E0F8CF8E
:103EE0000F931F93CF93DF93122F032F823078F419
:103EF000663068F44F3058F40E943E1FEC01602F8A
:103F00000E94B82A612FCE0101960E94B82ADF9143
:103F1000CF911F910F910895FF920F931F93CF930D
:103F2000DF93F42E823040F5611126C024E0829F99
:103F3000800111240F561E4F82E090E0442311F0BF
:103F400090E080E0800F911F0E94942AC82FD0E05B
:103F5000DC2FCC2783E090E0FF2011F081E090E09F
:103F6000800F911F0E94942A9E01282BC901CDB772
:103F7000DEB7E5E00C94702A90E080E0F8CF0F9374
:103F80001F93CF93DF93142F022F8230F0F461112F
:103F90001CC094E0899FE0011124CF56DE4F82E0DF
:103FA00090E0442311F090E080E0632F8C0F9D1F80
:103FB0000E94B82A83E090E0112311F081E090E0A4
:103FC000602F8C0F9D1F0E94B82ADF91CF911F9107
:103FD0000F9108951F93CF93DF93C0E0D0E011C0FD
:103FE000412F6D2F8C2F0E9491059C01412F6D2F29
:103FF0008C2F0E94701F1F5F1F3091F7DF5FD6303C
:1040000011F010E0EDCF41E060E08C2F0E94AD0593
:104010009C0141E060E08C2F0E94BF1F40E060E007
:104020008C2F0E94AD059C0140E060E08C2F0E9427
:10403000BF1FC13011F0C1E0D1CFDF91CF911F91EF
:104040000895EF92FF920F931F93CF93DF93EC01AC
:104050008A017C01E60EF71ECE018996CE15DF059A
:1040600029F4CDB7DEB7E6E00C946F2AC83621E01C
:10407000D20740F40E94942AF80180830F5F1F4FFB
:104080002196EACFF8011082F9CFB0E0A0E0EBE48E
:10409000F0E20C94512A7C016A018C01060F171F73
:1040A000EC01CE018996C017D10729F4CDB7DEB750
:1040B000E8E00C946D2AC83621E0D20740F4FE01F6
:1040C000EE19FF09EC0DFD1D60810E94B82A2196B2
:1040D000E8CF823038F4663028F44F3018F40E946C
:1040E0004E1F089590E080E00895823028F4611119
:1040F00003C00E948C1F089590E080E0089580E145
:10410000089587E692E00895EF92FF920F931F9330
:10411000CF93DF93EC018A017C01E60EF71ECE01FE
:1041200087569E4FCE15DF0529F4CDB7DEB7E6E002
:104130000C946F2AC73622E0D20740F40E94942ADA
:10414000F80180830F5F1F4F2196E9CFF80110829D
:10415000F9CFB0E0A0E0EFEAF0E20C94512A7C0144
:104160006A018C01060F171FEC01CE0187569E4F86
:10417000C017D10729F4CDB7DEB7E8E00C946D2A5B
:10418000C73622E0D20740F4FE01EE19FF09EC0D1C
:10419000FD1D60810E94B82A2196E7CFCF93DF935F
:1041A000C9E9D1E060E0CE010E94B82A2196C1158C
:1041B00084E0D807B9F7DF91CF910895A8E0B0E087
:1041C000E4EEF0E20C944F2AF82E8FE08F1508F4FD
:1041D0006EC08FEF93E00E94942A811168C009E9B4
:1041E00011E0F11035C0FE0131966F0188E01192A7
:1041F0008A95E9F77801FFEFEF1AFF0AC8010E94DC
:10420000942A89831A82882309F451C08130D1F419
:10421000580182E0A80EB11CC7010E94942A8A832B
:10422000882309F444C09FEF980F9330F0F478018D
:1042300093E0E90EF11CC5010E94942A8B83882328
:10424000B1F11C826AE0C6010E94E71D8701D2CF4E
:10425000011594E0190759F1C8010E94942A8111AF
:1042600001C0FA940F5F1F4FBCCF7501843051F726
:1042700002E010E07501EFEFEE1AFE0AC5010E94A0
:10428000942AF601E00FF11F8083882381F08C3798
:1042900041F4E2E0F0E0EC0FFD1FE00FF11F1082AF
:1042A000D1CF0F5F1F4F57010730110519F728961F
:1042B000EAE00C946B2ACF93DF93EB0186319C47A5
:1042C00011F50E942D0F9D81992399F08A7A91E032
:1042D00009F490E090931E02811109C089E20E94C6
:1042E000050F0E94860F80E0DF91CF91089585E34E
:1042F000F6CF80911E02811104C089E20E940D0F49
:10430000F0CF85E3FBCF81E0EFCF81E008950F93FD
:104310001F93CF93DF938C01EB018D81882361F094
:10432000F801E054FC47ED30F10530F4E05DF44D68
:104330000C943A2A0E94E0210E94FD22882371F009
:104340008D818823A9F10E940123823038F4BE01B7
:10435000C8010E94852181110E94492381E0DF91DB
:10436000CF911F910F9108950E94F021E5CF0E94F7
:104370000022E2CF0E942F22DFCF0E941422DCCF46
:104380000E94B522D9CF0E948522D6CF0E948C22CE
:10439000D3CF0E94D322D0CF0E94E822CDCF0E945B
:1043A0002B23CACF0E943523C7CF0E943F23C4CFFF
:1043B0000E940123882391F2CACF0E94E019089538
:1043C000EBEFF6E08081816080836091FB06709165
:1043D000FC068091FD069091FE060E94C41008958F
:1043E000EBEFF6E080818E7F80836091FB06709119
:1043F000FC068091FD069091FE060E94C41008956F
:104400008091FB0680FF0DC00E94F0216091FB06A9
:104410007091FC068091FD069091FE060E94C410EA
:1044200008950E94E021F2CF9091FE0681E0890F6D
:1044300083709C7F892B8093FE06982F9370933016
:1044400019F48C7F8093FE066091FB067091FC0648
:104450008091FD069091FE060E94C4100895EBEF36
:10446000F6E080818160808388E18183EEEFF6E071
:1044700080818C7F80838CE00E9496196091FB067E
:104480007091FC068091FD069091FE060E94C4107A
:1044900008950E941810811102C00E94BC100E9451
:1044A000BF106093FB067093FC068093FD0690930B
:1044B000FE068091FC0686950E9496198091FB0667
:1044C0009091FC06A091FD06B091FE06892B8A2BE7
:1044D0008B2B21F08091FC068E7F11F40E942F22FD
:1044E0000E94101A0895EBEFF6E0880F908191700A
:1044F000982B90836091FB067091FC068091FD06DD
:104500009091FE060E94C41008958091FB06869546
:104510008F5F0E94732208958091FB0686958150DB
:104520000E94732208958093FD066091FB067091AE
:10453000FC068091FD069091FE060E94C41008952D
:1045400091E0811101C090E08091FC0690FB80F920
:104550008093FC066091FB067091FC068091FD063D
:104560009091FE060E94C4100895ECEFF6E0908151
:10457000892F8095817080FB90F990830E94A02202
:104580000895ECEFF6E0880F90819170982B90835E
:104590006091FB067091FC068091FD069091FE06ED
:1045A0000E94C4100895CF93DF93C091FC06C69576
:1045B000C43658F4D0E021968C2F0E9496198C2F87
:1045C0000E94C122DF91CF910895C4E0D0E0F4CFE2
:1045D000CF93DF93C091FC06C695C53058F0C1500B
:1045E000DD0B8C2F0E9496198C2F0E94C122DF9127
:1045F000CF910895C4E6D0E0F4CF8091FB0681709E
:1046000008958091FB0680FF04C08091FE068370B0
:10461000089580E00895EEEFF6E080818460808365
:104620006091FB067091FC068091FD069091FE065C
:104630000E94C4100895EEEFF6E080818B7F8083A6
:104640006091FB067091FC068091FD069091FE063C
:104650000E94C41008958091FE0682FF03C00E944C
:104660001B2308950E940B2308958091FD0688372F
:1046700020F4865F0E949322089588E7FBCF809103
:10468000FD06843120F08A500E949322089584E12F
:10469000FBCF0E94DC1908950E94191A08950F9308
:1046A0001F93CF93DF93C42FD22FFC0185818823E2
:1046B000C9F0409321020E947225909320028093BA
:1046C0001F0280E28C0F883040F4C77081E001C087
:1046D000880FCA95EAF70E944A08DF91CF911F918F
:1046E0000F91089510912102141332C080911F027E
:1046F000909120020E948A25883C910548F5C0E2ED
:10470000CD0F1D17B9F080E2810F883040F417708B
:1047100081E001C0880F1A95EAF70E945108C8305D
:1047200048F481E09D2F977001C0880F9A95EAF7B1
:104730000E944A08802F0E944108C83070F6D77046
:1047400081E001C0880FDA95EAF70E945108C5CFD1
:1047500080E28C0F883008F6C77081E001C0880FB6
:10476000CA95EAF7F2CF0F93DB0188519C47873057
:104770009105A0F5FC01E35CF44D0C943A2A06E2A5
:1047800021EE41EE6AE17CE7CD010E944F2380E0FB
:104790000F91089507E225EE45EE6BE17CE7F4CF3B
:1047A00006E221EE40EE68E17CE7EECF07E225EE7F
:1047B00044EE69E17CE7E8CF06E221EE42EE6CE1EF
:1047C0007CE7E2CF07E225EE46EE6DE17CE7DCCF49
:1047D00008E221E045EE6EE17CE7D6CF15968C919C
:1047E000882319F010922102D3CF81E0D1CF1F93FB
:1047F000CF93DF9387372CE7920759F0C1E08837D2
:104800009C47E1F4FB01C581CC2371F10E943A245D
:1048100006C0FB01C581CC23B1F00E9437240E9461
:10482000150B0E943D24D82F0E943A24C82F0E94C5
:1048300037244D2F6C2F0E943F0CC0E08C2FDF914E
:10484000CF911F9108950E9437240E94210B0E944E
:104850003D24182F0E943A24D82F0E943724412F3C
:104860006D2F0E943F0CEACF0E943A24EECF809138
:104870007100089580917000089580916F000895EF
:1048800090932702809326020895E0912602F091EA
:104890002702309729F00190F081E02D09950895C5
:1048A00080E008950E9445240895E0912602F09149
:1048B0002702309721F00280F381E02D09950895B9
:1048C000E0912602F0912702309739F022E0DC01D6
:1048D0002C930480F581E02D09950895A3E0B0E0C4
:1048E000E4E7F4E20C94572A209124023091250247
:1048F00028173907A1F09093250280932402E091B4
:104900002602F0912702309751F023E029839B8300
:104910008A830680F781E02DCE01019609952396C2
:10492000E2E00C94732AA3E0B0E0E9E9F4E20C942D
:10493000572A209122023091230228173907A1F02B
:104940009093230280932202E0912602F0912702A5
:10495000309751F024E029839B838A830680F78176
:10496000E02DCE01019609952396E2E00C94732A7E
:104970009C012E5F3F4FAC01485F5F4F80E02417E2
:10498000350709F40895F90191919F019923B9F32D
:104990008F5FF5CF662349F0FC013296089621918E
:1049A000261729F0E817F907D1F780E0089581E08C
:1049B00008959C01FC0132969FEF80E041914617DB
:1049C00051F09F3F19F4411101C0982F8F5F86303D
:1049D000A9F79F3F09F40895290F311D97FD3A95D6
:1049E000F90162830895FC013296089621912613FD
:1049F00003C0DF0111971C92E817F907B9F7089572
:104A00000E94D92408950E94F3240895029626E076
:104A1000FC0111922A95E9F70895DC01FB0111963A
:104A20009C9111978181981322C012968C911297B4
:104A3000882319F0928189131AC013968C911397C9
:104A4000882319F09381891312C015968C911597BC
:104A5000882319F0958189130AC014969C91992393
:104A600021F081E02481291303C080E001C081E0AE
:104A700081700895089508950E943B250895089532
:104A800008950E943A250895CF930E943F250E94E1
:104A900018150E944025C0E08C2F0E944D14892BD0
:104AA00031F4CF5FC630C1F780E0CF91089581E047
:104AB000FCCF84B7806884BF84B7806884BF0895C2
:104AC00080912A0281110E94A80608950E949D0AE1
:104AD0000E94AF0608958BE083BF8AEF8CBF82E00F
:104AE00089BF08952FB7F8948091FF069091000731
:104AF000A0910107B09102072FBF08952FB7F89436
:104B00006091FF0670910007809101079091020764
:104B10002FBF08959C014FB7F8948091FF069091A4
:104B20000007A0910107B09102074FBF821B930BB2
:104B3000089578941F921FB61F9211248F939F930C
:104B4000AF93BF938091FF0690910007A09101075A
:104B5000B09102070196A11DB11D8093FF069093AD
:104B60000007A0930107B0930207BF91AF919F91F7
:104B70008F911F901FBE1F90189588E198E00FB687
:104B8000F894A89581BD0FBE91BDA895F894D8E082
:104B9000CEE528E3299320E0299314BEFFCF0895A2
:104BA00088E198E00FB6F894A89581BD0FBE91BD3D
:104BB000FFCF11B88CE080B985B3836085BB86B721
:104BC000846086BF86B7816086BF86B7806486BFF3
:104BD0000895B0E0A0E0EFEEF5E20C944E2AB82E76
:104BE000EB010E9472256C01EE24E394F12CC43198
:104BF000D10560F025E0E22EF12CCF3FDC0731F04B
:104C0000CE0164E170E00E94122A7B0184EAA82EA2
:104C100094E8992E16BEA6BE0E9472258C0106B697
:104C200007FE0BC081B1887F8830F1F081B1887FA9
:104C30008031D1F00FEF1FEF08C0C8010E948A2514
:104C4000E816F90660F70EEF1FEFCF3FDC0711F310
:104C5000C6010E948A25C817D907E0F6C801CDB75A
:104C6000DEB7EBE00C946A2AB3B896BE0E947225B8
:104C70008C0106B607FE09C081B1887F883111F02A
:104C80008034C1F610E000E0E9CFC8010E948A2517
:104C9000E816F90670F7D7CF0F931F93CF93DF93E2
:104CA000EB0183B984E886BF0E9472258C0106B6A9
:104CB00007FE10C021B1287F81E090E0283211F476
:104CC00090E080E0919581959109DF91CF911F91BE
:104CD0000F910895CF3FDC0751F3C8010E948A2548
:104CE000C817D90720F78EEF9FEFEFCFB0E0A0E015
:104CF000ECE7F6E20C94512A6B018A017901B901C3
:104D00000E94E925E6010C0D1D1DC017D10711F009
:104D100097FF07C024E926BFCDB7DEB7E8E00C94C3
:104D20006D2AB70189910E944C26EFCFB0E0A0E038
:104D3000ECE9F6E20C94512AC62F6A017901B80118
:104D40000E94E92597FD0CC0B8018C2F0E944C26CB
:104D5000E601EC0CFD1CCE15DF0511F097FF07C036
:104D600024E926BFCDB7DEB7E8E00C946D2AB80180
:104D700089910E944C26EFCF84E986BF08950E9456
:104D80007225909329028093280208950E94F729A2
:104D90008B9A80E0815019F48B9878940895A895A7
:104DA000EFE9FFE03197F1F700C00000F3CF0E9478
:104DB000EB270E9440242FEF80E792E021508040B3
:104DC0009040E1F700C00000089580912A078823F1
:104DD00069F110922A070E9472259093290280930C
:104DE000280280912A02882341F010922A020E9410
:104DF000662580912A0281111DC00E940729809199
:104E00003007882329F080910E0784FD0E945311FA
:104E10000E945C270E94072980913007882329F08F
:104E200080911A0784FD0E94DF27089580912A024D
:104E3000882301F10E9460250E9444258823A9F35C
:104E4000F89421B3939A822F8C6081BB92B33CE09B
:104E5000932792BB4FE788E391E041508040904018
:104E6000E1F700C0000082B3832782BB21BB939887
:104E70007894089580912802909129020E948A25B1
:104E8000069708F4B6CF81E080932A020E9460253D
:104E9000B0CF8091DA0208952091470724FF03C024
:104EA00063E00E94FD2808952091470724FF03C076
:104EB00066E00E94FD280895CF93DF93CAE0D0E01A
:104EC00080910E0784FF1AC080915702909158027A
:104ED000981789F028E0829FC001112468E0875A62
:104EE0009D4F0E94F8288091570290E001968F70A4
:104EF000992780935702DF91CF9108950E94072947
:104F00008FE99FE00197F1F700C000002197C1F6FB
:104F1000F2CFCF93DF93EC01A0915802B0E0CD0126
:104F200001968F70992720915702281779F093E006
:104F3000AA0FBB1F9A95E1F7A75ABD4F98E0FE0153
:104F400001900D929A95E1F7809358020E940729EB
:104F50000E945C2788E0FE01AFE4B2E001900D9270
:104F60008A95E1F7DF91CF9108950F931F93CF9327
:104F7000DF93EC016032D9F48C01005E1F4F02C058
:104F80000E94072980911A0784FFFACF68E0CE01BA
:104F90000E9402292896C017D107A1F780911A070D
:104FA00084FF0AC060E090E080E00E940229DF9167
:104FB000CF911F910F9108950E940729EFCF809103
:104FC0002E02803239F460E28FE292E00E94B01843
:104FD00010922E02089582E790E00895FC018081EE
:104FE00080768032F1F48181813061F48481958111
:104FF000892BB9F48FE492E090932C0780932B07D0
:1050000088E00895823041F489ED92E090932C0776
:1050100080932B0781E008958A3029F4838180935F
:10502000D90280E008958930E1F78281938181156A
:10503000924069F484819581892B49F481E08093C1
:105040002D028681978190932C0280932B028FEF03
:105050000895FC0180912B0290912C02892B61F024
:1050600080912D02813041F490819093DA02109268
:105070002C0210922B0208958FEF0895683019F0DA
:1050800010922E02089520912E022931C8F7FC01BA
:10509000A22FB0E0A15DBD4F089631913D93E81776
:1050A000F907D9F7285F20932E020895FC01838128
:1050B000833089F130F48130F1F0823021F180E0E9
:1050C0000895813209F446C08232C9F724813581BE
:1050D0002130310509F45CC02115310509F450C0B7
:1050E0002230310561F789E597E090932C07809392
:1050F0002B078BE7089585EF96E090932C0780931C
:105100002B0782E108958AE996E090932C0780931B
:105110002B078BE5089582818130A1F0882351F01F
:10512000823069F687E097E090932C0780932B07F5
:1051300088E1089583E397E090932C0780932B07F1
:1051400084E0089581E297E090932C0780932B07E9
:1051500080E108958281813081F0882331F08230AE
:1051600009F0ADCF85EE96E002C08CEA96E0909310
:105170002C0780932B0789E0089585EC96E0F7CF04
:1051800084ED97E090932C0780932B0784E4089597
:1051900027E337E030932C0720932B0708951F93C4
:1051A000CF93DF93E82F792F162FEA01888184FFB0
:1051B0001CC0298188E828272983CE010296DC01BA
:1051C0002E2F372F512F5E0FF90121912D939F0123
:1051D000452F4E1B1416C4F3612F0E9440041C5F20
:1051E0001883DF91CF911F9108958AE58883E5CFD9
:1051F0004EE057E00E94CF28089547E457E00E9410
:10520000CF2808954AE157E00E94CF280895CF9310
:10521000DF9360912D07635067FD12C080912907CD
:10522000CCE0D0E0C81BD109CF5CD84F80912807D3
:10523000803108F054C0CE010E943E2810922D0704
:1052400080917B0084FF3EC080917A008F3FD1F136
:10525000C82F893008F0C8E0982F9C1B90937A00E3
:105260009091030728E89227909303078823E9F099
:1052700080912B0790912C072091270726FFAEC025
:10528000FC012C2FA4E0B7E034913D9331962150DE
:10529000D9F79C012F5F3F4F8FEF8C0F820F932F19
:1052A000911D90932C0780932B076C2F84E097E03F
:1052B0000E944004CC5FCC3019F08FEF80937A00CD
:1052C000C0937B0084E190B39C7031F48150D9F796
:1052D00010922E0710922607DF91CF9108958D32FC
:1052E00009F069C0683009F0A9CF83EC8093030707
:1052F0008AE580937B00109227078881807671F081
:10530000CE010E94EE278F3FC1F4988197FD8E81D8
:1053100090E89093270780937A0090CF2A8110928B
:105320000C079981911111C010920D072CE037E004
:1053300082E030932C0720932B079F819111EBCFB4
:105340009E81981740F7892FE6CF953029F4209356
:105350002E072CE037E0EDCF963099F49B81913009
:1053600021F4CE010E94562808C09230D1F3933028
:10537000C1F39132B1F39232A1F390E490932707F5
:10538000C2CF983089F0993019F420933007E1CFDB
:105390009A3071F09B30E9F69BE490930F0790935D
:1053A000480790931B07D5CF20E337E081E0C1CFBA
:1053B0002CE037E0FBCF8091270787FF3FCFCE015E
:1053C0000E9429288F3F21F48EE180937B0036CF05
:1053D000882309F433CF10927A0030CFDC012C2FD0
:1053E000E4E0F7E03D9131932150E1F752CFCF93C4
:1053F000DF9385B7886085BF8BB780688BBFCEE0B1
:10540000D7E08BE48983A7E4B7E011968C931197DA
:10541000EAE1F7E081838AE588838C938083DF91DA
:10542000CF910895AA1BBB1B51E107C0AA1FBB1F48
:10543000A617B70710F0A61BB70B881F991F5A9520
:10544000A9F780959095BC01CD01089597FB072E93
:1054500016F4009407D077FD09D00E94122A07FCA9
:1054600005D03EF4909581959F4F08957095619574
:105470007F4F0895EE0FFF1F0590F491E02D0994E2
:1054800069279627692778278727782708952F92F5
:105490003F924F925F926F927F928F929F92AF92C4
:1054A000BF92CF92DF92EF92FF920F931F93CF9311
:1054B000DF93CDB7DEB7CA1BDB0B0FB6F894DEBFA8
:1054C0000FBECDBF09942A88398848885F846E84CE
:1054D0007D848C849B84AA84B984C884DF80EE8018
:1054E000FD800C811B81AA81B981CE0FD11D0FB621
:1054F000F894DEBF0FBECDBFED010895FB01DC01C6
:1055000004C08D910190801921F441505040C8F79A
:10551000881B990B0895FB01DC0102C001900D92DC
:1055200041505040D8F70895E199FECF9FBB8EBB04
:10553000E09A99278DB30895A6E1B0E044E050E0E9
:105540000C94DD2AA8E1B0E042E050E00C94DD2AA2
:10555000DC01A40FB51F4150504048F0CB01840F2F
:10556000951F2E910E94B92A41505040D0F70895BE
:10557000262FE199FECF9FBB8EBBE09A01970DB21B
:10558000021631F02DBB0FB6F894E29AE19A0FBEE5
:1055900008950396272F0E94B92A0E94B82A252F22
:1055A0000E94B92A242F0C94B92A0196272F0E9411
:1055B000B92A0C94B82ADC01CB01FC01E199FECF99
:1055C00006C0FFBBEEBBE09A31960DB20D92415082
:1055D0005040B8F70895F894FFCF97089708E70868
:1055E000E70851096D09C608C6087209D909E80912
:1055F000E809C518D1180719191924192F193219D2
:1056000032193219D718D71837193B1943195019BD
:105610005D196019631970197D198719061D7A1DA6
:105620000E1DD81CDC1C121DE01C161D221DEC1CBE
:10563000731DF01C261DF41C2A1D521DF81C2E1D66
:10564000591DFE1C341D3C1DE41C1A1DE81C1E1DAA
:10565000021D381D481D621D711DD21C0A1D811DB1
:105660009A21B421B721BA21BD21C021C321C6216D
:10567000CF21D221D521C921CC21D023D623BF23AC
:08568000CA23DC23E223E82326
:105688009901280850011E0A14010C00B0001003EB
:1056980002014927892754274C27FF5AE200E900CD
:1056A800EA00B500B600B700CD008301CC008A013E
:1056B80092019401210223022402250226022702D4
:1056C8002A02B300B4006F0070009F01CB019F0253
:1056D800A002818283E200E900EA00B500B600B7C3
:1056E80000CD008301CC008A01920194012102239C
:1056F8000224022502260227022A02B300B4006F00
:105708000070009F01CB019F02A0028182839192C9
:1057180093606162636400010506353433369697F9
:105728009437950008101820283038383028201869
:1057380010080000FF0100010000FFFF0000010049
:0457480001FF00005D
:00000001FF
