:100000000C94F6040C943A050C9455050C943A059E
:100010000C943A050C943A050C943A050C943A0564
:100020000C943A050C943A050C943A100C943A0549
:100030000C943A050C943A050C943A050C943A0544
:100040000C943A050C943A050C943A050C943A0534
:100050000C943A05000000000000000000000000C1
:100060000000000000000000000000000000000090
:1000700000000000000000007E0F00D4FFFFFFC75B
:100080000000007800000000000000002A2B28007B
:100090000000000000000000000000000000002937
:1000A000000000002C1E3420212224342627252E77
:1000B000362D3738271E1F202122232425263333AF
:1000C000362E37381F0405060708090A0B0C0D0EDB
:1000D0000F101112131415161718191A1B1C1D2FA7
:1000E0003130232D350405060708090A0B0C0D0EC7
:1000F0000F101112131415161718191A1B1C1D2F87
:100100003130354C00DA12811ED9F1DB20A4A62E45
:10011000AF00A0C0D36000A1C8D32000AED580A896
:100120003FDC008D142000000000000000000000F3
:1001300000000000000070FC8E06FFFF0303061E97
:10014000FCE000FFFF0303C3FF3F03FCDE06FFFFED
:100150000303070EFCF00000000000000000000098
:10016000000000000000000000000000000000008F
:1001700000000000000000010333FFFF76F3F09E53
:100180000F0300E3FF1C1C1C090100010303FFFF18
:1001900006020000FFFF0000000000000000000059
:1001A00000000000000060E0E0000020E0E000E06F
:1001B000E060606060E0E02080C4E7E7E06063C783
:1001C000C684000787C6E6E6E66666C0C00407E7A1
:1001D000E626C6E763E0C000000020E0E00080C043
:1001E000E0606060C08000FFFF606060FFFF003F74
:1001F000FFC080803F3F000F3F71FFFFC0C0200065
:10020000FFFF001F3F71FFFFC0C00000FFFF00FFA6
:10021000FF00000307FFFF38F0C080FFFF00FFFF73
:10022000000008CCCFC7C0FFFF00048CFFFF01F81F
:10023000FEC7C3C3C1C0C0000000FFFF8E0E1E7FFB
:10024000F3C180000000FFFF8E0E1E7FE38000FFE1
:10025000FF80000000FFFF8000018FFFFF003F7F55
:10026000E0C0C0FFFF8000000000000000000000B0
:100270000000000000000000000000000000C38C2F
:100280001860C00000000000000000000000000036
:10029000000000000000000000000000000000005E
:1002A000000000000000000000000000000000004E
:1002B000000000000000000000000000C0C8F08145
:1002C00086F88003EC180000000000F0000000E059
:1002D0001E00008078070000F01F00000000077873
:1002E0008000011EE000000EFEFEFCFCF870706055
:1002F00060C0808000000000000000243F878F7FE6
:100300000F1FFF1F1F1F0F0808F81F1010F03E21BE
:1003100020A078474040F09F80808080808080804F
:1003200087F8C040415EE020202FFFFFF8F0F0F09A
:10033000F0FDFFFF3F1E80C044242213190804046F
:1003400002030100000000000F0000E01E01008019
:1003500078070000F00F0100C03C030000011FF00F
:10036000000007788000011EE000000FFFFFFF7F04
:100370001F0F03000000000000000000000000004C
:10038000000000000000000000000001000008075D
:100390000000701F0100C03C0300000000000001CD
:1003A0001FF0000007780000010E000000010000AF
:1003B000000000000000000000000000000000003D
:1003C000000000000000FD377A585A000004E6D60D
:1003D000B4460200210116000000742FE5A3E00CD2
:1003E0001702D25D003D8889C65436C3174FE4E535
:1003F000925EEEA5572BC703411AB61D46CBFC6192
:10040000B1312BA0CC36A21548B182F497092E3F0A
:10041000F2FACC5E51FED2FC1E56102CFEE0D1A1A9
:10042000E6619C220489C455CA1A743064B1380A42
:100430004F1F45F8639B24B499F55755D209EEFB3D
:1004400062B3A732A27A30805FC15909DD56C1611B
:1004500071D83581A4C08E88888A9D90D1210EC91B
:100460004440BA564B5D42DF5EFAE340698A9F5DC5
:10047000975CC9E4F05AFB4FD68B73B7F15921C58D
:1004800099A1AFB566FA3848A397BFFB1D0853077B
:100490000310C71A7AF7115F1A91AF19CC723CB7E3
:1004A000D69B4AD01F5EAA594B992BE4FFFEC7D7B3
:1004B000160919CD7C30D4B908E370AD9B0E0AB390
:1004C000D97BC4E3E529BF1D128F20A3FBC6690EAB
:1004D000ACF0F07F4D570DE400F4235BCA9654BA9C
:1004E000B646A37FE97BF3166218D700BFEC4DD563
:1004F0002457DDFB62CBF1098EAF066747C3073E89
:10050000D52048918DC8661F8F74E4AD2E6D6F5154
:10051000CF28C8F2F13E95419CDD22F31D9A0B9F36
:100520005F1E941976B55E3A9859AC5E2450C70D9B
:10053000DF67CD0273B3A0468419E39891A0AC3E67
:10054000A759607A1C6A56D3963134DCE4BD748BAB
:100550005DE9DD7BEA17A3FC8C5CAD680E3027DB20
:10056000A02BFE597784D30266703CC270793B831E
:10057000BE1BBFFAF77DB14468143954312FB9510D
:10058000CE02802E3AC1383AC64B4148ABAD718B92
:100590007E17DBED7E6B318A007AEFD28CB6B6F433
:1005A000497815EB5E3C60152B6913420D1B9DCA03
:1005B00073BB74E3B6D8029620214D3FEB71FAA7C6
:1005C00091E75F3EB649F56EF2EB8C5F4AE457C99E
:1005D0005BBB405E0DA5B47E8687A186D69B8FC18E
:1005E000E80B107760689CC7D0D71DB730ED4EA9D7
:1005F000045E0C31EF12694905B59889E62714C9E4
:1006000061CCB6A8972AF7B54536CB95B44DA9036A
:1006100099B3F9C99B5157EB66C5C3DC92DDBFAFF7
:100620001B903C59CDF2AFA92A3A8D799D187CC513
:1006300069F775F8BD5FCEB30FDEA4898B767111B3
:10064000343F5914B42F1C4C7E268B1A76A006C654
:10065000D4E02BC5E77F7CD2AA210C34F1B5164E2D
:10066000E490FCE5867EC22AC8DA869E692AE8F014
:100670009A9CCDDFE49BBBB03422C973735BB41D7D
:1006800039675845347FF2BD44EF1584F6368186CC
:1006900075712BC8EB80AB55CE8D1DF8DAD4EFAC5D
:1006A000BE657B4FA66019B48A287940F1A11DDE92
:1006B000456FEAF5C4FAE9000000413A0B60CF7BD0
:1006C00010830001EE0598180000DC1A3A4DB1C401
:1006D00067FB020000000004595AAA00A9004E005E
:1006E0004B003A003B003C003D003E003F00400014
:1006F0004100420043004400450046004700A80076
:1007000035001E001F0020002100220023002400CD
:100710002500260027002D002E0031002A002B0086
:1007200014001A000800150017001C0018000C0027
:10073000120013002F00300031004A00390004007D
:100740001600070009000A000B000D000E000F0044
:100750003300340028004B004E00E1001D001B0058
:10076000060019000500110010003600370038009F
:10077000E500E5005200E100E000E300E200760061
:100780002C00015101512C00E600E700E40050006C
:1007900051004F002900010001000100010001008B
:1007A0000100010001000100010001000100010041
:1007B0000100E85C010001000100010001000100EE
:1007C0000100010001000100010001000100010021
:1007D0000100010001000100010001000100010011
:1007E0000100010001000100010001000100010001
:1007F00001000100010001000100010001000100F1
:1008000001000100010001000100010001000100E0
:1008100001000100010001000100010001000100D0
:1008200001000100010001000100010001000100C0
:1008300001000100010001000100010001000100B0
:100840000100010001000100005C010001001C0228
:1008500000000200020018020000030001001D0257
:100860000000040002000202B807050001001E0299
:1008700000000600020004020000070002001A0245
:100880000000080001001F02000012000200200208
:100890000000130002002202000000AF00AE0501BC
:1008A0000980A101850319012AB700150126B700A7
:1008B000950175108100C0050C0901A1018504197D
:1008C000012AA002150126A002950175108100C021
:1008D0000660FF0961A1010962150026FF0095204D
:1008E000750881020963150026FF0095207508919F
:1008F00002C005010906A101050719E029E7150055
:100900002501950875018102950175088103050788
:10091000190029FF150026FF0095067508810005BE
:100920000819012905950575019102950175039135
:1009300003C01C037600690061006C003A00660089
:1009400036003400630032006200330063000000B0
:100950001603720065006400680065007200720092
:1009600069006E00670000001003640063007000FF
:1009700065006400690074000000040309040902B2
:100980005B00030100A0FA0904000001030101005B
:10099000092101010001224000070581030800012F
:1009A00009040100020300000009210101000122E5
:1009B000220007058403080001070504030800015D
:1009C00009040200010300000009210101000122C5
:1009D0003200070583030800011201100100000026
:1009E000089EDCED120100010203010011241FBE6C
:1009F000CFE5D8E0DEBFCDBF04B603FE24C08091B2
:100A00003E0790913F07A0914007B0914107873082
:100A1000904BA740B04BB9F410923E0710923F079D
:100A2000109240071092410714BE84B7877F84BF9D
:100A30000FB6F894A89581B5886181BD11BC0FBE31
:100A4000E0E0F8E3099527E0A6EEB0E001C01D92D2
:100A5000AE33B207E1F710E0A0E6B0E0EAE0F2E57D
:100A600002C005900D92A63EB107D9F70E949420CE
:100A70000C94DB280C940000A82FB92F80E090E0A4
:100A800041E050EA609530E009C02D9182279795AA
:100A9000879510F084279527305EC8F36F5FA8F321
:100AA0000895EADF8D939D930895CF93CFB7CF93A9
:100AB000DF93C395839BE9F7839B10C0839B0EC094
:100AC000839B0CC0839B0AC0839B08C0839B06C08A
:100AD000C0911807C395C09318078EC06F93C0913B
:100AE0001707DD27C45ED84F2F9365E5839B03C0AE
:100AF0002F916F91E1CF0F931F934F9320E040E12F
:100B00005F9300B30C7003FB27F93F9350E03BE089
:100B100039C01C7040642F77012F5F5F1EC0406892
:100B200010B31C702F7752501FC0406400B32F7752
:100B30000C70D1F15F5F00C023C0406210B32F770B
:100B40001C7091F15F5F00C025C00C7010275150E0
:100B500012F45D5F0000115027952C3F10B3C8F6CA
:100B60001C700127015027952C3FC8F64227499356
:100B700000B30C7010274F73115027952C3FA8F627
:100B80004695469510B31C7079F0012701502795C2
:100B90002C3F98F66B5A60F3315000B3B0F600C0AA
:100BA00010E81ABF00271CC03B503195C31BD04032
:100BB00010E81ABF0881033C21F10B3411F1209198
:100BC00015071981110F1213EDCF4A81441F093601
:100BD00079F10D3211F0013E29F74F7009F0042F21
:100BE00000931B073F915F914F911F910F912F91A0
:100BF0006F91CAB7C7FD5DCFDF91CF91CFBFCF91C6
:100C0000189520911B07222369F3109119071123CE
:100C100009F049C034300AF448C0309319072093D2
:100C20001607109117073BE0311B309317073DC0A3
:100C3000009119070130BCF50AE54F7049F4309175
:100C4000760034FD33C000937600C2EFD6E032C0A8
:100C5000433059F0443091F03091FD0634FD26C008
:100C60000093FD06CEEFD6E025C03091320734FD6B
:100C70001DC000933207C3E3D7E01CC030910907C1
:100C800034FD14C000930907CAE0D7E013C005275C
:100C900010E000C0000002BB1AC0052710E0221FB0
:100CA0001DC010E021C04AE502C032ED432FC4E16F
:100CB000D0E032E011B31C60939A02B311BB5CE048
:100CC00020E865E320FF052702BB279517951C3F09
:100CD000F0F66695B8F7B1F720FF052702BB279518
:100CE00017951C3FD0F62795179517FF052700008D
:100CF0001C3F02BBB0F629913A9519F7037F10917A
:100D00001A07110FC651D04002BB11F010931507FE
:100D100010E81ABF086011B3137F402F437F54E0DF
:100D20005A95F1F702BB11BB42BB5CCFCF93DF9367
:100D30004091F0065091F106405F52409A01205BCD
:100D40003E4F21303440C0F020E034E0241B350B0E
:100D50006091EE027091EF02FC01CA01240F351F71
:100D6000C1E0D0E08217930750F07093EF026093D8
:100D7000EE02DF91CF91089520E531E0E9CF449173
:100D8000DC01A051BD4F5C91451781F04C93AC0143
:100D9000A6E056954795AA95E1F7DE0102C0AA0F95
:100DA000BB1F4A95E2F7AD016A2B752B0196319670
:100DB000D9CFFC018381833089F130F48130F1F0A7
:100DC000823021F180E00895813209F450C08232EE
:100DD000C9F7248135812130310509F466C0211518
:100DE000310509F45AC02230310561F78EE998E0E7
:100DF0009093EA028093E90282E3089589ED99E0F5
:100E00009093EA028093E90282E108958EE799E0E7
:100E10009093EA028093E9028BE508958281813004
:100E2000B1F0882361F08230D1F0833059F682E34B
:100E300099E09093EA028093E9028CE108958AE7B1
:100E400099E09093EA028093E90284E0089588E6AD
:100E500099E09093EA028093E90280E1089580E5A9
:100E600099E09093EA028093E90286E108958281F5
:100E7000813081F0882331F0823009F0A3CF89ECF2
:100E800099E002C080E999E09093EA028093E90238
:100E900089E0089589EA99E0F7CF82EF98E090938E
:100EA000EA028093E90280E4089520ED38E030936F
:100EB000EA022093E9020895089508958091E402DA
:100EC000089588E198E00FB6F894A89581BD0FBE0B
:100ED00091BDA895F894D8E0CEE528E3299320E0C9
:100EE000299314BEFFCF08952FB7F89460912D0277
:100EF00070912E0280912F02909130022FBF0895A1
:100F000020912B0230912C022817390771F0909311
:100F10002C0280932B02E0912902F0912A02309753
:100F200021F00084F185E02D099408952091270295
:100F3000309128022817390771F090932802809386
:100F40002702E0912902F0912A02309721F00680D1
:100F5000F781E02D09940895E0912902F0912A0289
:100F6000309721F00190F081E02D099480E0089500
:100F7000809102029091030290937300809372001B
:100F8000089580E00895F894E82FE295EF70F0E07E
:100F900031A9282F2F7081E090E001C0880F2A9599
:100FA000EAF7982F9095932391AB92A9892B82AB66
:100FB000789408959091600192FF06C0282F2871BF
:100FC0002830F9F4877F846093FF06C0282F2871AA
:100FD0002831F1F4877E84612091610120FF06C0F1
:100FE000382F38713830D9F4877F816021FF06C0EF
:100FF000282F28712831D1F4877E816194FD877E66
:101000000895282F24712430F9F68B7F8860DCCF77
:10101000282F2471243101F78B7E8861DDCF382F92
:101020003171313019F78E7F8860E0CF282F217120
:10103000213121F78E7E8861E1CFCF93DF93EC01E0
:1010400082389105A9F1D8F58133910509F496C04C
:1010500048F58932910509F48AC08A9709F495C048
:10106000C11522E5D20708F0B6C0C11531E5D30796
:1010700008F026C1C83ED10508F09CC0C03ED1058D
:1010800060F5C83AD10508F087C0C53AD10508F027
:10109000EFC0C130D10509F12097F9F0C430D10576
:1010A000E0F440C08533910509F45AC0C997C1F6F0
:1010B00080916001837089F0C0EED0E00EC0833E65
:1010C000910599F170F4803E910501F1823E910500
:1010D00039F68091600182FD21C0CE01DF91CF9170
:1010E0000895863E910561F1873E910571F1843E38
:1010F000910509F0B5CF8091610181FFEECF80911C
:101100006001C7EED0E084FD0DC0E7CF80916001A3
:1011100080FD07C19091610190FFDFCFC3EED0E069
:1011200084FFDBCFD0E0C0E0D8CF8091600182FDAA
:10113000FBC09091610190FDBFCF84FFCECFF2CF75
:101140008091600183FDDDCFC8CF8091600183FD78
:10115000EEC09091610191FFF0CFC4EED0E0BDCF21
:101160008091600185FFB9CFC9E2D0E0B6CF809110
:10117000600185FFB2CFC5E3D0E0AFCF80916001C1
:1011800086FFABCFCAE2D0E0A8CF8091600186FF96
:10119000A4CFC1E3D0E0A1CFCF3BD10518F6C85A08
:1011A000D0E0CC0FDD1FCE57DF4F0990D881C02D86
:1011B000D46493CFC11540E5D40708F064C0C115CD
:1011C00080E4D80708F05CC0CE019A9581159F4154
:1011D00008F483CFA7CFC11536E5D30718F5C1159D
:1011E00045E5D40708F084C0C11584E5D80708F0A8
:1011F0007AC09C2F969596959E0123703327C11532
:10120000D34508F462C0C1E0D0E002C0CC0FDD1FBE
:101210002A95E2F730E2939FC0011124C82BD92B05
:10122000DA685BCFC1158AE5D80778F4C11599E56E
:10123000D90708F068C0C11528E5D20708F472CFB5
:10124000DC2FCC27C06FD06A48CFCE0190568115D5
:10125000904208F067CF8D2F8F710E94DA0790E0DF
:10126000982F882788279F719C012C2BE90149C062
:10127000C55AD0E0C158DF4FC881D0E0D0642DCF2F
:10128000DF70D06A2ACFCE01E4E096958795EA9583
:10129000E1F783702C2F26952695237040E2249F3A
:1012A00090011124382B8C2F8370C1E0D0E002C054
:1012B000CC0FDD1F8A95E2F7C22BD32BDC680DCF54
:1012C000DC2FCC27C16FD06A08CFC1E0D0E002C0CC
:1012D000CC0FDD1F2A95E2F720E2929FC001112476
:1012E000C82BD92BEBCFDC2FCC27C46FD06AF5CE1F
:1012F0008C2F0E94DA07C82FD0E0DC2FCC27CC2718
:10130000DF71D062EACE8C2F8F700E94DA0734E052
:10131000D695C7953A95E1F7CF709C2FEC01D0692F
:10132000DCCEC9E3D0E0D9CEC2EED0E0D6CEC6EE58
:10133000D0E0D3CE80915601882331F0109256012F
:101340001092550110925401089580959091DD01FD
:1013500098239093DD0108959091DD01892B80936E
:10136000DD01089510925201109251011092500126
:10137000089580914F01811110924F010895EAEE76
:10138000F0E09191891303C0DF0111971C9290E066
:10139000E03FF907B1F70895AAEEB0E0EFEF90E073
:1013A0002D91821751F0EF3F19F4211101C0E92F5F
:1013B0009F5F9630A9F7EF3F09F408950E2E000CB9
:1013C000FF0BE851FF4F8283089520914E019091C9
:1013D0001D0156E0291302C080E0089530E0529FBD
:1013E000F001539FF00D1124E25EFE4F71817613E0
:1013F00006C07081781303C07281741304C02F5F1C
:101400003F4F2770E7CF81E00895452B39F06823DF
:1014100081E06F3F09F080E08170089581E0FCCFAA
:1014200080914E0190911D01981301C008958F5F26
:101430008770FACF9E3F49F1E82F2FE0929FE00D91
:1014400011249E2F9770E695E695E69583E0E89F38
:10145000F0011124ED50FF4F50E040E080E0219179
:1014600030E0092E02C0369527950A94E2F72170E4
:101470003327042E01C0220F0A94EAF7822B4F5F14
:101480005F4F4330510559F7089580E008959E3F1E
:1014900069F1E82F2FE0929FE00D11248E2F8770C5
:1014A00041E001C0440F8A95EAF7E695E695E69596
:1014B00083E0E89FF0011124ED50FF4F30E020E081
:1014C00070E05191DF011197CB01022E02C0969579
:1014D00087950A94E2F78170819585278423852773
:1014E0008C932F5F3F4F2330310559F70895E92F33
:1014F000E295EF70E250EE3070F4F0E0E352F74D19
:101500000C946728803F19F020F4883E20F481E095
:101510000895843FE1F380E00895883EC0F3813F61
:10152000D1F7F5CF93FB882780F9089581FF02C09A
:10153000D89A0895D89808959C013A9521153F416D
:1015400050F5FC01EE27F170BC0166277270AC010A
:10155000442754709C012227387094FF0EC080E10C
:10156000EF2B09F480E0672B09F08062452B09F02E
:101570008064232B89F08068089581E0EF2B09F4C3
:1015800080E0672B09F08260452B09F08460232BF3
:1015900019F08860089580E00895CF92DF92EF926D
:1015A000FF920F931F93CF93DF936C017B0164E64F
:1015B00070E088E70E944E27EC0197FD12C010E012
:1015C00000E0F601E00FF11F849164E670E00E94F4
:1015D000BF27EC01892B29F40F5F1F4F0E151F0544
:1015E00081F70E943C28CE01DF91CF911F910F918E
:1015F000FF90EF90DF90CF9008958091DB01909164
:10160000DC01911103C091E089270895882369F0D6
:1016100062E070E08CE998E00E94CD0A892B19F015
:101620008091DB0108951092DB018091DB01EBCF0B
:10163000CF93C091DB018091DC018823D1F00E941F
:101640007407605A75418F4F9F4F6093D701709315
:10165000D8018093D9019093DA01C11108C062E0EA
:1016600070E08AE998E00E94CD0A892B29F0C091A8
:10167000DB018C2FCF91089581E08093DB01F7CFC0
:10168000019708F40895EFE9FFE03197F1F700C002
:101690000000F6CFCF93DF9380911907835087FD29
:1016A00014C090911707CCE0D0E0C91BD109C45EEB
:1016B000D84F90911607903108F06BC0883009F42C
:1016C00053C01092D902109219078091760084FFBE
:1016D0003EC0809175008F3FD1F1C82F893008F04E
:1016E000C8E0982F9C1B909375009091F20628E813
:1016F00092279093F2068823E9F08091E902909175
:10170000EA022091E80226FF06C1FC012C2FA3EF7C
:10171000B6E034913D9331962150D9F79C012F5F6B
:101720003F4F8FEF8C0F820F932F911D9093EA0202
:101730008093E9026C2F83EF96E00E945105CC5F05
:10174000CC3019F08FEF80937500C093760084E160
:1017500090B39C7031F48150D9F710921A0710920F
:101760001507DF91CF9108958091D902893108F052
:10177000A8CFE82FF0E0E754FD4F9E01285F3F4FD0
:10178000999191932C173D07D9F7885F8093D902DF
:101790009ACF9D3209F0A3C0883009F094CF83EC32
:1017A0008093F2068AE5809376001092E8028881A1
:1017B000807609F447C0803229F58981813099F417
:1017C0008C819D81892BF1F48BED92E09093EA025C
:1017D0008093E90288E09F81911131C09E81981722
:1017E00070F5892F2CC0823041F48AED92E09093FD
:1017F000EA028093E90281E0EECF8A3029F48B81FE
:101800008093DA0280E0E7CF8930E1F78A819B811B
:101810008115924069F48C819D81892B49F481E086
:101820008093E7028E819F819093E6028093E50288
:10183000888187FF52C08E8190E89093E802809360
:10184000750041CF2A811092FB06998191110AC03F
:101850001092FC062BEF36E082E03093EA022093F0
:10186000E902B9CF953029F420931A072BEF36E01F
:10187000F4CF9630C1F49B81913049F4CE010E949F
:10188000D90690E49093E8028F3F91F2A4CF923072
:10189000A9F3933099F3913289F3923279F390E47A
:1018A0009093E80298CF983089F0993019F42093FA
:1018B000E302DCCF9A3071F09B30C1F69BE4909349
:1018C000FE069093330790930A07D0CF23EE32E0C1
:1018D00081E0C3CF2BEF36E0FBCF8FEFADCF809110
:1018E000E80287FFF0CE8091E5029091E602892B15
:1018F00071F08091E702813051F488818093E40295
:101900001092E6021092E50210927500DCCE8EE194
:1019100080937600D8CEDC012C2FE3EFF6E03D91EA
:1019200031932150E1F7FACE1F93CF93DF93E82F45
:10193000792F162FEA01888184FF1CC0298188E84D
:1019400028272983CE010296DC012E2F372F512F15
:101950005E0FF90121912D939F01452F4E1B141607
:10196000C4F3612F0E9451051C5F1883DF91CF9152
:101970001F9108958AE58883E5CF9091B802981366
:1019800007C02091B6023091B70226173707B9F089
:101990008093B8027093B7026093B6028093B3024B
:1019A0007093B5026093B4028091320784FF07C040
:1019B00042E357E063E083EB92E00C94940C0895CB
:1019C000BC0184E00C94BD0CBC0183E00C94BD0C04
:1019D000CF93DF93CAE0D0E08091FD0684FF1CC066
:1019E0008091B1029091B202981799F028E0829FFD
:1019F000C00111244DEF56E068E08F5C9D4F0E94BE
:101A0000940C8091B10290E001968F709927809399
:101A1000B102DF91CF9108950E944A0B8FE99FE0B8
:101A20000197F1F700C000002197B1F6F2CFCF93F4
:101A3000DF93EC01A091B202B0E0CD0101968F706E
:101A400099272091B102281779F093E0AA0FBB1FC4
:101A50009A95E1F7AF5CBD4F98E0FE0101900D92C1
:101A60009A95E1F78093B2020E944A0B0E94E80C1B
:101A700088E0FE01ABEDB2E001900D928A95E1F7AE
:101A8000DF91CF9108950F931F93CF93DF9302E0DF
:101A900012E0C7E9D1E0CE010E949A28F8018193B3
:101AA0008F012196C93BF1E0DF07A9F7C0E5D8E037
:101AB000FE0185919491009711F0FC0109952896FB
:101AC000F8E0C03ADF07A1F7DF91CF911F910F91A6
:101AD00008950F931F93CF93DF93823000F5611128
:101AE0001EC024E0829F8001112450E0440F551F46
:101AF000040F151F01571E4FC8010E949A28C82FB6
:101B0000D0E0DC2FCC27C80101960E949A289E01C4
:101B1000282BC901DF91CF911F910F91089590E07B
:101B200080E0F8CF0F931F93CF93DF93823030F58F
:101B3000663020F54F3010F5C42FD0E0CC0FDD1FFC
:101B40002EE1629FC00DD11D112434EB839FC00D87
:101B5000D11D1124CE0187960E949A28082F10E0EB
:101B6000102F0027CE0188960E949A289801282BD2
:101B7000C901DF91CF911F910F91089590E080E00E
:101B8000F8CF462F2091D5013091D601232B91F427
:101B90007E3F39F46E3F71F48091D3019091D4016E
:101BA0000895823038F4763028F46F3018F4672FB7
:101BB0000C94920D90E080E00895CF92DF92FF9216
:101BC0000F931F93CF93DF936C010091ED028091EF
:101BD000EB02082BC7E0D0E010E0FC2EC8010C2E71
:101BE00002C0959587950A94E2F780FD0CC0219775
:101BF000A0F7F12C8F2DDF91CF911F910F91FF90C6
:101C0000DF90CF900895B6018C2F0E94C10D0E94E5
:101C10001D08019761F3EECFCF93DF93EC010E9493
:101C2000DD0DBE010E94C10DDF91CF910C941D0806
:101C3000FC01808191810E940C0E0C94770A1F9305
:101C4000CF93DF9300D000D00F92CDB7DEB749839A
:101C50005A8389819A816623B9F02223A9F00E94D0
:101C6000DD0D182F682F89819A810E94470A6981AA
:101C70007A81812F0F900F900F900F900F90DF912E
:101C8000CF911F910C94C10D0E941A0A182FEFCF0B
:101C9000FC01262F408151816281738184810C94E3
:101CA0001F0E83E290E00E949A28813B89F484E22F
:101CB00090E00E949A28893359F485E290E00E94CE
:101CC0009A2891E0863409F090E0892F8170089578
:101CD00080E0FCCFCF9384E090E00E949A28C82F48
:101CE00082E290E00E949A28982F8C2FCF9108953D
:101CF0000F931F93CF93DF9302E012E0C7E9D1E087
:101D0000CE010E949A28F80161918F01681719F09D
:101D1000CE010E94A8282196C93BF1E0DF0781F798
:101D2000DF91CF911F910F910895E2E0F2E0128EC2
:101D3000138E8FEA90E09183808385E0848F88E81A
:101D400093E19383828382E390E0978B868B88EC88
:101D500090E0918F808F158E8AE090E0978F868F2C
:101D600080E590E091A380A30E94780E0C94430D2F
:101D7000CF93DF93C9EBD1E060E0CE010E94A828A9
:101D80002196C11584E0D807B9F7DF91CF91089566
:101D90000F931F93CF93DF938901823028F5611150
:101DA00023C0423008F521153C4531F420917000E4
:101DB00030917100232BC1F094E0899FE001112440
:101DC00050E0440F551FC40FD51FC157DE4F612F80
:101DD000CE010E94A828602FCE010196DF91CF91FD
:101DE0001F910F910C94A828DF91CF911F910F9113
:101DF00008950F931F93CF93DF938901823048F5A5
:101E0000663038F54F3028F521153C4531F42091E6
:101E1000700030917100232BE1F0C42FD0E0CC0F83
:101E2000DD1F9EE1699FC00DD11D112494EB899F98
:101E3000C00DD11D1124612FCE0187960E94A828C4
:101E4000602FCE018896DF91CF911F910F910C9456
:101E5000A828DF91CF911F910F910895CF92DF9223
:101E6000EF92FF920F931F93CF93DF930091700037
:101E70001091710081E090E0909371008093700068
:101E800092EEE92E96E0F92EC0E06701D0E0F6016F
:101E9000259134914D2F6C2F80E00E94F90E82E045
:101EA000C80ED11CDF5FDF3091F78EE1E80EF11C28
:101EB000CF5FC63051F7EAEDF6E02591349140E06E
:101EC00060E080E00E94C80EECEDF6E025913491D0
:101ED00041E060E080E00E94C80E86E9C82E87E0FD
:101EE000D82ED0E07601C0E0F701259134914C2F37
:101EF0006D2F81E00E94F90E82E0E80EF11CCF5FA9
:101F0000CF3091F78EE1C80ED11CDF5FD63051F78C
:101F1000EEEDF6E02591349140E060E081E00E9432
:101F2000C80EE0EEF6E02591349141E060E081E0FA
:101F30000E94C80E0E94950E1093710000937000CD
:101F4000DF91CF911F910F91FF90EF90DF90CF9095
:101F50000895CF93C82F6FEF811161EB83E290E07A
:101F60000E94A8286FEFC11169E384E290E00E940B
:101F7000A8286FEFC11166E485E290E0CF910C9440
:101F8000A82880E00E94A90F60E086E290E00E940D
:101F9000A8280E942E0F0E94B80E81E00C94A90F71
:101FA0006AEE7EEF90E080E00E94C52860E082E06B
:101FB00090E00E94A82860E083E090E00E94A828BA
:101FC0001092EB0260E084E090E00E94A82860E0BC
:101FD00082E290E00E94A82860E085E090E00E9404
:101FE000A82860E086E090E00E94A8286FEF87E0D4
:101FF00090E00E94A82840E050E0BA0188E090E01C
:102000000E94B92860E08DE090E00E94A82840E09E
:1020100050E0BA0188E190E00E94B92860E087E1D1
:1020200090E00E94A82840E050E0BA018CE190E0E6
:102030000E94B92870E060E080E290E00E94C5282C
:1020400040E050E0BA0188E190E00E94B92880E0C9
:102050000E94A90F0E94C10F40E050E0BA018FE03A
:1020600090E00E94B92840E050E0BA0183E190E09E
:102070000C94B92878941F921FB61F9211248F9345
:102080009F93AF93BF9380912D0290912E02A091C8
:102090002F02B09130020196A11DB11D80932D0237
:1020A00090932E02A0932F02B0933002BF91AF9174
:1020B0009F918F911F901FBE1F9018959C014FB745
:1020C000F89480912D0290912E02A0912F02B09150
:1020D00030024FBF821B930B08952FB7F894809165
:1020E0002D0290912E02A0912F02B09130022FBFAD
:1020F0000895CF93C82F8091610182FD0CC080911B
:1021000056018C1741F00E946D10909355018093F9
:102110005401C0935601CF9108958091040290918B
:102120000502892B89F00E946D1020915401309195
:102130005501AC01421B530B81E020910402309108
:1021400005024217530708F480E0817008958091DA
:10215000DD019091EC02892B90915301892B8093A2
:10216000E80080915601882309F180910402909142
:102170000502892B29F00E948D1081110E949A0975
:102180008091E80090915601892B8093E80020E02F
:102190008AEE90E0FC013191CF0131112F5FF0E028
:1021A000803F9F07B9F721110E949A09E091290207
:1021B000F0912A02309731F00280F381E02D88EE11
:1021C00090E00994089580917400877F8093740053
:1021D0009091EC029D7F9093EC0284FF06C08F7E6D
:1021E0008093740082E00E94AC098091740085FFA6
:1021F00006C08F7D8093740080E20E94AC090C942D
:10220000A71090E080E00E94960790E080E00E9496
:1022100080071092EC02109253010C94A710809347
:10222000ED020C9401118091ED02982F967096307A
:1022300019F488600C940F11877FFCCF21E030E007
:1022400001C0220F8A95EAF720958091ED02822342
:102250000C940F1190915201809589238093520123
:10226000282F277091F4282F082E000C330B92177B
:10227000130659F09091610192FD07C085958595EF
:1022800085950E941E110C94B2090895CF93C091B8
:102290006101C2FB992790F9981799F080FBC2F968
:1022A000C09361016091600184E090E00E94A828E1
:1022B0006C2F82E290E00E94A82882E0CF910C94DB
:1022C0002A11CF91089521E030E001C0220F8A95B4
:1022D000EAF78091ED02822B0C940F11909161012D
:1022E00092FD10C098E0899F90011124622B6093A9
:1022F00052010E9463110E946D10909351018093CE
:10230000500108950C9463118093EB020C94011119
:102310001092DD01EAEEF0E086E0DF011D928A9581
:10232000E9F70C940111882341F080959091EC021B
:1023300089238093EC020C94A7100895882339F028
:102340009091EC02982B9093EC020C94A7100895B6
:10235000882321F00E94A5090C94A71008958823D2
:1023600021F00E94AC090C94A7100895882309F469
:102370004BC0823871F40E94AC0781FF45C089E3ED
:102380000E94CC090E94A71089E30E94BF090C9407
:10239000A710833859F40E94AC0780FF35C083E54D
:1023A0000E94CC090E94A71083E5EFCF843859F42E
:1023B0000E94AC0782FF28C087E40E94CC090E94DB
:1023C000A71087E4E2CF9CEF980F913AF0F290E2E9
:1023D000980F983050F4877091E001C0990F8A955A
:1023E000EAF7892F0E94A509D2CF9BE5980F933079
:1023F00020F490E080E00C949607885A873120F40E
:1024000090E080E00C9480070895CF93DF93EC0177
:102410000E94B611CE010E949C0A9E01205E3109E5
:102420002830310510F0CD2B21F4DF91CF910C94A1
:10243000A811DF91CF910C949311CF93C82F8823CB
:1024400009F484C08238C1F40E94AC0781FD7EC0CB
:1024500089E30E94CC090E94A7102FEF81EE94E03F
:10246000215080409040E1F700C0000089E30E94C5
:10247000BF09CF910C94A7108338A1F40E94AC0738
:1024800080FD64C083E50E94CC090E94A7102FEF55
:1024900081EE94E0215080409040E1F700C00000C0
:1024A00083E5E5CF8438A1F40E94AC0782FD4EC0DD
:1024B00087E40E94CC090E94A7102FEF81EE94E0E0
:1024C000215080409040E1F700C0000087E4CFCF6A
:1024D0008CEF8C0F813A68F4EAEEF0E08191C81736
:1024E00079F120E0E03FF207C9F78C2F0E94CC0978
:1024F000C0CF80E28C0F883048F4C77081E001C003
:10250000880FCA95EAF70E94AC09B3CFEBE5EC0F50
:10251000E33040F4F0E0E158FF4F808190E0CF914C
:102520000C949607C85AC73188F4EC2FF0E0EE0FF0
:10253000FF1FEE57FF4F80819181CF910C94800750
:102540008C2F0E94BF090E94A710CFCFCF91089572
:102550001F93CF93DF93182FC0912202D0912302B3
:10256000893321F0C0912002D0912102812F0E9455
:102570001D12209731F4812FDF91CF911F910C9480
:10258000B6118FE99FE00197F1F700C00000219795
:10259000F0CF0F931F93CF93DF93C42FD22FFC0163
:1025A00082818823A1F0409326020E946D109093AF
:1025B000250280932402C77081E001C0880FCA956C
:1025C000EAF7DF91CF911F910F910C94AF11109109
:1025D0002602141339C080912402909125020E9492
:1025E0005E1020911A0230911B028217930760F54A
:1025F000C0E2CD0F1D17B9F080E2810F883040F4A2
:10260000177081E001C0880F1A95EAF70E94A8119F
:10261000C83048F481E09D2F977001C0880F9A95CB
:10262000EAF70E94AF11802F0E94A812C83098F4D8
:10263000D77081E001C0880FDA95EAF7DF91CF917A
:102640001F910F910C94A811C77081E001C0880FF1
:10265000CA95EAF7F3CFDF91CF911F910F910895BB
:10266000AF92BF92CF92DF92EF92FF920F931F93A0
:10267000CF93DF93EC018AE0A82E2881222309F46E
:102680008CC02130C9F599818A81913021F422963C
:102690000E94A81205C0923029F422960E941D12B1
:1026A0002196EBCF933021F422960E94B611F8CFF9
:1026B000943011F02196F4CF229630E020E0AE0164
:1026C0004F5F5F4F8053990B8A30910550F0215036
:1026D000310930F38FE99FE00197F1F700C0000066
:1026E000F6CFA29EB001A39E700D11249C01260F6F
:1026F000371F8981EA01E3CFE22FF0E0EC57FF4F6B
:10270000B490822F86958695869590E0FC01EC58D2
:10271000FF4FE4902770F12C022E02C0F594E7944D
:102720000A94E2F731E0E322FF24FC01EC59FF4F69
:10273000C490D12C022E02C0D594C7940A94E2F71B
:1027400031E0C322DD24FC01EC5AFF4F049110E07C
:1027500002C0159507952A95E2F701701127E1143B
:10276000F10419F081EE0E941D12C114D10419F078
:1027700086EE0E941D128B2D0E94A812CD2819F002
:1027800086EE0E94B611EF2819F081EE0E94B61174
:10279000012B09F485CF8CE27BCFDF91CF911F9184
:1027A0000F91FF90EF90DF90CF90BF90AF90089582
:1027B000CF93DF93EC010E949C0A9E01205E3109B9
:1027C0002830310510F0209739F40E94AF118C2F7A
:1027D000DF91CF910C941D120E949E11F8CF6623B9
:1027E00029F02091EC0222602093EC029C013056EB
:1027F000211540E2340720F0305E2115304108F405
:1028000099270C94D813DF92EF92FF920F931F93A6
:10281000CF93DF937C018B01D42E8091740082FFD3
:102820008CC0C0910002D0910102CE15DF0521F0CD
:10283000E114F10409F081C0809174008B7F8093D2
:10284000740081FD73C08091FE019091FF01A80189
:10285000481B590B81E020917200309173004217A0
:10286000530708F480E08170F82E80917400F0FA2C
:1028700081F980937400FE0183E0F695E7958A95CF
:10288000E1F7EE71FF27E252FE4F20813181AE0168
:102890004F70552781E090E002C0880F991F4A953C
:1028A000E2F7FF2009F444C0822B932B91838083AD
:1028B0008091DD0181FF08C0809174008061809368
:1028C000740082E00E94A5098091DD0185FF08C0A7
:1028D0008091740080628093740080E20E94A50958
:1028E0006F2DCE010E94EF13DD2031F080911D028B
:1028F00085FF02C086FF3BC080912002909121029B
:102900000E94400B80910002909101029C01305680
:10291000211540E2340720F0305E2115304108F4E3
:1029200099270E9405120E94E3101DC081E09BCFF1
:102930008095909582239323B9CFC701992797015A
:102940003056211540E2340728F0305E2115304121
:1029500008F0C7010E9405128091000290910102C7
:102960008E159F0501F31093FF010093FE01DF9187
:10297000CF911F910F91FF90EF90DF9008954F92AC
:102980005F926F927F928F929F92AF92BF92CF92FF
:10299000DF92EF92FF920F931F93CF93DF93CDB708
:1029A000DEB72C970FB6F894DEBF0FBECDBF8E01F9
:1029B0000F5F1F4F8CE0F80111928A95E9F790EBB9
:1029C000E92E90E0F92E680126EB422E20E0522EEF
:1029D00066246394712C45EC842E40E0942EF7011C
:1029E00081917F018F3F09F445C0F894E82FE2956B
:1029F000EF70F0E021A98F70A30102C0440F551FB2
:102A00008A95E2F7CA01922F982B91AB92A98095F3
:102A1000892382AB789400C0E6EBF0E021E030E05F
:102A2000B12CA12C41914F3F09F486C0A42FA2954F
:102A3000AF70B0E0D0968C9190E04F7002C0959549
:102A400087954A95E2F780FD77C0C901A82AB92A7F
:102A5000220F331F8E169F0629F7F70131978081C9
:102A60008F3F11F00E94C30750EA5A95F1F7F60123
:102A7000B182A082F2E0CF0ED11C4E145F0409F0A7
:102A8000AECF4CE050E0B80182E691E00E947D2894
:102A9000FF24F394009709F4F12C892B09F44FC01B
:102AA0008CE0F801A2E6B1E001900D928A95E1F781
:102AB00081E0809359010E946D109093580180939A
:102AC000570180915701909158010E945E1005971F
:102AD000D0F180916201909163019093C501809340
:102AE000C40180916401909165019093C701809326
:102AF000C60180916601909167019093C90180930E
:102B0000C80180916801909169019093CB018093F5
:102B1000CA0180916A0190916B019093CD018093DD
:102B2000CC0180916C0190916D019093CF018093C5
:102B3000CE011092590107C090E080E087CF8091CC
:102B400059018111BECF80911D0280FF1EC080916E
:102B5000740082FF1AC00E946D102091FE01309116
:102B6000FF01AC01421B530B2091720030917300A6
:102B70004217530750F02AE531E041E0BC01809153
:102B80000002909101020E9403148F2D2C960FB623
:102B9000F894DEBF0FBECDBFDF91CF911F910F9193
:102BA000FF90EF90DF90CF90BF90AF909F908F906D
:102BB0007F906F905F904F9008958F929F92AF9209
:102BC000BF92CF92DF92EF92FF920F931F93CF931A
:102BD000DF9300D000D0CDB7DEB77C01FC0143818C
:102BE0005481618180810E94050A81112AC061E0BF
:102BF000C7010E94480E8C01F7018281882309F4E5
:102C000074C6C80182519F45409708F009C68FEFEE
:102C100093E00E949A285EEED52ED00E09EB11E0CB
:102C2000882361F180915201877059F0F701828108
:102C3000882339F08091610182FD03C082E00E9407
:102C40002A110F900F900F900F90DF91CF911F914D
:102C50000F91FF90EF90DF90CF90BF90AF909F903B
:102C60008F9008950115F4E01F07E1F2C8010E945A
:102C70009A28811101C0DA940F5F1F4FD110F2CF53
:102C800019821A821B821C82CC24CA9448012FEF1D
:102C9000821A920AC8010E949A2889831A8288237C
:102CA00009F4C0CF813009F048C0580132E0A30ECA
:102CB000B11CC4010E949A28982E8A83882309F4A3
:102CC000B1CFC5010E949A28D82E8FEF890D83308D
:102CD00068F4580143E0A40EB11CDB82DD2021F032
:102CE000CE0101960E9430138501D0CF54E0951299
:102CF000FBCF580184E0A80EB11CC80103960E94C6
:102D00009A28DD2009F48ECF882309F48BCF8150D7
:102D1000990BC89E9001C99E300D1124ED2DE150F4
:102D2000FF0BCF01820F931F0197F0F2EFE9FFE055
:102D30003197F1F700C00000F7CFCE0101960E9455
:102D400030135401D1CF81E00E9463110E9413110E
:102D500069CF81E00E941E11F9CF82E0F5CF80910A
:102D6000740081608093740092C5809174008E7F9E
:102D7000809374000E94E3108AC5809174008F7E56
:102D8000013E110531F0053E1105C1F4809174003A
:102D90008F7D809374008091740080FF87C5F70158
:102DA00082810832110528F50E31110508F074C032
:102DB0000430110580F5811175C578C5C80190569C
:102DC0008115E0E29E0720F0905E8115904118F792
:102DD0008091740082FF6AC580911F0281FD66C5E3
:102DE0002AE531E040E0B60190E080E00E94031463
:102DF0005DC50933110558F40D32110518F40B3275
:102E00001105C9F690911D0292FDD5CF08C0043678
:102E10001105C1F3D0CF90911D0294FDCCCF882332
:102E200009F4A1C09091DD0180915601282F292B32
:102E3000322F3D7FB1F110920102109200023091C9
:102E40001D0231FD2EC0F80143E0F695E7954A9545
:102E5000E1F7EE71FF27E252FE4F98012F70332702
:102E600081E090E002C0880F991F2A95E2F78095D3
:102E7000909520813181822393239183808360E028
:102E8000C8010E94EF13809156018D7F0E94791036
:102E900082E00E942A11C6CE90911D0293FD8BCF35
:102EA000BECF36E0F701AAE5B1E001900D923A9568
:102EB000E1F710925C0110925E0110925D01A0900A
:102EC0000002B09001020A151B05B1F530911D02F8
:102ED00035FF32C04091740041FB992490F841FFC6
:102EE00002C036FF29C04091FE015091FF01B6019A
:102EF000641B750B40911A0250911B0264177507F1
:102F0000D8F491FF08C080917400806180937400B0
:102F100082E00E94A5098091DD0185FF08C08091B3
:102F2000740080628093740080E20E94A509692D7C
:102F3000C5010E94EF1376CE9091740021FB91F9A8
:102F4000909374008D7F0E9479101093010200937A
:102F50000002D092FF01C092FE0180917400846053
:102F60008093740095CF970140E0B601C8010E949C
:102F7000031458CE053F8CE5180709F466C008F421
:102F80005EC0063FECE51E0709F465C0F70132811B
:102F9000332309F4B6C4109226020330FDE51F075F
:102FA00008F065C00A3F2CE5120730F4C8018250D2
:102FB0009C45449708F060C00E946A0E909361019E
:102FC0008093600100315CE5150709F46CC108F0DD
:102FD000E8C008309CE5190709F457C108F0B7C0EC
:102FE0000430FCE51F0709F43EC108F0A2C002301E
:102FF0003CE5130709F431C1809160018260033020
:103000001C4509F42DC1609160011091610184E0BB
:1030100090E00E94A828612F82E290E00E94A828F8
:103020000E948811FFCD07E225EE45EE68ED7CE5B4
:1030300058C406E221EE40EE63EF7CE552C407E29D
:1030400025EE44EE64EF7CE54CC406E221EE42EE50
:1030500065EF7CE546C407E225EE46EE66EF7CE5CB
:1030600040C408E221E045EE69ED7CE53AC4013652
:103070004DE5140709F4A0CF06318CE5180709F4D3
:1030800044C40A355DE5150709F45FC108F03AC18B
:1030900001159CE5190709F447C10E3D1C4509F4CB
:1030A00051C1F701828100811181882309F451C146
:1030B000C8010E94DD0DD82E682FC8010E94470A62
:1030C000B8018D2D0E94C10D0E941D088C01882E13
:1030D000F701C280D580D2943FE0D3228091520183
:1030E0008770C1F0AC2CCC20B1F0812F807F803470
:1030F00021F080E2800F883068F08091610182FDCC
:1031000009C082E00E942A11809152018770AA248E
:10311000A3948111A12C912E92942FE09222FBE096
:10312000F91508F48EC1E92DF0E0E551F74D0C9446
:10313000672880916001806106305CE5150709F41D
:103140008FC008F494C080916001806289C0809132
:1031500060018D7F0C309CE5190709F481C070F483
:10316000809160018C600A30FCE51F0709F478C08B
:1031700008F48FC0809160018E7F72C080916001E1
:10318000877F0E303CE5130709F46AC08091600127
:103190008B7F0F301C4508F463C0809160018F7EE7
:1031A0005FC00C3F5CE5150709F479C068F5043190
:1031B0009CE5190709F48BC080F40231FCE51F0778
:1031C00009F475C0809160018F7B03311C4508F4C0
:1031D00047C080916001837F43C00A3F3CE51307ED
:1031E00009F449C008F04DC005311C4509F00BCF6A
:1031F0008091600182FB992790F921E0922790FB52
:1032000082F990FB83F92CC001158DE5180709F4AC
:1032100054C088F48091610183600E3FECE51E0785
:1032200069F1809161018D7F0F3F1C4538F18091DC
:1032300061018C7F23C002302DE5120709F456C0CE
:1032400008F44EC001361D4509F0DDCE90916001B5
:10325000892F8F7E94FF806103C08091600181601F
:1032600080936001D0CE809160018460F9CF80911D
:1032700060018860F5CF8091610181608093610178
:10328000C2CE809161018260F9CF8091600180643B
:10329000E7CF0E948811809160018068E1CF809122
:1032A00061018E7FEBCF809160018F7DD9CF0E942D
:1032B0008811809160018F77D3CF80916101982F21
:1032C000909591708E7F892B90FB81F9D7CF0E94CA
:1032D000881190916001892F97FB87F98058C0CFA2
:1032E00061E08EE090E00E94A8288DCE60E0F9CFEA
:1032F0008091F000811104C089E20E94BF0930C3AF
:1033000085E3FBCF0B35FDE51F0709F10C351D45A6
:1033100009F0C7CE8091610182FB882780F991E096
:1033200089270E944611BDCE0E9488113FEF44E3D9
:103330005CE0315040405040E1F700C000000E9486
:10334000610770CC0E94D00F6DCC81E0EACF80E0A5
:10335000E8CFC8010E941A0AD82EB2CE212F2F70B2
:10336000B22E812F807F19F0B29490EFB922CC2039
:10337000A9F0BB2059F080E2800F883010F0811056
:1033800007C08B2D0E94AC090E94A710802F57C048
:103390008091EC02B82AB092EC02F6CF802F0E9406
:1033A000B611BB2009F44DC080E2800F883010F0C8
:1033B000811004C08B2D0E94A50906C0B094809195
:1033C000EC02B822B092EC020E94A7103AC0312F52
:1033D0003F70B32E812F807F803219F0B29480EF3E
:1033E000B8228820F1F041E0841609F49DC0CC2079
:1033F00009F4A6C0DD2009F476C020E0F701408181
:1034000051816281738184810E941F0E80911F020D
:1034100081FDBCCFF701858180FFB8CF8F70858398
:1034200062C08091610182FF40C0CC20C1F1BB200D
:1034300029F08B2D0E94AC090E94A71080E00E9409
:103440001D12E92DE850FF0B349720F40E94AC07C1
:103450000E94960AC8010E94770A8111C2C1109287
:10346000F2001092F100AA20A9F08091520180FD93
:1034700011C0F70112828595859585950E9463118B
:10348000C7010E94DD15809152018595859585952E
:103490000E941E1160E0C7010E94480ED2CB80E05E
:1034A0000E94B611BB2069F285CFCC2001F1D1106A
:1034B00004C0809156018B2917C051E0D51206C077
:1034C000809156018B290E947910BBCF80911E02FA
:1034D000823078F3D812EDCF0E949A0980914F0183
:1034E000B812B0924F018B2D0E94AF11AACFD1100C
:1034F00006C00E949A098B2D0E94A811A2CF80912C
:103500001E0291E0D9120BC0823008F49ACF80914C
:10351000DD018B2109F495CF0E94B909EACF8230F1
:1035200040F38D11E6CF8DCFCC2029F0E5E0ED15ED
:1035300008F487CFD8CFF4E0FD1508F482CFDBCFB5
:10354000DD20C9F2F9E38F1244C1809122029091EB
:1035500023020E94400B802F0E94B61172CF812F50
:1035600086958695837061F0813009F06ACFC80135
:103570009370C11002C090E080E00E94800761CF8C
:10358000C8019370C11002C090E080E00E949607CD
:1035900058CF812F837091F5C11053CF402F4295A2
:1035A00046954770440F440F802F8F70042E01C042
:1035B000880F0A94EAF7202F207104FF07C02FE03C
:1035C00030E001C0220F4A95EAF72095312F369559
:1035D00036953370323069F050F44091EB0231305F
:1035E00029F0822B84230E9484112BCF842B822BE1
:1035F000FACF282B8091EB028227F5CF8695CC203D
:1036000011F0812F8170882309F41BCF402F429540
:1036100046954770440F440F802F8F70042E01C0D1
:10362000880F0A94EAF7202F207104FF07C02FE0CB
:1036300030E001C0220F4A95EAF72095312F3695E8
:1036400036953370323069F050F44091ED023130EC
:1036500029F0822B84230E940F11F3CE842B822B1E
:10366000FACF282B8091ED028227F5CF212F2F70E2
:10367000B22ECC2029F0822F0E946311802F34CFEC
:10368000802F0E94A8118B2D0E941E11DACE802F50
:1036900032EF8316B1F1381570F040EF8416D1F097
:1036A00051EF851691F0CC2009F48EC0D1106ECE6A
:1036B000812F8F712AC093EF891651F1E4EF8E129A
:1036C000F2CF8091610182FF2FC0812F8F71CC20BA
:1036D000D9F21BC0CC2081F0F4E0FD1508F4B1CE86
:1036E000212F2F7181E090E001C0880F2A95EAF721
:1036F0009091ED028927AFCF25E02D1508F4A1CEDA
:10370000EFCF812F8F71C110BFCF0E94631199CE6F
:1037100080E0CC2009F49FCF81E0912F9F7101C000
:10372000880F9A95EAF797CF80911E028230A0F118
:1037300080914F01CC20F1F00E94A50980915201A7
:103740008770843041F40E94B209812F8F710E94EA
:103750001E11A12C76CE80911E02D816D0F7312FE3
:103760003F71B32E832F0E94631163E08B2D0E9463
:103770006E11EFCF0E94AC0980911E02D81640F066
:103780000E94B2090E94B90964E0812F8F71EFCFC6
:1037900081E00E942A11DDCFCC2059F0412F4F71DA
:1037A000B42E842F0E94631163E08B2D0E946E1152
:1037B00048CE81E00E942A1151E05D1508F041CE0B
:1037C00082E00E942A113DCEDD2041F0893309F4C8
:1037D000BCCE8091200290912102BBCE812F8F71AF
:1037E00053CFCC2019F0D1103ACE3DCED11037CEE8
:1037F00020E0F701408151816281738184810E94C0
:103800001F0E80911F0283FF2ACE8091F1009091BC
:10381000F200029709F023CE802F0E94A8121FCE3B
:103820000031FFE51F0709F48ECA01312FE51207A9
:1038300009F493CA80911D0280FF38C00E946D1068
:103840006C01F7018281882309F497CA8091740082
:1038500082FF08C02AE531E040E0B60190E080E058
:103860000E9403140B31FCE51F0709F478CA0C31E0
:103870002CE5120709F479CA90917400892F8E7F84
:1038800090FF81600A313CE5130709F471CAC80151
:103890009056811540E2940728F0905E8115904182
:1038A00008F079CA1092010210920002033FFCE571
:1038B0001F0709F4BECB08F05DCB083D3CE51307BC
:1038C00009F4B1CB093D4CE5140709F4CACB073D17
:1038D0005CE5150709F05ACB06E221EE41EE67EDF3
:1038E0007CE5C7010E94C9129DC900313FE513075D
:1038F00009F42FCA01314FE5140709F09BCF82E08C
:1039000029CA06311C4509F0CCCB8091DD01982FE6
:103910009A7A20911C0220FF04C0482F447409F0B9
:1039200090E021FF04C0482F417109F090E022FF90
:1039300004C0482F487809F090E023FF03C082724A
:1039400009F090E0332309F4D3CC81E0911101C058
:1039500080E08093F00089E2911185E30E94CC0918
:103960000E94A7105FC9BF92CF92DF92EF92FF92A1
:103970000F931F93CF93DF9380911C01807F61F49D
:1039800080911901882341F0C0914E0186E0B82E44
:1039900080911D018C130AC0DF91CF911F910F916F
:1039A000FF90EF90DF90CF90BF900895F0901701B7
:1039B000E0901801C0901A01D0901B01A6016E2D55
:1039C0008F2D0E94050AD0E081113DC0BC9E800170
:1039D000BD9E100D1124F801E25EFE4F81818E1113
:1039E00032C080818F112FC0828181112CC0E38071
:1039F000F480EC18FD0860E087E191E00E94480E39
:103A000080911A0290911B02E816F906E0F4809169
:103A10001C018F70806180931C01F801ED5DFE4FE9
:103A200080818F708061808387E191E00E94DD1545
:103A3000DF91CF911F910F91FF90EF90DF90CF908A
:103A4000BF900C94100A2196C770A2CF3F924F925C
:103A50005F926F927F928F929F92AF92BF92CF921E
:103A6000DF92EF92FF920F931F93CF93DF93CDB727
:103A7000DEB761970FB6F894DEBF0FBECDBF8C01E5
:103A800085E0F801DE011D9601900D928A95E1F71F
:103A9000D8014C9011965C9011971296EC90129769
:103AA0001396CD90DC9060E087E191E00E94480E93
:103AB00087E1A82E81E0B82E80901A0190901B011A
:103AC000A40160911801809117010E94050A8111DB
:103AD00097C1F0901901F601E819F9094F0160E06A
:103AE000FF2009F443C1C5010E94480E60901A02EC
:103AF00070901B0230901C018614970408F0F8C0E7
:103B000040911A0150911B01B0901701A09018012B
:103B1000832D807F6A2D09F0A3C08B2D0E94050A9A
:103B2000FE2C811131C0D80111968C9111978A1108
:103B30002BC08C918B1128C0E11026C0832D8F7073
:103B4000806180931C0187E191E00E94DD158091E6
:103B50001C01F80185838F2D61960FB6F894DEBFA6
:103B60000FBECDBFDF91CF911F910F91FF90EF90CE
:103B7000DF90CF90BF90AF909F908F907F906F908D
:103B80005F904F903F900895F4EF6F16F1E07F063D
:103B900020F480911F0280FF21C0A601652D842D95
:103BA0000E94050A811118C081E08E2580FF16C091
:103BB0004E2D652D842D0E94E509882379F087E13B
:103BC00091E00E94DD1586E0E7E1F1E0DF011D9262
:103BD0008A95E9F7F12CBFCF80E0E8CFA601652DEB
:103BE000842D0E94050A811124C081E08E25B82F02
:103BF000B170CB2E80FF2BC04E2D652D842D0E94E1
:103C0000E509D82E811123C04D865E868D859E855F
:103C10000E940C0E292F22952F70223060F0243044
:103C200088F49F7061F0F8019581907F41F4FD2C3C
:103C300092CF80E0DCCF9F7011F08823C1F3805ECB
:103C40008830A8F3C8010E94DD15DC2CF0CFEE20EF
:103C500009F481CF80911C01816080931C01BACF4F
:103C60008B2D0E94050A811119C0D80111968C91E3
:103C700011978A1113C08C918B1110C0E1100EC0E6
:103C800015963C92C8010E94DD1586E0F801A7E177
:103C9000B1E001900D928A95E1F75DCFC8010E94D5
:103CA000180E882309F1EE20F9F080911C01803272
:103CB00070F0209117013091180138872F831986F1
:103CC000DB86CA868C87CE0107960E94DD1586E0CA
:103CD000F801A7E1B1E001900D928A95E1F70E9409
:103CE000B31CFF24F39437CFC8010E94DD15F9CF30
:103CF000832D807F09F463CF909017018090180185
:103D000040911A0150911B01682D892D0E94050ACE
:103D1000811113C0F801818188110FC08081891140
:103D20000CC0E1100AC03582C8010E94DD1586E092
:103D3000D5011D928A95E9F70ECFC8010E94180E91
:103D4000882391F2EE2081F280911C01803208F4E8
:103D5000BECF20911701309118013A8329831B822D
:103D6000DD82CC828E83CE010196AFCF87E191E0D8
:103D70000E94480E80911A0290911B0288169906A3
:103D8000B0F6FE2CEE2009F4AFCFE0901701D090F2
:103D9000180140911A0150911B016D2D8E2D0E942A
:103DA000050A81111FC0F80181818D111BC080811E
:103DB0008E1118C080911F0282FD67CF90911C0167
:103DC00090FD63CF907F09F460CF80911C018583C3
:103DD000903F09F457CF982F907F905F8F70892B79
:103DE000858350CFC8010E94180E811170CF809139
:103DF0001C01816080931C01C8010E94DD15ABCEBF
:103E0000EE2009F471CFC8010E94180EF82E882305
:103E100009F46ACF86E0F801A7E1B1E001900D92C4
:103E20008A95E1F780911701909118010E940C0E7C
:103E30000E94B31C90CE1F93CF93DF93CDB7DEB714
:103E400067970FB6F894DEBF0FBECDBF942F4B8B94
:103E5000252F5C8B6D8B7E8B8F8B4E895F89622FBC
:103E6000892F0E94050A811109C08091F10090916B
:103E7000F20001969093F2008093F1008D898111F8
:103E80001092EC021A8A198A85E0FE017396DE010F
:103E90001D9601900D928A95E1F78091610182FD56
:103EA0001EC08091040290910502892BC1F00E94EE
:103EB0006D102091500130915101821B930B209184
:103EC0000402309105028217930720F0809152017D
:103ED00082FF76C00E948D1081110E949A0986E0AF
:103EE000FE013D96DE01179601900D928A95E1F74D
:103EF000CE0107960E94261D811111C086E0FE01A9
:103F00003796DE01119601900D928A95E1F74A8568
:103F10005B8568858F810E94050A882389F016E0F9
:103F200080914E0190911D01891337C067960FB69D
:103F3000F894DEBF0FBECDBFDF91CF911F910895E2
:103F400020911D0130E0C9010196877099274091A9
:103F50004E014817190699F096E0929FD001939F61
:103F6000B00D1124A25EBE4FFE01319601900D925C
:103F70009A95E1F780931D010E94100AD0CF0E940C
:103F8000881110921D0110924E0186E0E7E1F1E0E8
:103F9000DF011D928A95E9F7C2CF819FC0011124EC
:103FA000825E9E4F0E94261D882309F4BFCF809118
:103FB0004E0190E001968770992780934E01B0CF13
:103FC00082E00E942A1186CFCF93DF9300D000D0E9
:103FD0000F92CDB7DEB79093D4018093D3018115B2
:103FE00020E2920748F40F900F900F900F900F90DF
:103FF000DF91CF910C9405128EEF89838A831B8207
:104000000E946D108160782F9D838C8349815A8135
:104010006B818D810F900F900F900F900F90DF911B
:10402000CF910C941B1FCF93DF9300D000D00F9241
:10403000CDB7DEB79093D4018093D301811520E2F0
:10404000920748F40F900F900F900F900F90DF9110
:10405000CF910C94D8138EEF89838A8381E08B8370
:104060000E946D108160782F9D838C8349815A81D5
:104070006B818D810F900F900F900F900F90DF91BB
:10408000CF910C941B1FBF92CF92DF92EF92FF92C1
:104090000F931F93CF93DF93B82EC090ED028091C2
:1040A000EB02C82AC7E0D0E0D12CF12CE12CD701DB
:1040B000C6010C2E04C0B695A795979587950A94CE
:1040C000D2F780FF1FC04B2D60E08C2F0E94690D3E
:1040D0008C0181309105B1F00E9413208FE39CE99F
:1040E0000197F1F700C00000C8010E94E41F81E0C1
:1040F000DF91CF911F910F91FF90EF90DF90CF90C4
:10410000BF900895219798F64B2D60E080E00E94C3
:10411000690DEC010E9413208FE39CE90197F1F7F0
:1041200000C00000CE01E1CFCDB7DEB766970FB675
:10413000F894DEBF0FBECDBF0E946D109093D201E8
:104140008093D10184B7806884BF84B7806884BFBE
:1041500081EC97E09093E7008093E6000E94430D86
:1041600085B7886085BF8BB780688BBF8BE48093F1
:10417000FE068093330780930A078AE58093FD0645
:1041800080933207809309078B9A80E0815009F071
:104190007AC28B9878948BE083BF8AEF8CBF82E0E1
:1041A00089BF0E94510E811102C00E94C10F00EB15
:1041B00010E076EBE72E70E0F72EF80181918F0189
:1041C0008F3F11F00E94C307E016F106B1F706EB2E
:1041D00010E065ECE62E60E0F62ED8018D918D01A1
:1041E0008F3F11F00E94C307E016F106B1F78CE093
:1041F000E4ECF1E0DF01282F1D922A95E9F7E2E6D1
:10420000F1E0DF011D928A95E9F790E080E00E94DD
:10421000A2288A3E9E4F21F40E94510E811102C0B5
:104220000E94D00F82E090E00E949A288093B5010E
:104230000E946A0E90936101809360010E94BF14F6
:10424000EFE3FCE93197F1F700C000000E94BF14D2
:104250008091C40180FF08C06FEF7FEF90E080E0A5
:104260000E94C5280E94610783E090E00E949A287E
:104270000E948411D09AD8981092B20180E4809361
:1042800071010E943E276BE070E08BE191E00E949B
:10429000CD0A892BE9F58091B20165E070E081FDDE
:1042A000FAC186E191E00E94CD0A892B89F56DE083
:1042B00070E084E091E00E94CD0A892B49F50E94CC
:1042C0007407605A75418F4F9F4F6093D701709369
:1042D000D8018093D9019093DA01E0EFF2E080E019
:1042E00094E0DF019C011D9221503040E1F7F093F2
:1042F000F106E093F0068FEF9FEF9093EF0280932B
:10430000EE0281E08093DC018093DB011092B30127
:10431000A298AA9A8F98979A83B382FB882780F9EC
:1043200020B330E0220F232F221F330B92E0232BE8
:1043300009F490E0892B8093700180E690E09093DF
:104340002A02809329023FEF40E762E0315040406B
:104350006040E1F700C0000022242394312C8091BA
:1043600018071091D001882309F498C110921807FA
:104370000E946D109093D2018093D101112361F0BE
:104380001092D0010E9488110E94AC070E94960AE8
:104390008091D001811184C10E944A0B8091E30277
:1043A000882309F43FC18091FD0684FF3BC10E9430
:1043B000BF14E82E81110E947407A4ECB1E0E6EB73
:1043C000F1E010E000E0602F8D919D9121913191FD
:1043D0002817390709F48FC12827392770E0CC2422
:1043E000C394D12CA9014C215D21452B09F47DC139
:1043F00079876A879C012C213D2191E0232B09F4C8
:1044000090E09B870E946D108160782F9D878C873C
:1044100049855A856B858D850E941B1F000F111FD2
:10442000F801EA54FE4F80819181C826D926D182B5
:10443000C082E0917001EE0FEE0FE093700183B344
:1044400082FB882780F98B8B1C8A80B390E0880FD1
:10445000892F881F990B009711F082E090E0AB89BB
:10446000BC898A2BE82BE0937001EF70F0E0EB53EE
:10447000FF4F808190916F01890F80936F01F12C24
:10448000843054F080916E018F5F80936E0181E0E3
:104490000E944320FF24F39480916F018D3F54F4D8
:1044A00080916E01815080936E0180E00E944320D4
:1044B000FF24F39480916F01082E000C990B64E0A7
:1044C00070E00E94532880936F01F1100E947407DE
:1044D0008091DC01882309F494C010917101812F2F
:1044E00090E0880F991F80519D4F9093F106809323
:1044F000F00686E291E00E949606B9E01B9FC0019B
:1045000011248115E4E09E0714F090E080E08051D2
:104510009D4F9093F1068093F00686E792E00E940B
:1045200096062091EE023091EF022115310509F433
:104530004FC08091B30181114BC0082F10E02101C1
:10454000082E02C0440C551C0A94E2F7A90144212C
:104550005521452B09F4E6C09091B20190FDE4C0CD
:10456000806B80936D0010926E0080E180936F00ED
:1045700024E630E044E050E06CE670E088E70E941A
:10458000EA27892B29F5A801B6E0440F551FBA95F3
:10459000E1F78091B20180FDEAC040515D4F04E631
:1045A00010E020E430E060E488E70E941028892BC6
:1045B00079F40E94180BC201809590954090EE020C
:1045C0005090EF02482259225092EF024092EE02A0
:1045D0008091DB018823A9F00E9474070091D70124
:1045E0001091D8012091D9013091DA01601B710B33
:1045F000820B930B6F3F7F4F8F4F9F4710F40E94AA
:10460000FD0AE11001C0F1100E94180B0E94AC07D6
:104610009091B401891731F00E94AC078093B401E6
:104620000E94960A0E94E80C0E944A0B8091E302C5
:10463000882309F494CE8091320784FF90CE809134
:10464000D902803209F08BCE0091D5011091D601AC
:104650008091B9020115110509F40DC18E3F09F0D1
:1046600054C18091BA02833020F08550833008F025
:104670004CC1E091BA02EE3008F047C1F0E0E950D9
:10468000F74D0C946728A895AFE9BFE01197F1F7B3
:1046900000C000007BCD81E191E005CE112399F0AF
:1046A00080E00E94960A0E94FD0A0E94BF14E4EC7A
:1046B000F1E081919191892B09F081C381E0E03D86
:1046C000F807B9F74CCE8091D1019091D2010E94A8
:1046D0005E10069708F460CE81E08093D00180E000
:1046E0000E94960A0E94FD0A53CE7F5FCC0CDD1C0F
:1046F0007F3009F077CE0F5F1F4F0630110509F0AC
:1047000062CE8FEF8E878F87188A0E946D1081602E
:10471000782F9A8B898B4E855F8568898A890E945C
:104720001B1F87CE8F5F09CFC80126E0880F991F16
:104730002A95E1F79C01220F232F221F330B31957D
:10474000220F220F220F53E0969587955A95E1F795
:1047500080958870806B80936D00822F8F7080931E
:104760006E0022952F70206120936F0001CF80E4AE
:10477000A2E7B1E01D928A95E9F7EDEDF0E0FE8B3E
:10478000ED8B05ED10E0A7E08A2EAD89BE898D91F5
:10479000BE8BAD8BF80121918F01240F352F311D78
:1047A00020513D4FE82FF0E0EE58FE4F90E080E0C2
:1047B000682C681A922C082E01C0990C0A94EAF70A
:1047C0006901A12CD601BD906D01B920662D6A1931
:1047D0006770762E062E000C770BBB2D01C0BB0F29
:1047E0007A94EAF77B2E7195619571096770772746
:1047F00001C0B6946A95EAF77B28B0807B28708266
:10480000A39468E0A612DECF019631968830910518
:1048100079F685EE90E0AD89BE898A179B0709F08D
:10482000B4CFF2E7CF2EF1E0DF2E04E610E028E06F
:1048300030E0A60160E488E70E941028892B09F087
:10484000C7CEEAEAF1E0EC15FD0509F4B2CE80919D
:104850006D008F5F80936D0024E630E044E050E00F
:104860006CE670E088E70E94EA27B8E0CB0ED11C26
:10487000892BD9F2ADCE8D3009F49BC0B8F48430C9
:1048800009F474C040F4823059F108F05BC0813003
:1048900009F18FEFC4C2863009F488C008F476C0ED
:1048A0008C30B9F780E18093BA022FC0813109F4CE
:1048B000E6C040F48F3009F4B0C008F47FC00E9415
:1048C000B80E23C0833109F40AC108F4DAC08E3F60
:1048D00001F7CFCE1092BA0289E08093BB0215C0D7
:1048E0008091BA02823009F4BCC2833089F08130F1
:1048F00081F60E9474070E946D286093BB0270933A
:10490000BC028093BD029093BE0209EB12E036C256
:104910008091700090917100892BB9F3E4ECF1E083
:10492000A9EBB2E080819181329612969C93129706
:1049300013968C931397129620ED31E02E173F07B4
:1049400089F7E3CF8091BA02823009F0A2CF60915B
:10495000BB027091BC028091BD029091BE020E9488
:104960006D2886E290E00E94A828CFCF4091BC023B
:104970006091BB028091BA020E94920D982789270C
:1049800098279093BE028093BD02BFCF2091BD02B5
:104990003091BE023227232732274091BC0260911A
:1049A000BB028091BA020E94F90EAFCF0E942E0F77
:1049B000ACCF82E08093BA0287E48FCF0091BC0233
:1049C00010E00D31110508F0A0CFE090BA02F09090
:1049D000BB02FE24EF24FE24E9EBCE2EE2E0DE2E25
:1049E00007541D4FC70187549E4F0C151D0509F430
:1049F0008CCF37E4E31632E0F30660F40E949A2885
:104A0000D60114968C93FFEFEF1AFF0A2FEFC21A0C
:104A1000D20AE8CFF6011482F6CF8091700090910F
:104A20007100892B09F471CFE090BC02F12C3DE1BB
:104A3000E316F10408F069CF0091BA021091BB02AD
:104A400010270127102779EBC72E72E0D72EE00E32
:104A5000F11EC80187549E4FE016F10609F455CFA8
:104A6000073442E0140728F4D60114966C910E9492
:104A7000A828BFEFCB1ADB0A0F5F1F4FEACF82E0F7
:104A800012CF0091BC0210E00D31110508F03DCFAE
:104A9000E090BA02F090BB02FE24EF24FE2469EB02
:104AA000C62E62E0D62E07541D4FC7018796C0164A
:104AB000D10609F42ACFE8E6EE16E1E0FE0660F43E
:104AC0000E949A28D60114968C93FFEFEF1AFF0AE2
:104AD0002FEFC21AD20AE9CFF6011482F6CFE09086
:104AE000BC02F12C3DE1E316F10408F00ECF009179
:104AF000BA021091BB02102701271027083641E0A7
:104B0000140708F002CF88E691E0801B910B8E1508
:104B10009F0508F4FACE59EBC52E52E0D52EE00ED3
:104B2000F11EC8018796E016F10609F4EECE0836AC
:104B300061E0160728F4D60114966C910E94A8280B
:104B4000BFEFCB1ADB0A0F5F1F4FEBCF88E0E7E721
:104B5000F0E0DE01119601900D928A95E1F780E276
:104B6000E9EBF2E011928A95E9F784E08093B902CB
:104B700088E0FE013196ADEBB2E001900D928A958E
:104B8000E1F7C3CE84E18093B90283E08093BA0257
:104B90001092BB021092BC02B8CE8091BC02682F6A
:104BA00070E0762F66278091BB02860F972F911DAC
:104BB000092E000CAA0BBB0B45E0880F991FAA1FFA
:104BC000BB1F4A95D1F7AC01BD01405E5F4F6F4FEF
:104BD0007F4F481759076A077B0708F496CE843140
:104BE000F3E09F07A105B10508F08FCE453123E022
:104BF00052076105710520F044E153E060E070E088
:104C0000481B590BBC016A537C4F89EB92E00E9410
:104C100074287BCE1091BB020091BC0240E0602F53
:104C2000812F0E94690D9827892798279093BA02AF
:104C30008093B90241E0602F812F0E94690D98276F
:104C4000892798279093BC028093BB025ECE209167
:104C5000BE023091BF023227232732274091BD0286
:104C60006091BC028091BB020E94C80E4ECE4EE104
:104C700050E06FEF70E08BEB92E00E949328809100
:104C800070008093B9020093BA023FCE3092D601F1
:104C90002092D50182E390E09093C3018093C201FA
:104CA0000E946D1032CE809170008093B902009303
:104CB000BA028091C20111CE0091BB021091BC02D8
:104CC00040E250E06FEF70E089EB92E00E949328A1
:104CD0002AE438E090E080E0AC014E5F5F4F413263
:104CE000510508F012CEF901659174910617170766
:104CF00030F487549D4FDC016D937C93CA01285F8B
:104D00003F4FB8E02A393B0739F7FFCD2091BB026E
:104D10003091BC028AE498E0FC014591549124173B
:104D2000350709F466C00896E8E08A399E07A1F7BE
:104D3000B0CD8091BB029091BC020AE418E0F8016A
:104D4000259134918217930709F46CC0085F1F4FB7
:104D50002AE938E02017310791F79BCD0E94950E84
:104D6000D4CD8091BB028111D0CD80E2A9EBB2E01D
:104D70001D928A95E9F7C9CD0E944A0B80910907D7
:104D800084FFFACF49E057E068E0C8010E94940C24
:104D9000085F1F4FB2E0093D1B0781F780910907AB
:104DA00084FF0AC049E057E060E090E080E00E94A4
:104DB000940C1092D902D3CA0E944A0BEFCFF894F8
:104DC00021B3939A822F8C6081BB92B33CE09327EE
:104DD00092BBEFE7F8E341E0E150F0404040E1F7FB
:104DE00000C0000082B3832782BB21BB93987894D4
:104DF000B6CA9C012E5F3F4FF90145915491403254
:104E0000510508F046CDF90145915491FC013496C5
:104E1000659174918AEB92E00E948A2880E08093E9
:104E2000B90273CDC8010296FC01259134912D3150
:104E3000310508F02ECDFC0145915491F8013496CE
:104E4000859194916DEB72E00E948A280E94780E01
:104E5000F801369685919491009701F3FC0109952C
:104E6000DDCF86E290E00E949A281092BB02109259
:104E7000BC021092BD028093BE0247CD11B88CE0F7
:104E800080B985B3836085BB86B7846086BF86B7EB
:104E9000816086BF86B7806486BF08959F92AF9277
:104EA000BF92CF92DF92EF92FF920F931F93CF9317
:104EB000DF93B82EEB010E946D106C01EE24E39499
:104EC000F12CC431D10560F025E0E22EF12CCF3F6A
:104ED000DC0731F0CE0164E170E00E943F287B01E5
:104EE00084EAA82E94E8992E16BEA6BE0E946D10E4
:104EF0008C0106B607FE0BC081B1887F883031F186
:104F000081B1887F803111F10FEF1FEF09C00E943E
:104F10006D10801B910B8E159F0558F30EEF1FEF40
:104F2000CF3FDC0709F3C6010E945E108C179D0776
:104F3000D8F2C801DF91CF911F910F91FF90EF90B0
:104F4000DF90CF90BF90AF909F900895B3B896BE7A
:104F50000E946D108C0106B607FE09C081B1887FE2
:104F6000883111F0803481F610E000E0E2CF0E9439
:104F70006D10801B910B8E159F0568F3CFCF0F939B
:104F80001F93CF93DF93EB0183B984E886BF0E9420
:104F90006D108C0106B607FE10C021B1287F81E09C
:104FA00090E0283211F490E080E09195819591098C
:104FB000DF91CF911F910F910895CF3FDC0751F3FF
:104FC0000E946D10801B910B8C179D0718F38EEFBC
:104FD0009FEFEECFCF92DF92EF92FF920F931F934E
:104FE000CF93DF936B018A017901B9010E944E27AB
:104FF000E6010C0D1D1DC017D10759F424E926BF89
:10500000DF91CF911F910F91FF90EF90DF90CF90A4
:10501000089597FDF3CFB70189910E94BF27EBCF89
:10502000CF92DF92EF92FF920F931F93CF93DF9374
:10503000C62F6A017901B8010E944E2797FD0CC066
:10504000B8018C2F0E94BF27E601EC0CFD1CCE1589
:10505000DF0511F097FF0BC024E926BFDF91CF9148
:105060001F910F91FF90EF90DF90CF900895B801BE
:1050700089910E94BF27EBCF84E986BF0895AA1BC0
:10508000BB1B51E107C0AA1FBB1FA617B70710F033
:10509000A61BB70B881F991F5A95A9F78095909565
:1050A000BC01CD01089597FB072E16F4009407D09C
:1050B00077FD09D00E943F2807FC05D03EF490956B
:1050C00081959F4F0895709561957F4F0895EE0FDC
:1050D000FF1F0590F491E02D099469279627692711
:1050E0007827872778270895FB01DC0102C0059007
:1050F0000D9241505040D8F70895FB01DC0104C0E7
:105100008D910190801921F441505040C8F7881BBF
:10511000990B0895FB01DC0102C001900D924150F2
:105120005040D8F70895DC0101C06D9341505040C4
:10513000E0F70895E199FECF9FBB8EBBE09A9927D7
:105140008DB30895A8E1B0E042E050E00C94CD2882
:10515000262FE199FECF9FBB8EBBE09A01970DB23F
:10516000021631F02DBB0FB6F894E29AE19A0FBE09
:1051700008950396272F0E94A9280E94A828252F6A
:105180000E94A928242F0C94A9280196272F0E9459
:10519000A9280C94A828DC01CB01FC01E199FECFE1
:1051A00006C0FFBBEEBBE09A31960DB20D924150A6
:1051B0005040B8F70895F894FFCF820A820A8B0A0C
:1051C0008B0A8D0A8B0A8B0A8B0A820A820A920A40
:1051D0008B0A8B0A920AAE19AE19E719E719AF1AB2
:1051E000211A211A211AC91A361B471B471BA6254B
:1051F000C225CD250A26272637264626532685246E
:0A5200005C2686269926AE26B1260C
:10520A005E07170D5D07E40CE00C5C0700B00010A8
:10521A000100AF0001FF5A2D493AE8F51C08A181A7
:10522A008283E200E900EA00B500B600B700CD00CB
:10523A008301CC008A0192019401210223022402F3
:10524A002502260227022A02B300B4006F0070006A
:10525A0036969794379591929360616263640001E0
:10526A00050635343300FF0100010000FFFF00008E
:10527A00010001FF000008101820283038383028B3
:06528A00201810080000CE
:00000001FF
