:100000000C94F6040C943A050C9455050C943A059E
:100010000C943A050C943A050C943A050C943A0564
:100020000C943A050C943A050C947E100C943A0505
:100030000C943A050C943A050C943A050C943A0544
:100040000C943A050C943A050C943A050C943A0534
:100050000C943A05000000000000000000000000C1
:100060000000000000000000000000000000000090
:1000700000000000000000007E0F00D4FFFFFFC75B
:100080000000007800000000000000002A2B28007B
:100090000000000000000000000000000000002937
:1000A000000000002C1E3420212224342627252E77
:1000B000362D3738271E1F202122232425263333AF
:1000C000362E37381F0405060708090A0B0C0D0EDB
:1000D0000F101112131415161718191A1B1C1D2FA7
:1000E0003130232D350405060708090A0B0C0D0EC7
:1000F0000F101112131415161718191A1B1C1D2F87
:100100003130354C00DA12811ED9F1DB20A4A62E45
:10011000AF00A0C0D36000A1C8D32000AED580A896
:100120003FDC008D142000000000000000000000F3
:1001300000000000000070FC8E06FFFF0303061E97
:10014000FCE000FFFF0303C3FF3F03FCDE06FFFFED
:100150000303070EFCF00000000000000000000098
:10016000000000000000000000000000000000008F
:1001700000000000000000010333FFFF76F3F09E53
:100180000F0300E3FF1C1C1C090100010303FFFF18
:1001900006020000FFFF0000000000000000000059
:1001A00000000000000060E0E0000020E0E000E06F
:1001B000E060606060E0E02080C4E7E7E06063C783
:1001C000C684000787C6E6E6E66666C0C00407E7A1
:1001D000E626C6E763E0C000000020E0E00080C043
:1001E000E0606060C08000FFFF606060FFFF003F74
:1001F000FFC080803F3F000F3F71FFFFC0C0200065
:10020000FFFF001F3F71FFFFC0C00000FFFF00FFA6
:10021000FF00000307FFFF38F0C080FFFF00FFFF73
:10022000000008CCCFC7C0FFFF00048CFFFF01F81F
:10023000FEC7C3C3C1C0C0000000FFFF8E0E1E7FFB
:10024000F3C180000000FFFF8E0E1E7FE38000FFE1
:10025000FF80000000FFFF8000018FFFFF003F7F55
:10026000E0C0C0FFFF8000000000000000000000B0
:100270000000000000000000000000000000C38C2F
:100280001860C00000000000000000000000000036
:10029000000000000000000000000000000000005E
:1002A000000000000000000000000000000000004E
:1002B000000000000000000000000000C0C8F08145
:1002C00086F88003EC180000000000F0000000E059
:1002D0001E00008078070000F01F00000000077873
:1002E0008000011EE000000EFEFEFCFCF870706055
:1002F00060C0808000000000000000243F878F7FE6
:100300000F1FFF1F1F1F0F0808F81F1010F03E21BE
:1003100020A078474040F09F80808080808080804F
:1003200087F8C040415EE020202FFFFFF8F0F0F09A
:10033000F0FDFFFF3F1E80C044242213190804046F
:1003400002030100000000000F0000E01E01008019
:1003500078070000F00F0100C03C030000011FF00F
:10036000000007788000011EE000000FFFFFFF7F04
:100370001F0F03000000000000000000000000004C
:10038000000000000000000000000001000008075D
:100390000000701F0100C03C0300000000000001CD
:1003A0001FF0000007780000010E000000010000AF
:1003B000000000000000000000000000000000003D
:1003C000000000000000FD377A585A000004E6D60D
:1003D000B4460200210116000000742FE5A3E00CD2
:1003E0001702D25D003D8889C65436C3174FE4E535
:1003F000925EEEA5572BC703411AB61D46CBFC6192
:10040000B1312BA0CC36A21548B182F497092E3F0A
:10041000F2FACC5E51FED2FC1E56102CFEE0D1A1A9
:10042000E6619C220489C455CA1A743064B1380A42
:100430004F1F45F8639B24B499F55755D209EEFB3D
:1004400062B3A732A27A30805FC15909DD56C1611B
:1004500071D83581A4C08E88888A9D90D1210EC91B
:100460004440BA564B5D42DF5EFAE340698A9F5DC5
:10047000975CC9E4F05AFB4FD68B73B7F15921C58D
:1004800099A1AFB566FA3848A397BFFB1D0853077B
:100490000310C71A7AF7115F1A91AF19CC723CB7E3
:1004A000D69B4AD01F5EAA594B992BE4FFFEC7D7B3
:1004B000160919CD7C30D4B908E370AD9B0E0AB390
:1004C000D97BC4E3E529BF1D128F20A3FBC6690EAB
:1004D000ACF0F07F4D570DE400F4235BCA9654BA9C
:1004E000B646A37FE97BF3166218D700BFEC4DD563
:1004F0002457DDFB62CBF1098EAF066747C3073E89
:10050000D52048918DC8661F8F74E4AD2E6D6F5154
:10051000CF28C8F2F13E95419CDD22F31D9A0B9F36
:100520005F1E941976B55E3A9859AC5E2450C70D9B
:10053000DF67CD0273B3A0468419E39891A0AC3E67
:10054000A759607A1C6A56D3963134DCE4BD748BAB
:100550005DE9DD7BEA17A3FC8C5CAD680E3027DB20
:10056000A02BFE597784D30266703CC270793B831E
:10057000BE1BBFFAF77DB14468143954312FB9510D
:10058000CE02802E3AC1383AC64B4148ABAD718B92
:100590007E17DBED7E6B318A007AEFD28CB6B6F433
:1005A000497815EB5E3C60152B6913420D1B9DCA03
:1005B00073BB74E3B6D8029620214D3FEB71FAA7C6
:1005C00091E75F3EB649F56EF2EB8C5F4AE457C99E
:1005D0005BBB405E0DA5B47E8687A186D69B8FC18E
:1005E000E80B107760689CC7D0D71DB730ED4EA9D7
:1005F000045E0C31EF12694905B59889E62714C9E4
:1006000061CCB6A8972AF7B54536CB95B44DA9036A
:1006100099B3F9C99B5157EB66C5C3DC92DDBFAFF7
:100620001B903C59CDF2AFA92A3A8D799D187CC513
:1006300069F775F8BD5FCEB30FDEA4898B767111B3
:10064000343F5914B42F1C4C7E268B1A76A006C654
:10065000D4E02BC5E77F7CD2AA210C34F1B5164E2D
:10066000E490FCE5867EC22AC8DA869E692AE8F014
:100670009A9CCDDFE49BBBB03422C973735BB41D7D
:1006800039675845347FF2BD44EF1584F6368186CC
:1006900075712BC8EB80AB55CE8D1DF8DAD4EFAC5D
:1006A000BE657B4FA66019B48A287940F1A11DDE92
:1006B000456FEAF5C4FAE9000000413A0B60CF7BD0
:1006C00010830001EE0598180000DC1A3A4DB1C401
:1006D00067FB020000000004595AAA00A9004E005E
:1006E0004B003A003B003C003D003E003F00400014
:1006F0004100420043004400450046004700A80076
:1007000035001E001F0020002100220023002400CD
:100710002500260027002D002E0031002A002B0086
:1007200014001A000800150017001C0018000C0027
:10073000120013002F00300031004A00390004007D
:100740001600070009000A000B000D000E000F0044
:100750003300340028004B004E00E1001D001B0058
:10076000060019000500110010003600370038009F
:10077000E500E5005200E100E000E300E200760061
:100780002C00015101512C00E600E700E40050006C
:1007900051004F002900010001000100010001008B
:1007A0000100010001000100010001000100010041
:1007B0000100E85C010001000100010001000100EE
:1007C0000100010001000100010001000100010021
:1007D0000100010001000100010001000100010011
:1007E0000100010001000100010001000100010001
:1007F00001000100010001000100010001000100F1
:1008000001000100010001000100010001000100E0
:1008100001000100010001000100010001000100D0
:1008200001000100010001000100010001000100C0
:1008300001000100010001000100010001000100B0
:100840000100010001000100005C01000100240220
:100850000000020002002002000003000100250247
:100860000000040002000A02B80705000100260289
:100870000000060002000C02000007000200220235
:1008800000000800010027020000120002002802F8
:100890000000130002002A02000000AF00AE0501B4
:1008A0000980A101850319012AB700150126B700A7
:1008B000950175108100C0050C0901A1018504197D
:1008C000012AA002150126A002950175108100C021
:1008D0000660FF0961A1010962150026FF0095204D
:1008E000750881020963150026FF0095207508919F
:1008F00002C005010906A101050719E029E7150055
:100900002501950875018102950175088103050788
:10091000190029FF150026FF0095067508810005BE
:100920000819012905950575019102950175039135
:1009300003C01C037600690061006C003A00660089
:1009400036003400630032006200330063000000B0
:100950001603720065006400680065007200720092
:1009600069006E00670000001003640063007000FF
:1009700065006400690074000000040309040902B2
:100980005B00030100A0FA0904000001030101005B
:10099000092101010001224000070581030800012F
:1009A00009040100020300000009210101000122E5
:1009B000220007058403080001070504030800015D
:1009C00009040200010300000009210101000122C5
:1009D0003200070583030800011201100100000026
:1009E000089EDCED120100010203010011241FBE6C
:1009F000CFE5D8E0DEBFCDBF04B603FE24C08091B2
:100A0000460790914707A0914807B0914907873062
:100A1000904BA740B04BB9F410924607109247078D
:100A2000109248071092490714BE84B7877F84BF8D
:100A30000FB6F894A89581B5886181BD11BC0FBE31
:100A4000E0E0F8E3099527E0A6EEB0E001C01D92D2
:100A5000A634B207E1F710E0A0E6B0E0E4E9F5E57E
:100A600002C005900D92A63EB107D9F70E9421223F
:100A70000C94932A0C940000A82FB92F80E090E0EA
:100A800041E050EA609530E009C02D9182279795AA
:100A9000879510F084279527305EC8F36F5FA8F321
:100AA0000895EADF8D939D930895CF93CFB7CF93A9
:100AB000DF93C395839BE9F7839B10C0839B0EC094
:100AC000839B0CC0839B0AC0839B08C0839B06C08A
:100AD000C0912007C395C09320078EC06F93C0912B
:100AE0001F07DD27CC5DD84F2F9365E5839B03C09F
:100AF0002F916F91E1CF0F931F934F9320E040E12F
:100B00005F9300B30C7003FB27F93F9350E03BE089
:100B100039C01C7040642F77012F5F5F1EC0406892
:100B200010B31C702F7752501FC0406400B32F7752
:100B30000C70D1F15F5F00C023C0406210B32F770B
:100B40001C7091F15F5F00C025C00C7010275150E0
:100B500012F45D5F0000115027952C3F10B3C8F6CA
:100B60001C700127015027952C3FC8F64227499356
:100B700000B30C7010274F73115027952C3FA8F627
:100B80004695469510B31C7079F0012701502795C2
:100B90002C3F98F66B5A60F3315000B3B0F600C0AA
:100BA00010E81ABF00271CC03B503195C31BD04032
:100BB00010E81ABF0881033C21F10B3411F1209198
:100BC0001D071981110F1213EDCF4A81441F0936F9
:100BD00079F10D3211F0013E29F74F7009F0042F21
:100BE000009323073F915F914F911F910F912F9198
:100BF0006F91CAB7C7FD5DCFDF91CF91CFBFCF91C6
:100C0000189520912307222369F3109121071123BE
:100C100009F049C034300AF448C0309321072093CA
:100C20001E0710911F073BE0311B30931F073DC08B
:100C3000009121070130BCF50AE54F7049F430916D
:100C4000770034FD33C000937700CAEFD6E032C09E
:100C5000433059F0443091F03091050734FD26C0FF
:100C600000930507C6E0D7E025C030913A0734FD70
:100C70001DC000933A07CBE3D7E01CC030911107A9
:100C800034FD14C000931107C2E1D7E013C005275B
:100C900010E000C0000002BB1AC0052710E0221FB0
:100CA0001DC010E021C04AE502C032ED432FC4E16F
:100CB000D0E032E011B31C60939A02B311BB5CE048
:100CC00020E865E320FF052702BB279517951C3F09
:100CD000F0F66695B8F7B1F720FF052702BB279518
:100CE00017951C3FD0F62795179517FF052700008D
:100CF0001C3F02BBB0F629913A9519F7037F10917A
:100D00002207110FC651D04002BB11F010931D07EE
:100D100010E81ABF086011B3137F402F437F54E0DF
:100D20005A95F1F702BB11BB42BB5CCFCF93DF9367
:100D30004091F8065091F906485F52409A01205BB5
:100D40003E4F21303440C0F020E034E0241B350B0E
:100D50006091F6027091F702FC01CA01240F351F61
:100D6000C1E0D0E08217930750F07093F7026093D0
:100D7000F602DF91CF91089520E531E0E9CF44916B
:100D8000DC01A850BD4F5C91451781F04C93AC013C
:100D9000A6E056954795AA95E1F7DE0102C0AA0F95
:100DA000BB1F4A95E2F7AD016A2B752B0196319670
:100DB000D9CFFC018381833089F130F48130F1F0A7
:100DC000823021F180E00895813209F450C08232EE
:100DD000C9F7248135812130310509F466C0211518
:100DE000310509F45AC02230310561F78EE998E0E7
:100DF0009093F2028093F10282E3089589ED99E0E5
:100E00009093F2028093F10282E108958EE799E0D7
:100E10009093F2028093F1028BE5089582818130F4
:100E2000B1F0882361F08230D1F0833059F682E34B
:100E300099E09093F2028093F1028CE108958AE7A1
:100E400099E09093F2028093F10284E0089588E69D
:100E500099E09093F2028093F10280E1089580E599
:100E600099E09093F2028093F10286E108958281E5
:100E7000813081F0882331F0823009F0A3CF89ECF2
:100E800099E002C080E999E09093F2028093F10228
:100E900089E0089589EA99E0F7CF82EF98E090938E
:100EA000F2028093F10280E4089520ED38E030935F
:100EB000F2022093F1020895089508958091EC02C2
:100EC000089588E198E00FB6F894A89581BD0FBE0B
:100ED00091BDA895F894D8E0CEE528E3299320E0C9
:100EE000299314BEFFCF08952FB7F894609135026F
:100EF0007091360280913702909138022FBF089589
:100F000020913302309134022817390771F0909301
:100F1000340280933302E0913102F0913202309733
:100F200021F00084F185E02D0994089520912F028D
:100F3000309130022817390771F090933002809376
:100F40002F02E0913102F0913202309721F00680B9
:100F5000F781E02D09940895E0913102F091320279
:100F6000309721F00190F081E02D099480E0089500
:100F700080910A0290910B0290937300809372000B
:100F8000089580E00895F894E82FE295EF70F0E07E
:100F900031A9282F2F7081E090E001C0880F2A9599
:100FA000EAF7982F9095932391AB92A9892B82AB66
:100FB000789408959091600192FF06C0282F2871BF
:100FC0002830F9F4877F846093FF06C0282F2871AA
:100FD0002831F1F4877E84612091610120FF06C0F1
:100FE000382F38713830D9F4877F816021FF06C0EF
:100FF000282F28712831D1F4877E816194FD877E66
:101000000895282F24712430F9F68B7F8860DCCF77
:10101000282F2471243101F78B7E8861DDCF382F92
:101020003171313019F78E7F8860E0CF282F217120
:10103000213121F78E7E8861E1CFCF93DF93EC01E0
:1010400082389105A9F1D8F58133910509F496C04C
:1010500048F58932910509F48AC08A9709F495C048
:10106000C11522E5D20708F0B6C0C11531E5D30796
:1010700008F026C1C83ED10508F09CC0C03ED1058D
:1010800060F5C83AD10508F087C0C53AD10508F027
:10109000EFC0C130D10509F12097F9F0C430D10576
:1010A000E0F440C08533910509F45AC0C997C1F6F0
:1010B00080916001837089F0C0EED0E00EC0833E65
:1010C000910599F170F4803E910501F1823E910500
:1010D00039F68091600182FD21C0CE01DF91CF9170
:1010E0000895863E910561F1873E910571F1843E38
:1010F000910509F0B5CF8091610181FFEECF80911C
:101100006001C7EED0E084FD0DC0E7CF80916001A3
:1011100080FD07C19091610190FFDFCFC3EED0E069
:1011200084FFDBCFD0E0C0E0D8CF8091600182FDAA
:10113000FBC09091610190FDBFCF84FFCECFF2CF75
:101140008091600183FDDDCFC8CF8091600183FD78
:10115000EEC09091610191FFF0CFC4EED0E0BDCF21
:101160008091600185FFB9CFC9E2D0E0B6CF809110
:10117000600185FFB2CFC5E3D0E0AFCF80916001C1
:1011800086FFABCFCAE2D0E0A8CF8091600186FF96
:10119000A4CFC1E3D0E0A1CFCF3BD10518F6C85A08
:1011A000D0E0CC0FDD1FCD57DF4F0990D881C02D87
:1011B000D46493CFC11540E5D40708F064C0C115CD
:1011C00080E4D80708F05CC0CE019A9581159F4154
:1011D00008F483CFA7CFC11536E5D30718F5C1159D
:1011E00045E5D40708F084C0C11584E5D80708F0A8
:1011F0007AC09C2F969596959E0123703327C11532
:10120000D34508F462C0C1E0D0E002C0CC0FDD1FBE
:101210002A95E2F730E2939FC0011124C82BD92B05
:10122000DA685BCFC1158AE5D80778F4C11599E56E
:10123000D90708F068C0C11528E5D20708F472CFB5
:10124000DC2FCC27C06FD06A48CFCE0190568115D5
:10125000904208F067CF8D2F8F710E94DA0790E0DF
:10126000982F882788279F719C012C2BE90149C062
:10127000C55AD0E0C058DF4FC881D0E0D0642DCF30
:10128000DF70D06A2ACFCE01E4E096958795EA9583
:10129000E1F783702C2F26952695237040E2249F3A
:1012A00090011124382B8C2F8370C1E0D0E002C054
:1012B000CC0FDD1F8A95E2F7C22BD32BDC680DCF54
:1012C000DC2FCC27C16FD06A08CFC1E0D0E002C0CC
:1012D000CC0FDD1F2A95E2F720E2929FC001112476
:1012E000C82BD92BEBCFDC2FCC27C46FD06AF5CE1F
:1012F0008C2F0E94DA07C82FD0E0DC2FCC27CC2718
:10130000DF71D062EACE8C2F8F700E94DA0734E052
:10131000D695C7953A95E1F7CF709C2FEC01D0692F
:10132000DCCEC9E3D0E0D9CEC2EED0E0D6CEC6EE58
:10133000D0E0D3CE80915601882331F0109256012F
:101340001092550110925401089580959091E101F9
:1013500098239093E10108959091E101892B809366
:10136000E101089510925201109251011092500122
:10137000089580914F01811110924F010895EAEE76
:10138000F0E09191891303C0DF0111971C9290E066
:10139000E03FF907B1F70895AAEEB0E0EFEF90E073
:1013A0002D91821751F0EF3F19F4211101C0E92F5F
:1013B0009F5F9630A9F7EF3F09F408950E2E000CB9
:1013C000FF0BE851FF4F8283089520914E019091C9
:1013D0001D0156E0291302C080E0089530E0529FBD
:1013E000F001539FF00D1124E25EFE4F71817613E0
:1013F00006C07081781303C07281741304C02F5F1C
:101400003F4F2770E7CF81E00895452B39F06823DF
:1014100081E06F3F09F080E08170089581E0FCCFAA
:1014200080914E0190911D01981301C008958F5F26
:101430008770FACF9E3F49F1E82F2FE0929FE00D91
:1014400011249E2F9770E695E695E69583E0E89F38
:10145000F0011124ED50FF4F50E040E080E0219179
:1014600030E0092E02C0369527950A94E2F72170E4
:101470003327042E01C0220F0A94EAF7822B4F5F14
:101480005F4F4330510559F7089580E008959E3F1E
:1014900069F1E82F2FE0929FE00D11248E2F8770C5
:1014A00041E001C0440F8A95EAF7E695E695E69596
:1014B00083E0E89FF0011124ED50FF4F30E020E081
:1014C00070E05191DF011197CB01022E02C0969579
:1014D00087950A94E2F78170819585278423852773
:1014E0008C932F5F3F4F2330310559F70895E92F33
:1014F000E295EF70E250EE3070F4F0E0EB56F54D0F
:101500000C94192A803F19F020F4883E20F481E0E1
:101510000895843FE1F380E00895883EC0F3813F61
:10152000D1F7F5CF93FB882780F9089581FF02C09A
:10153000D89A0895D89808959C013A9521153F416D
:1015400050F5FC01EE27F170BC0166277270AC010A
:10155000442754709C012227387094FF0EC080E10C
:10156000EF2B09F480E0672B09F08062452B09F02E
:101570008064232B89F08068089581E0EF2B09F4C3
:1015800080E0672B09F08260452B09F08460232BF3
:1015900019F08860089580E00895CF92DF92EF926D
:1015A000FF920F931F93CF93DF936C017B0164E64F
:1015B00070E088E70E940029EC0197FD12C010E05E
:1015C00000E0F601E00FF11F849164E670E00E94F4
:1015D0007129EC01892B29F40F5F1F4F0E151F0590
:1015E00081F70E94EE29CE01DF91CF911F910F91DB
:1015F000FF90EF90DF90CF9008958091DF01909160
:10160000E001911103C091E089270895882369F0D2
:1016100062E070E08CE998E00E94CD0A892B19F015
:101620008091DF0108951092DF018091DF01EBCFFF
:10163000CF93C091DF018091E0018823D1F00E9417
:101640007407605A75418F4F9F4F6093DB01709311
:10165000DC018093DD019093DE01C11108C062E0DE
:1016600070E08AE998E00E94CD0A892B29F0C091A8
:10167000DF018C2FCF91089581E08093DF01F7CFB8
:10168000019708F40895EFE9FFE03197F1F700C002
:101690000000F6CFCF93DF9380912107835087FD21
:1016A00014C090911F07CCE0D0E0C91BD109CC5DDC
:1016B000D84F90911E07903108F06BC0883009F424
:1016C00053C01092E102109221078091770084FFAD
:1016D0003EC0809176008F3FD1F1C82F893008F04D
:1016E000C8E0982F9C1B909376009091FA0628E80A
:1016F00092279093FA068823E9F08091F102909165
:10170000F2022091F00226FF06C1FC012C2FABEF64
:10171000B6E034913D9331962150D9F79C012F5F6B
:101720003F4F8FEF8C0F820F932F911D9093F202FA
:101730008093F1026C2F8BEF96E00E945105CC5FF5
:10174000CC3019F08FEF80937600C093770084E15E
:1017500090B39C7031F48150D9F710922207109207
:101760001D07DF91CF9108958091E102893108F042
:10177000A8CFE82FF0E0EF53FD4F9E01285F3F4FC9
:10178000999191932C173D07D9F7885F8093E102D7
:101790009ACF9D3209F0A3C0883009F094CF83EC32
:1017A0008093FA068AE5809377001092F002888190
:1017B000807609F447C0803229F58981813099F417
:1017C0008C819D81892BF1F483EE92E09093F2025B
:1017D0008093F10288E09F81911131C09E8198171A
:1017E00070F5892F2CC0823041F482EE92E0909304
:1017F000F2028093F10281E0EECF8A3029F48B81EE
:101800008093E20280E0E7CF8930E1F78A819B8113
:101810008115924069F48C819D81892B49F481E086
:101820008093EF028E819F819093EE028093ED0270
:10183000888187FF52C08E8190E89093F002809358
:10184000760041CF2A8110920307998191110AC035
:101850001092040723E037E082E03093F2022093F5
:10186000F102B9CF953029F42093220723E037E025
:10187000F4CF9630C1F49B81913049F4CE010E949F
:10188000D90690E49093F0028F3F91F2A4CF92306A
:10189000A9F3933099F3913289F3923279F390E47A
:1018A0009093F00298CF983089F0993019F42093F2
:1018B000EB02DCCF9A3071F09B30C1F69BE4909341
:1018C000060790933B0790931207D0CF2BEE32E0A0
:1018D00081E0C3CF23E037E0FBCF8FEFADCF809126
:1018E000F00287FFF0CE8091ED029091EE02892BFD
:1018F00071F08091EF02813051F488818093EC0285
:101900001092EE021092ED0210927600DCCE8EE183
:1019100080937700D8CEDC012C2FEBEFF6E03D91E1
:1019200031932150E1F7FACE1F93CF93DF93E82F45
:10193000792F162FEA01888184FF1CC0298188E84D
:1019400028272983CE010296DC012E2F372F512F15
:101950005E0FF90121912D939F01452F4E1B141607
:10196000C4F3612F0E9451051C5F1883DF91CF9152
:101970001F9108958AE58883E5CF9091C00298135E
:1019800007C02091BE023091BF0226173707B9F079
:101990008093C0027093BF026093BE028093BB022B
:1019A0007093BD026093BC0280913A0784FF07C028
:1019B0004AE357E063E08BEB92E00C94940C0895BB
:1019C000BC0184E00C94BD0CBC0183E00C94BD0C04
:1019D000CF93DF93CAE0D0E08091050784FF1CC05D
:1019E0008091B9029091BA02981799F028E0829FED
:1019F000C001112445E057E068E0875C9D4F0E94DC
:101A0000940C8091B90290E001968F709927809391
:101A1000B902DF91CF9108950E944A0B8FE99FE0B0
:101A20000197F1F700C000002197B1F6F2CFCF93F4
:101A3000DF93EC01A091BA02B0E0CD0101968F7066
:101A400099272091B902281779F093E0AA0FBB1FBC
:101A50009A95E1F7A75CBD4F98E0FE0101900D92C9
:101A60009A95E1F78093BA020E944A0B0E94E80C13
:101A700088E0FE01A3EEB2E001900D928A95E1F7B5
:101A8000DF91CF9108950F931F93CF93DF930AE0D7
:101A900012E0C7E9D1E0CE010E944C2AF8018193FF
:101AA0008F012196C93BF1E0DF07A9F7C0E5D8E037
:101AB000FE0185919491009711F0FC0109952896FB
:101AC000F8E0C03ADF07A1F7DF91CF911F910F91A6
:101AD00008950F931F93CF93DF93823000F5611128
:101AE0001EC024E0829F8001112450E0440F551F46
:101AF000040F151F01571E4FC8010E944C2AC82F02
:101B0000D0E0DC2FCC27C80101960E944C2A9E0110
:101B1000282BC901DF91CF911F910F91089590E07B
:101B200080E0F8CF0F931F93CF93DF93823030F58F
:101B3000663020F54F3010F5C42FD0E0CC0FDD1FFC
:101B40002EE1629FC00DD11D112434EB839FC00D87
:101B5000D11D1124CE0187960E944C2A082F10E037
:101B6000102F0027CE0188960E944C2A9801282B1E
:101B7000C901DF91CF911F910F91089590E080E00E
:101B8000F8CF462F2091D5013091D601232B91F427
:101B90007E3F39F46E3F71F48091D3019091D4016E
:101BA0000895823038F4763028F46F3018F4672FB7
:101BB0000C94920D90E080E00895CF92DF92FF9216
:101BC0000F931F93CF93DF936C010091F5028091E7
:101BD000F302082BC7E0D0E010E0FC2EC8010C2E69
:101BE00002C0959587950A94E2F780FD0CC0219775
:101BF000A0F7F12C8F2DDF91CF911F910F91FF90C6
:101C0000DF90CF900895B6018C2F0E94C10D0E94E5
:101C10001D08019761F3EECFCF93DF93EC010E9493
:101C2000DD0DBE010E94C10DDF91CF910C941D0806
:101C3000FC01808191810E940C0E0C94770A1F9305
:101C4000CF93DF9300D000D00F92CDB7DEB749839A
:101C50005A8389819A816623B9F02223A9F00E94D0
:101C6000DD0D182F682F89819A810E94470A6981AA
:101C70007A81812F0F900F900F900F900F90DF912E
:101C8000CF911F910C94C10D0E941A0A182FEFCF0B
:101C9000FC01262F408151816281738184810C94E3
:101CA0001F0E83E290E00E944C2A8A3489F484E279
:101CB00090E00E944C2A8A3259F485E290E00E941A
:101CC0004C2A91E08B3C09F090E0892F81700895B7
:101CD00080E0FCCFCF9384E090E00E944C2AC82F94
:101CE00082E290E00E944C2A982F8C2FCF91089589
:101CF0000F931F93CF93DF930AE012E0C7E9D1E07F
:101D0000CE010E944C2AF80161918F01681719F0E9
:101D1000CE010E94602A2196C93BF1E0DF0781F7DE
:101D2000DF91CF911F910F910895EAE0F2E0128EBA
:101D3000138E8FEA90E09183808385E0848F88E81A
:101D400093E19383828382E390E0978B868B88EC88
:101D500090E0918F808F158E8AE090E0978F868F2C
:101D600080E590E091A380A30E94780E0C94430D2F
:101D7000CF93DF93C9EBD1E060E0CE010E94602AEF
:101D80002196C11584E0D807B9F7DF91CF91089566
:101D90000F931F93CF93DF938901823028F5611150
:101DA00023C0423008F521153C4531F420917000E4
:101DB00030917100232BC1F094E0899FE001112440
:101DC00050E0440F551FC40FD51FC157DE4F612F80
:101DD000CE010E94602A602FCE010196DF91CF9143
:101DE0001F910F910C94602ADF91CF911F910F9159
:101DF00008950F931F93CF93DF938901823048F5A5
:101E0000663038F54F3028F521153C4531F42091E6
:101E1000700030917100232BE1F0C42FD0E0CC0F83
:101E2000DD1F9EE1699FC00DD11D112494EB899F98
:101E3000C00DD11D1124612FCE0187960E94602A0A
:101E4000602FCE018896DF91CF911F910F910C9456
:101E5000602ADF91CF911F910F910895CF92DF9269
:101E6000EF92FF920F931F93CF93DF930091700037
:101E70001091710081E090E0909371008093700068
:101E800092EEE92E96E0F92EC0E06701D0E0F6016F
:101E9000259134914D2F6C2F80E00E94F90E82E045
:101EA000C80ED11CDF5FDF3091F78EE1E80EF11C28
:101EB000CF5FC63051F7EAEDF6E02591349140E06E
:101EC00060E080E00E94C80EECEDF6E025913491D0
:101ED00041E060E080E00E94C80E86E9C82E87E0FD
:101EE000D82ED0E07601C0E0F701259134914C2F37
:101EF0006D2F81E00E94F90E82E0E80EF11CCF5FA9
:101F0000CF3091F78EE1C80ED11CDF5FD63051F78C
:101F1000EEEDF6E02591349140E060E081E00E9432
:101F2000C80EE0EEF6E02591349141E060E081E0FA
:101F30000E94C80E0E94950E1093710000937000CD
:101F4000DF91CF911F910F91FF90EF90DF90CF9095
:101F50000895CF93C82F6FEF81116AE483E290E078
:101F60000E94602A6FEFC1116AE284E290E00E9451
:101F7000602A6FEFC1116BEC85E290E0CF910C9479
:101F8000602A80E00E94A90F60E086E290E00E9453
:101F9000602A0E942E0F0E94B80E81E00C94A90FB7
:101FA000AB01BC0188E190E00C94712AE6E0F2E01C
:101FB0008081887F81608083818183708066818356
:101FC00082818C7F82838CE0809375006091060211
:101FD0007091070280910802909109020C94D00F31
:101FE000E6E0F2E080818E7F80836091060270914E
:101FF000070280910802909109020C94D00FE6E04C
:10200000F2E0808181608083609106027091070216
:1020100080910802909109020C94D00F6AEE7EEF35
:1020200090E080E00E947D2A60E082E090E00E94E3
:10203000602A60E083E090E00E94602A1092F30240
:1020400060E084E090E00E94602A60E082E290E03C
:102050000E94602A60E085E090E00E94602A60E0D3
:1020600086E090E00E94602A6FEF87E090E00E9497
:10207000602A40E050E0BA0188E090E00E94712AB6
:1020800060E08DE090E00E94602A40E050E0BA01FC
:1020900088E190E00E94712A60E087E190E00E9470
:1020A000602A40E050E0BA018CE190E00E94712A81
:1020B00070E060E080E290E00E947D2A0E94D60FEE
:1020C00080E00E94A90F0E94C10F40E050E0BA01D9
:1020D0008FE090E00E94712A40E050E0BA0183E175
:1020E00090E00C94712A90E080E00E945A2A8A3E87
:1020F0009E4F11F40C94510E80E0089578941F9235
:102100001FB61F9211248F939F93AF93BF9380911B
:10211000350290913602A0913702B09138020196B3
:10212000A11DB11D8093350290933602A093370212
:10213000B0933802BF91AF919F918F911F901FBEB6
:102140001F9018959C014FB7F8948091350290919B
:102150003602A0913702B09138024FBF821B930B19
:1021600008952FB7F8948091350290913602A0918E
:102170003702B09138022FBF08958091070282FD87
:1021800004C09091DA01911112C082FF04C08091C5
:10219000D90181110CC081E08093DA018093D901CB
:1021A0000E94B1109093D8018093D701C59A0895E9
:1021B000CF93C82F8091610182FD0CC080915601A0
:1021C0008C1741F00E94B1109093550180935401F7
:1021D000C0935601CF91089580910C0290910D0209
:1021E000892B89F00E94B110209154013091550142
:1021F000AC01421B530B81E020910C0230910D0287
:102200004217530708F480E0817008958091E1013E
:102210009091F402892B90915301892B8093E800CF
:1022200080915601882309F180910C0290910D0252
:10223000892B29F00E94EC1081110E949A0980914B
:10224000E80090915601892B8093E80020E08AEE07
:1022500090E0FC013191CF0131112F5FF0E0803F20
:102260009F07B9F721110E949A09E0913102F0917C
:102270003202309731F00280F381E02D88EE90E059
:102280000994089580917400877F809374009091E1
:10229000F4029D7F9093F40284FF06C08F7E8093AA
:1022A000740082E00E94AC098091740085FF06C032
:1022B0008F7D8093740080E20E94AC090C9406111B
:1022C00090E080E00E94960790E080E00E94800706
:1022D0001092F402109253010C9406118093F502AF
:1022E0000C9460118091F502982F9670963019F435
:1022F00088600C946E11877FFCCF21E030E001C034
:10230000220F8A95EAF720958091F50282230C949A
:102310006E11909152018095892380935201282F4C
:10232000277091F4282F082E000C330B92171306F8
:1023300059F09091610192FD07C08595859585952D
:102340000E947D110C94B2090895CF93C091610150
:10235000C2FB992790F9981799F080FBC2F9C093B6
:1023600061016091600184E090E00E94602A6C2F1E
:1023700082E290E00E94602A82E0CF910C94891161
:10238000CF91089521E030E001C0220F8A95EAF74D
:102390008091F502822B0C946E119091610192FD57
:1023A00010C098E0899F90011124622B6093520124
:1023B0000E94C2110E94B11090935101809350016C
:1023C00008950C94C2118093F3020C946011109242
:1023D000E101EAEEF0E086E0DF011D928A95E9F77F
:1023E0000C946011882341F080959091F402892328
:1023F0008093F4020C9406110895882339F090918B
:10240000F402982B9093F4020C94061108958823FB
:1024100021F00E94A5090C9406110895882321F04B
:102420000E94AC090C9406110895882309F44BC04E
:10243000823871F40E94AC0781FF45C089E30E9495
:10244000CC090E94061189E30E94BF090C94061171
:10245000833859F40E94AC0780FF35C083E50E94A1
:10246000CC090E94061183E5EFCF843859F40E940D
:10247000AC0782FF28C087E40E94CC090E940611A5
:1024800087E4E2CF9CEF980F913AF0F290E2980F38
:10249000983050F4877091E001C0990F8A95EAF75F
:1024A000892F0E94A509D2CF9BE5980F933020F485
:1024B00090E080E00C949607885A873120F490E0F1
:1024C00080E00C9480070895CF93DF93EC010E9485
:1024D0001512CE010E949C0A9E01205E310928300F
:1024E000310510F0CD2B21F4DF91CF910C94071220
:1024F000DF91CF910C94F211CF93C82F882309F468
:1025000084C08238C1F40E94AC0781FD7EC089E39B
:102510000E94CC090E9406112FEF81EE94E0215019
:1025200080409040E1F700C0000089E30E94BF09AD
:10253000CF910C9406118338A1F40E94AC0780FD62
:1025400064C083E50E94CC090E9406112FEF81EE42
:1025500094E0215080409040E1F700C0000083E506
:10256000E5CF8438A1F40E94AC0782FD4EC087E419
:102570000E94CC090E9406112FEF81EE94E02150B9
:1025800080409040E1F700C0000087E4CFCF8CEF9F
:102590008C0F813A68F4EAEEF0E08191C81779F186
:1025A00020E0E03FF207C9F78C2F0E94CC09C0CF92
:1025B00080E28C0F883048F4C77081E001C0880F3A
:1025C000CA95EAF70E94AC09B3CFEBE5EC0FE33014
:1025D00040F4F0E0E058FF4F808190E0CF910C9400
:1025E0009607C85AC73188F4EC2FF0E0EE0FFF1FB2
:1025F000ED57FF4F80819181CF910C9480078C2FF4
:102600000E94BF090E940611CFCFCF9108951F935A
:10261000CF93DF93182FC0912A02D0912B028933D8
:1026200021F0C0912802D0912902812F0E947C12B2
:10263000209731F4812FDF91CF911F910C941512C7
:102640008FE99FE00197F1F700C000002197F0CFDC
:102650000F931F93CF93DF93C42FD22FFC0182815E
:102660008823A1F040932E020E94B11090932D0276
:1026700080932C02C77081E001C0880FCA95EAF7E9
:10268000DF91CF911F910F910C940E1210912E0299
:10269000141339C080912C0290912D020E94A21037
:1026A00020912202309123028217930760F5C0E245
:1026B000CD0F1D17B9F080E2810F883040F41770FC
:1026C00081E001C0880F1A95EAF70E940712C8300E
:1026D00048F481E09D2F977001C0880F9A95EAF722
:1026E0000E940E12802F0E940713C83098F4D770F2
:1026F00081E001C0880FDA95EAF7DF91CF911F9151
:102700000F910C940712C77081E001C0880FCA9521
:10271000EAF7F3CFDF91CF911F910F910895AF9218
:10272000BF92CF92DF92EF92FF920F931F93CF93BE
:10273000DF93EC018AE0A82E2881222309F48CC0C3
:102740002130C9F599818A81913021F422960E9425
:10275000071305C0923029F422960E947C1221961C
:10276000EBCF933021F422960E941512F8CF9430CB
:1027700011F02196F4CF229630E020E0AE014F5FB9
:102780005F4F8053990B8A30910550F021503109E9
:1027900030F38FE99FE00197F1F700C00000F6CF1A
:1027A000A29EB001A39E700D11249C01260F371F1D
:1027B0008981EA01E3CFE22FF0E0EC57FF4FB490BC
:1027C000822F86958695869590E0FC01EC58FF4F08
:1027D000E4902770F12C022E02C0F594E7940A943D
:1027E000E2F731E0E322FF24FC01EC59FF4FC490F3
:1027F000D12C022E02C0D594C7940A94E2F731E09E
:10280000C322DD24FC01EC5AFF4F049110E002C00A
:10281000159507952A95E2F701701127E114F10447
:1028200019F081EE0E947C12C114D10419F086EED9
:102830000E947C128B2D0E940713CD2819F086EE82
:102840000E941512EF2819F081EE0E941512012B3B
:1028500009F485CF8CE27BCFDF91CF911F910F914F
:10286000FF90EF90DF90CF90BF90AF900895CF93FF
:10287000DF93EC010E949C0A9E01205E3109283002
:10288000310510F0209739F40E940E128C2FDF9141
:10289000CF910C947C120E94FD11F8CF662329F091
:1028A0002091F40222602093F4029C0130562115FD
:1028B00040E2340720F0305E2115304108F49927BA
:1028C0000C943714DF92EF92FF920F931F93CF93E4
:1028D000DF937C018B01D42E8091740082FF8CC029
:1028E000C0910402D0910502CE15DF0521F0E1145C
:1028F000F10409F081C0809174008B7F8093740093
:1029000081FD73C08091020290910302A801481BCF
:10291000590B81E0209172003091730042175307E8
:1029200008F480E08170F82E80917400F0FA81F94B
:1029300080937400FE0183E0F695E7958A95E1F7B0
:10294000EE71FF27EE51FE4F20813181AE014F70B5
:10295000552781E090E002C0880F991F4A95E2F761
:10296000FF2009F444C0822B932B918380838091B4
:10297000E10181FF08C08091740080618093740040
:1029800082E00E94A5098091E10185FF08C0809145
:10299000740080628093740080E20E94A5096F2D0C
:1029A000CE010E944E14DD2031F08091250285FF7A
:1029B00002C086FF3BC080912802909129020E94AC
:1029C000400B80910402909105029C013056211524
:1029D00040E2340720F0305E2115304108F4992799
:1029E0000E9464120E9442111DC081E09BCF80951D
:1029F000909582239323B9CFC70199279701305629
:102A0000211540E2340728F0305E2115304108F0EE
:102A1000C7010E94641280910402909105028E15F4
:102A20009F0501F31093030200930202DF91CF91FF
:102A30001F910F91FF90EF90DF9008956F927F921A
:102A40008F929F92AF92BF92CF92DF92EF92FF92BE
:102A50000F931F93CF93DF93CDB7DEB72C970FB6AD
:102A6000F894DEBF0FBECDBF8E010F5F1F4F8CE00D
:102A7000F80111928A95E9F791EBE92E90E0F92E91
:102A8000680166246394712C36EC832E30E0932E1B
:102A9000F70181917F018F3F09F445C0F894E82F39
:102AA000E295EF70F0E021A98F70A30102C0440FFE
:102AB000551F8A95E2F7CA01922F982B91AB92A9E4
:102AC0008095892382AB789400C0E7EBF0E021E0A9
:102AD00030E0B12CA12C41914F3F09F488C0A42FC4
:102AE000A295AF70B0E0D0968C9190E04F7002C08C
:102AF000959587954A95E2F780FD79C0C901A82A86
:102B0000B92A220F331F8E169F0629F7F701319736
:102B100080818F3F11F00E94C30750EA5A95F1F768
:102B2000F601B182A082F2E0CF0ED11C47EBE41691
:102B300040E0F40609F0ACCF4CE050E0B80182E68A
:102B400091E00E942F2AFF24F394009709F4F12CBE
:102B5000892B09F44FC08CE0F801A2E6B1E00190A6
:102B60000D928A95E1F781E0809359010E94B1109E
:102B7000909358018093570180915701909158018B
:102B80000E94A2100597D0F180916201909163019B
:102B90009093C5018093C401809164019091650177
:102BA0009093C7018093C60180916601909167015F
:102BB0009093C9018093C801809168019091690147
:102BC0009093CB018093CA0180916A0190916B012F
:102BD0009093CD018093CC0180916C0190916D0117
:102BE0009093CF018093CE011092590107C090E0DD
:102BF00080E085CF809159018111BECF8091DA01AB
:102C0000882381F08091D7019091D8010E94A21071
:102C10002091750028171906E8F5C5981092DA0179
:102C20001092D9018091250280FF1EC0809174000E
:102C300082FF1AC00E94B11020910202309103025B
:102C4000AC01421B530B209172003091730042176C
:102C5000530750F02AE531E041E0BC0180910402C5
:102C6000909105020E9462148F2D2C960FB6F89455
:102C7000DEBF0FBECDBFDF91CF911F910F91FF90AF
:102C8000EF90DF90CF90BF90AF909F908F907F900C
:102C90006F9008952091070222FFC4CF9091D9012F
:102CA00082FD07C09111BECF81E08093D901C59A02
:102CB000B9CF992309F4B6CF1092D901C598B2CFF4
:102CC0008F929F92AF92BF92CF92DF92EF92FF923C
:102CD0000F931F93CF93DF9300D000D0CDB7DEB713
:102CE0007C01FC0143815481618180810E94050A3D
:102CF00081114AC061E0C7010E94480E8C01F701B2
:102D00008281882361F0F801E65EFC45ED30F10533
:102D100030F4ED55F54D0C94192A0E94FF0F809167
:102D2000060280FF0BC086958370F701928199237C
:102D300009F41FC1823010F40E94BD10F701828196
:102D4000882309F4FAC6C80182519F45409708F0CC
:102D500059C78FEF93E00E944C2A5EEED52ED00E1D
:102D600009EB11E0882309F415C1809152018770A5
:102D700059F0F7018281882339F08091610182FD49
:102D800003C082E00E9489110F900F900F900F9066
:102D9000DF91CF911F910F91FF90EF90DF90CF9037
:102DA000BF90AF909F908F9008950E94F00FB7CF83
:102DB0008091060280FF0DC00E94F00F6091060214
:102DC0007091070280910802909109020E94D00F31
:102DD000A6CF0E94FF0FF2CF0E94D60FA0CF9091F6
:102DE0000602892F86958F5F8370880F997F892BC4
:102DF00080930602982F9670963001F7897F809312
:102E00000602DCCF90910702892F8B7F92FF8460AE
:102E100080930702D3CF20910602322F3695369544
:102E2000369590910702892F83708295880F807E56
:102E3000832B8F5F382F330F330F330F2770232BE4
:102E4000209306028295869583709C7F892BE0CF24
:102E500020910602322F36953695369590910702CD
:102E6000892F83708295880F807E832B8150E2CFDB
:102E700080910702982F96959695969580910802D5
:102E800083708295880F807E892B8436D8F490E0F9
:102E9000019680937500382F330F330F330F209135
:102EA00007022770232B2093070265E096958795EC
:102EB0006A95E1F78370909108029C7F892B80933B
:102EC00008027CCF84E090E0E4CF80910702982F45
:102ED0009695969596958091080283708295880FB5
:102EE000807E892B853018F08150990BD2CF84E6F3
:102EF00090E0CFCF8091080282FF02C08B7FDFCFAE
:102F00008460DDCF80910802982F969596959695CE
:102F1000809109028295880F807E892B8837A8F4DA
:102F2000865F282F220F220F220F909108029770A0
:102F3000922B909308028295869587709091090252
:102F4000987F892B8093090239CF88E7EACF809157
:102F50000802982F969596959695809109028295EC
:102F6000880F807E892B843110F08A50DACF84E17B
:102F7000D8CF882309F4E2CEDFCE0115F4E01F0795
:102F800009F4F3CEC8010E944C2A811101C0DA94E1
:102F90000F5F1F4FD110F1CF19821A821B821C8242
:102FA000CC24CA9448012FEF821A920AC8010E94C9
:102FB0004C2A89831A82882309F4D7CE813009F0FC
:102FC00048C0580132E0A30EB11CC4010E944C2A33
:102FD000982E8A83882309F4C8CEC5010E944C2A02
:102FE000D82E8FEF890D833068F4580143E0A40E8A
:102FF000B11CDB82DD2021F0CE0101960E948F13EF
:103000008501D0CF54E09512FBCF580184E0A80E83
:10301000B11CC80103960E944C2ADD2009F4A5CEFC
:10302000882309F4A2CE8150990BC89E9001C99EB5
:10303000300D1124ED2DE150FF0BCF01820F931FB6
:103040000197F0F2EFE9FFE03197F1F700C00000DF
:10305000F7CFCE0101960E948F135401D1CF81E0AA
:103060000E94C2110E94721180CE81E00E947D11E7
:10307000F9CF82E0FBCF809174008160809374006F
:1030800093C5809174008E7F809374000E944211DA
:103090008BC5809174008F7E013E110531F0053E95
:1030A0001105C1F4809174008F7D8093740080912C
:1030B000740080FF88C5F70182810832110528F568
:1030C0000E31110508F074C00430110580F581112E
:1030D00076C579C5C80190568115E0E29E0720F0BB
:1030E000905E8115904118F78091740082FF6BC546
:1030F0008091270281FD67C52AE531E040E0B601F5
:1031000090E080E00E9462145EC50933110558F416
:103110000D32110518F40B321105C9F690912502F4
:1031200092FDD5CF08C004361105C1F3D0CF9091E0
:10313000250294FDCCCF882309F4A1C09091E10130
:1031400080915601282F292B322F3D7FB1F110920B
:103150000502109204023091250231FD2EC0F801C3
:1031600043E0F695E7954A95E1F7EE71FF27EE51BA
:10317000FE4F98012F70332781E090E002C0880F46
:10318000991F2A95E2F780959095208131818223BD
:1031900093239183808360E0C8010E944E14809144
:1031A00056018D7F0E94D81082E00E948911DDCDEA
:1031B0009091250293FD8BCFBECF36E0F701AAE5B3
:1031C000B1E001900D923A95E1F710925C011092F6
:1031D0005E0110925D01A0900402B09005020A15F4
:1031E0001B05B1F53091250235FF32C040917400C6
:1031F00041FB992490F841FF02C036FF29C040915D
:10320000020250910302B601641B750B4091220229
:103210005091230264177507D8F491FF08C080917C
:10322000740080618093740082E00E94A5098091FF
:10323000E10185FF08C08091740080628093740072
:1032400080E20E94A509692DC5010E944E148DCD12
:103250009091740021FB91F9909374008D7F0E94EE
:10326000D8101093050200930402D0920302C0927A
:1032700002028091740084608093740095CF97015E
:1032800040E0B601C8010E9462146FCD053F8CE595
:10329000180709F466C008F45EC0063FECE51E0797
:1032A00009F465C0F7013281332309F4B7C41092E1
:1032B0002E020330FDE51F0708F065C00A3F2CE52C
:1032C000120730F4C80182509C45449708F060C052
:1032D0000E946A0E909361018093600100315CE569
:1032E000150709F46CC108F0E8C008309CE519071F
:1032F00009F457C108F0B7C00430FCE51F0709F412
:103300003EC108F0A2C002303CE5130709F431C108
:1033100080916001826003301C4509F42DC16091E9
:1033200060011091610184E090E00E94602A612FA9
:1033300082E290E00E94602A0E94E71116CD07E227
:1033400025EE45EE68ED7CE559C406E221EE40EE3F
:1033500063EF7CE553C407E225EE44EE64EF7CE5C1
:103360004DC406E221EE42EE65EF7CE547C407E27C
:1033700025EE46EE66EF7CE541C408E221E045EE2D
:1033800069ED7CE53BC401364DE5140709F4A0CF97
:1033900006318CE5180709F445C40A355DE51507C3
:1033A00009F460C108F03AC101159CE5190709F458
:1033B00047C10E3D1C4509F452C1F70182810081CD
:1033C0001181882309F452C1C8010E94DD0DD82E55
:1033D000682FC8010E94470AB8018D2D0E94C10DB7
:1033E0000E941D088C01882EF701C280D580D294DE
:1033F0003FE0D322809152018770C1F0AC2CCC20E9
:10340000B1F0812F807F803421F080E2800F8830FE
:1034100068F08091610182FD09C082E00E948911FB
:10342000809152018770AA24A3948111A12C912E1E
:1034300092942FE09222FBE0F91508F48FC1E92D58
:10344000F0E0E055F54D0C94192A809160018061FF
:1034500006305CE5150709F48FC008F494C080912C
:103460006001806289C0809160018D7F0C309CE595
:10347000190709F481C070F4809160018C600A30F2
:10348000FCE51F0709F478C008F48FC08091600143
:103490008E7F72C080916001877F0E303CE51307FC
:1034A00009F46AC0809160018B7F0F301C4508F4DD
:1034B00063C0809160018F7E5FC00C3F5CE51507A3
:1034C00009F479C068F504319CE5190709F48BC04B
:1034D00080F40231FCE51F0709F475C0809160019A
:1034E0008F7B03311C4508F447C080916001837FC6
:1034F00043C00A3F3CE5130709F449C008F04DC03A
:1035000005311C4509F00BCF8091600182FB9927A2
:1035100090F921E0922790FB82F990FB83F92CC06F
:1035200001158DE5180709F454C088F480916101F4
:1035300083600E3FECE51E0769F1809161018D7F8C
:103540000F3F1C4538F1809161018C7F23C0023010
:103550002DE5120709F456C008F44EC001361D458A
:1035600009F0DDCE90916001892F8F7E94FF8061FC
:1035700003C080916001816080936001D0CE809112
:1035800060018460F9CF809160018860F5CF8091FF
:103590006101816080936101C2CE8091610182608E
:1035A000F9CF809160018064E7CF0E94E71180919C
:1035B00060018068E1CF809161018E7FEBCF8091C7
:1035C00060018F7DD9CF0E94E711809160018F77D4
:1035D000D3CF80916101982F909591708E7F892B28
:1035E00090FB81F9D7CF0E94E71190916001892F5C
:1035F00097FB87F98058C0CF61E08EE090E00E9491
:10360000602A8DCE60E0F9CF8091F000811104C076
:1036100089E20E94BF0931C385E3FBCF0B35FDE58D
:103620001F0711F10C351D4509F0C7CE80916101CE
:1036300082FB882780F991E089270E94A511BDCEE1
:103640000E94E7113FEF44E35CE0315040405040BE
:10365000E1F700C00000C5980E94610786CB0E9478
:103660000E1083CB81E0E9CF80E0E7CFC8010E9454
:103670001A0AD82EB1CE212F2F70B22E812F807F23
:1036800019F0B29490EFB922CC20A9F0BB2059F0E8
:1036900080E2800F883010F0811007C08B2D0E94CF
:1036A000AC090E940611802F57C08091F402B82AFD
:1036B000B092F402F6CF802F0E941512BB2009F4BD
:1036C0004DC080E2800F883010F0811004C08B2D37
:1036D0000E94A50906C0B0948091F402B822B0926D
:1036E000F4020E9406113AC0312F3F70B32E812F91
:1036F000807F803219F0B29480EFB8228820F1F0F8
:1037000041E0841609F49DC0CC2009F4A6C0DD2058
:1037100009F476C020E0F701408151816281738114
:1037200084810E941F0E8091270281FDBCCFF7018A
:10373000858180FFB8CF8F70858362C080916101E1
:1037400082FF40C0CC20C1F1BB2029F08B2D0E940C
:10375000AC090E94061180E00E947C12E92DE8501D
:10376000FF0B349720F40E94AC070E94960AC80110
:103770000E94770A8111C2C11092F2001092F100EA
:10378000AA20A9F08091520180FD11C0F701128298
:103790008595859585950E94C211C7010E94601686
:1037A000809152018595859585950E947D1160E0F7
:1037B000C7010E94480EE8CA80E00E941512BB2093
:1037C00069F285CFCC2001F1D11004C0809156015F
:1037D0008B2917C051E0D51206C0809156018B2964
:1037E0000E94D810BBCF80912602823078F3D81285
:1037F000EDCF0E949A0980914F01B812B0924F010B
:103800008B2D0E940E12AACFD11006C00E949A09D9
:103810008B2D0E940712A2CF8091260291E0D9122F
:103820000BC0823008F49ACF8091E1018B2109F41A
:1038300095CF0E94B909EACF823040F38D11E6CFCF
:103840008DCFCC2029F0E5E0ED1508F487CFD8CF57
:10385000F4E0FD1508F482CFDBCFDD20C9F2F9E3F7
:103860008F1244C180912A0290912B020E94400B3A
:10387000802F0E94151272CF812F869586958370B6
:1038800061F0813009F06ACFC8019370C11002C0A5
:1038900090E080E00E94800761CFC8019370C11062
:1038A00002C090E080E00E94960758CF812F83707D
:1038B00091F5C11053CF402F429546954770440F64
:1038C000440F802F8F70042E01C0880F0A94EAF7EE
:1038D000202F207104FF07C02FE030E001C0220F2D
:1038E0004A95EAF72095312F369536953370323068
:1038F00069F050F44091F302313029F0822B842397
:103900000E94E3112BCF842B822BFACF282B80919E
:10391000F3028227F5CF8695CC2011F0812F81709C
:10392000882309F41BCF402F429546954770440FDA
:10393000440F802F8F70042E01C0880F0A94EAF77D
:10394000202F207104FF07C02FE030E001C0220FBC
:103950004A95EAF72095312F3695369533703230F7
:1039600069F050F44091F502313029F0822B842324
:103970000E946E11F3CE842B822BFACF282B8091DC
:10398000F5028227F5CF212F2F70B22ECC2029F0FF
:10399000822F0E94C211802F34CF802F0E940712E5
:1039A0008B2D0E947D11DACE802F32EF8316B1F17C
:1039B000381570F040EF8416D1F051EF851691F074
:1039C000CC2009F48EC0D1106ECE812F8F712AC009
:1039D00093EF891651F1E4EF8E12F2CF80916101DD
:1039E00082FF2FC0812F8F71CC20D9F21BC0CC2039
:1039F00081F0F4E0FD1508F4B1CE212F2F7181E0A4
:103A000090E001C0880F2A95EAF79091F502892786
:103A1000AFCF25E02D1508F4A1CEEFCF812F8F7108
:103A2000C110BFCF0E94C21199CE80E0CC2009F412
:103A30009FCF81E0912F9F7101C0880F9A95EAF77F
:103A400097CF809126028230A0F180914F01CC2047
:103A5000F1F00E94A509809152018770843041F4F1
:103A60000E94B209812F8F710E947D11A12C76CE08
:103A700080912602D816D0F7312F3F71B32E832FB5
:103A80000E94C21163E08B2D0E94CD11EFCF0E94E6
:103A9000AC0980912602D81640F00E94B2090E941B
:103AA000B90964E0812F8F71EFCF81E00E94891105
:103AB000DDCFCC2059F0412F4F71B42E842F0E94BE
:103AC000C21163E08B2D0E94CD1148CE81E00E948F
:103AD000891151E05D1508F041CE82E00E94891104
:103AE0003DCEDD2041F0893309F4BCCE809128021F
:103AF00090912902BBCE812F8F7153CFCC2019F02A
:103B0000D1103ACE3DCED11037CE20E0F701408122
:103B100051816281738184810E941F0E80912702EE
:103B200083FF2ACE8091F1009091F200029709F074
:103B300023CE802F0E9407131FCE0031FFE51F0701
:103B400009F493CA01312FE5120709F492CA809152
:103B5000250280FF38C00E94B1106C01F7018281FC
:103B6000882309F496CA8091740082FF08C02AE570
:103B700031E040E0B60190E080E00E9462140B3139
:103B8000FCE51F0709F477CA0C312CE5120709F48C
:103B900078CA90917400892F8E7F90FF81600A31DE
:103BA0003CE5130709F470CAC8019056811540E23C
:103BB000940728F0905E8115904108F078CA109221
:103BC000050210920402033FFCE51F0709F4BDCB78
:103BD00008F05CCB083D3CE5130709F4B0CB093D88
:103BE0004CE5140709F4C9CB073D5CE5150709F05E
:103BF00059CB06E221EE41EE67ED7CE5C7010E945C
:103C00002813B3C800313FE5130709F428CA01316E
:103C10004FE5140709F09BCF82E022CA06311C450C
:103C200009F0CBCB8091E101982F9A7A2091240260
:103C300020FF04C0482F447409F090E021FF04C025
:103C4000482F417109F090E022FF04C0482F4878C6
:103C500009F090E023FF03C0827209F090E0332363
:103C600009F4D2CC81E0911101C080E08093F00092
:103C700089E2911185E30E94CC090E94061175C862
:103C8000BF92CF92DF92EF92FF920F931F93CF9349
:103C9000DF9380911C01807F61F48091190188235A
:103CA00041F0C0914E0186E0B82E80911D018C1329
:103CB0000AC0DF91CF911F910F91FF90EF90DF909D
:103CC000CF90BF900895F0901701E0901801C09038
:103CD0001A01D0901B01A6016E2D8F2D0E94050A9E
:103CE000D0E081113DC0BC9E8001BD9E100D11240D
:103CF000F801E25EFE4F81818E1132C080818F110A
:103D00002FC0828181112CC0E380F480EC18FD0863
:103D100060E087E191E00E94480E8091220290913C
:103D20002302E816F906E0F480911C018F7080618F
:103D300080931C01F801ED5DFE4F80818F708061E2
:103D4000808387E191E00E946016DF91CF911F91FF
:103D50000F91FF90EF90DF90CF90BF900C94100ADE
:103D60002196C770A2CF3F924F925F926F927F923F
:103D70008F929F92AF92BF92CF92DF92EF92FF927B
:103D80000F931F93CF93DF93CDB7DEB761970FB635
:103D9000F894DEBF0FBECDBF8C0185E0F801DE01D7
:103DA0001D9601900D928A95E1F7D8014C901196DD
:103DB0005C9011971296EC9012971396CD90DC9030
:103DC00060E087E191E00E94480E87E1A82E81E043
:103DD000B82E80901A0190901B01A40160911801E7
:103DE000809117010E94050A811197C1F090190175
:103DF000F601E819F9094F0160E0FF2009F443C119
:103E0000C5010E94480E60902202709023023090FB
:103E10001C018614970408F0F8C040911A015091D3
:103E20001B01B0901701A0901801832D807F6A2D8F
:103E300009F0A3C08B2D0E94050AFE2C811131C010
:103E4000D80111968C9111978A112BC08C918B11EE
:103E500028C0E11026C0832D8F70806180931C01E3
:103E600087E191E00E94601680911C01F801858332
:103E70008F2D61960FB6F894DEBF0FBECDBFDF91D8
:103E8000CF911F910F91FF90EF90DF90CF90BF9057
:103E9000AF909F908F907F906F905F904F903F90EA
:103EA0000895F4EF6F16F1E07F0620F48091270269
:103EB00080FF21C0A601652D842D0E94050A811175
:103EC00018C081E08E2580FF16C04E2D652D842DF3
:103ED0000E94E509882379F087E191E00E9460164D
:103EE00086E0E7E1F1E0DF011D928A95E9F7F12C28
:103EF000BFCF80E0E8CFA601652D842D0E94050A82
:103F0000811124C081E08E25B82FB170CB2E80FFA7
:103F10002BC04E2D652D842D0E94E509D82E8111D0
:103F200023C04D865E868D859E850E940C0E292FAE
:103F300022952F70223060F0243088F49F7061F059
:103F4000F8019581907F41F4FD2C92CF80E0DCCF89
:103F50009F7011F08823C1F3805E8830A8F3C801F8
:103F60000E946016DC2CF0CFEE2009F481CF809106
:103F70001C01816080931C01BACF8B2D0E94050A21
:103F8000811119C0D80111968C9111978A1113C013
:103F90008C918B1110C0E1100EC015963C92C80197
:103FA0000E94601686E0F801A7E1B1E001900D9251
:103FB0008A95E1F75DCFC8010E94180E882309F1A8
:103FC000EE20F9F080911C01803270F020911701F1
:103FD0003091180138872F831986DB86CA868C8733
:103FE000CE0107960E94601686E0F801A7E1B1E0D5
:103FF00001900D928A95E1F70E94401EFF24F394F0
:1040000037CFC8010E946016F9CF832D807F09F455
:1040100063CF909017018090180140911A01509140
:104020001B01682D892D0E94050A811113C0F8011A
:10403000818188110FC0808189110CC0E1100AC0F4
:104040003582C8010E94601686E0D5011D928A95CE
:10405000E9F70ECFC8010E94180E882391F2EE20D6
:1040600081F280911C01803208F4BECF20911701AB
:10407000309118013A8329831B82DD82CC828E83A2
:10408000CE010196AFCF87E191E00E94480E80916A
:1040900022029091230288169906B0F6FE2CEE209B
:1040A00009F4AFCFE0901701D090180140911A01A8
:1040B00050911B016D2D8E2D0E94050A81111FC08C
:1040C000F80181818D111BC080818E1118C08091F3
:1040D000270282FD67CF90911C0190FD63CF907FF6
:1040E00009F460CF80911C018583903F09F457CF7C
:1040F000982F907F905F8F70892B858350CFC80158
:104100000E94180E811170CF80911C0181608093F4
:104110001C01C8010E946016ABCEEE2009F471CFDD
:10412000C8010E94180EF82E882309F46ACF86E091
:10413000F801A7E1B1E001900D928A95E1F7809135
:104140001701909118010E940C0E0E94401E90CE03
:104150001F93CF93DF93CDB7DEB767970FB6F89471
:10416000DEBF0FBECDBF942F4B8B252F5C8B6D8B8D
:104170007E8B8F8B4E895F89622F892F0E94050A63
:10418000811109C08091F1009091F2000196909305
:10419000F2008093F1008D8981111092F4021A8A45
:1041A000198A85E0FE017396DE011D9601900D923D
:1041B0008A95E1F78091610182FD1EC080910C0219
:1041C00090910D02892BC1F00E94B11020915001F5
:1041D00030915101821B930B20910C0230910D0202
:1041E0008217930720F08091520182FF76C00E94CF
:1041F000EC1081110E949A0986E0FE013D96DE01D5
:10420000179601900D928A95E1F7CE0107960E94CC
:10421000B31E811111C086E0FE013796DE011196B2
:1042200001900D928A95E1F74A855B8568858F81BB
:104230000E94050A882389F016E080914E01909132
:104240001D01891337C067960FB6F894DEBF0FBE05
:10425000CDBFDF91CF911F91089520911D0130E0D6
:10426000C90101968770992740914E014817190698
:1042700099F096E0929FD001939FB00D1124A25E19
:10428000BE4FFE01319601900D929A95E1F7809311
:104290001D010E94100AD0CF0E94E71110921D014B
:1042A00010924E0186E0E7E1F1E0DF011D928A9570
:1042B000E9F7C2CF819FC0011124825E9E4F0E9408
:1042C000B31E882309F4BFCF80914E0190E0019680
:1042D0008770992780934E01B0CF82E00E948911A8
:1042E00086CFCF93DF9300D000D00F92CDB7DEB74B
:1042F0009093D4018093D301811520E2920748F472
:104300000F900F900F900F900F90DF91CF910C9422
:1043100064128EEF89838A831B820E94B1108160B0
:10432000782F9D838C8349815A816B818D810F9079
:104330000F900F900F900F90DF91CF910C94A820C9
:10434000CF93DF9300D000D00F92CDB7DEB790931C
:10435000D4018093D301811520E2920748F40F9095
:104360000F900F900F900F90DF91CF910C94371416
:104370008EEF89838A8381E08B830E94B1108160F4
:10438000782F9D838C8349815A816B818D810F9019
:104390000F900F900F900F90DF91CF910C94A82069
:1043A000BF92CF92DF92EF92FF920F931F93CF9322
:1043B000DF93B82EC090F5028091F302C82AC7E0BF
:1043C000D0E0D12CF12CE12CD701C6010C2E04C079
:1043D000B695A795979587950A94D2F780FF1FC049
:1043E0004B2D60E08C2F0E94690D8C01813091056E
:1043F000B1F00E94A0218FE39CE90197F1F700C082
:104400000000C8010E94712181E0DF91CF911F91CE
:104410000F91FF90EF90DF90CF90BF90089521977C
:1044200098F64B2D60E080E00E94690DEC010E943F
:10443000A0218FE39CE90197F1F700C00000CE01B5
:10444000E1CFCDB7DEB766970FB6F894DEBF0FBEEB
:10445000CDBF0E94B1109093D2018093D10184B757
:10446000806884BF84B7806884BF81EC97E09093B4
:10447000E7008093E6000E94430D85B7886085BF02
:104480008BB780688BBF8BE48093060780933B07D4
:10449000809312078AE58093050780933A078093FB
:1044A00011078B9A80E0815009F09FC28B98789415
:1044B0008BE083BF8AEF8CBF82E089BF0E94510EE0
:1044C000811102C00E94C10F01EB10E077EBE72ED3
:1044D00070E0F72EF80181918F018F3F11F00E945B
:1044E000C307E016F106B1F707EB10E066ECE62E25
:1044F00060E0F62ED8018D918D018F3F11F00E9462
:10450000C307E016F106B1F78CE0E4ECF1E0DF015F
:10451000282F1D922A95E9F7E2E6F1E0DF011D92CE
:104520008A95E9F70E947310811102C00E940E1053
:1045300082E090E00E944C2A8093B5010E946A0EAE
:1045400090936101809360010E941E15EFE3FCE9E6
:104550003197F1F700C000000E941E158091C40140
:1045600080FF08C06FEF7FEF90E080E00E947D2A1F
:104570000E94610783E090E00E944C2A0E94E311B0
:10458000D09AD8980E947310811102C00E940E1018
:1045900088E190E00E94542A60930602709307021B
:1045A0008093080290930902209107022695269590
:1045B00026953091080233703295330F307E232BCD
:1045C00020937500672B682B692B11F0211102C015
:1045D0000E94D60FC598BD9A0E94BD101092B201DC
:1045E00080E4809371010E94F0286BE070E08BE121
:1045F00091E00E94CD0A892BE9F58091B20165E036
:1046000070E081FDFAC186E191E00E94CD0A892B1C
:1046100089F56DE070E084E091E00E94CD0A892B7D
:1046200049F50E947407605A75418F4F9F4F609300
:10463000DB017093DC018093DD019093DE01E8EFF4
:10464000F2E080E094E0DF019C011D9221503040B7
:10465000E1F7F093F906E093F8068FEF9FEF909360
:10466000F7028093F60281E08093E0018093DF01FE
:104670001092B301A298AA9A8F98979A83B382FB5B
:10468000882780F920B330E0220F232F221F330B1D
:1046900092E0232B09F490E0892B8093700180E64F
:1046A00090E090933202809331023FEF40E762E066
:1046B000315040406040E1F700C0000022242394C4
:1046C000312C809120071091D001882309F498C1E2
:1046D000109220070E94B1109093D2018093D101D3
:1046E000112361F01092D0010E94E7110E94AC07E3
:1046F0000E94960A8091D001811184C10E944A0BC8
:104700008091EB02882309F43FC18091050784FF63
:104710003BC10E941E15E82E81110E947407A4EC73
:10472000B1E0E6EBF1E010E000E0602F8D919D91AB
:10473000219131912817390709F48FC1282739278A
:1047400070E0CC24C394D12CA9014C215D21452BD0
:1047500009F47DC179876A879C012C213D2191E074
:10476000232B09F490E09B870E94B1108160782F81
:104770009D878C8749855A856B858D850E94A820E9
:10478000000F111FF801EA54FE4F80819181C82665
:10479000D926D182C082E0917001EE0FEE0FE09336
:1047A000700183B382FB882780F98B8B1C8A80B3CE
:1047B00090E0880F892F881F990B009711F082E0F5
:1047C00090E0AB89BC898A2BE82BE0937001EF70F5
:1047D000F0E0EA53FF4F808190916F01890F809341
:1047E0006F01F12C843054F080916E018F5F8093C3
:1047F0006E0181E00E94D021FF24F39480916F012B
:104800008D3F54F480916E01815080936E0180E061
:104810000E94D021FF24F39480916F01082E000C98
:10482000990B64E070E00E94052A80936F01F110FB
:104830000E9474078091E001882309F494C01091CC
:104840007101812F90E0880F991F88509D4F9093A0
:10485000F9068093F80686E291E00E949606B9E098
:104860001B9FC00111248115E4E09E0714F090E025
:1048700080E088509D4F9093F9068093F80686E774
:1048800092E00E9496062091F6023091F7022115DF
:10489000310509F44FC08091B30181114BC0082F3D
:1048A00010E02101082E02C0440C551C0A94E2F7C6
:1048B000A90144215521452B09F4E6C09091B2018C
:1048C00090FDE4C0806B80936D0010926E0080E1DB
:1048D00080936F0024E630E044E050E06CE670E046
:1048E00088E70E949C29892B29F5A801B6E0440F8E
:1048F000551FBA95E1F78091B20180FDEAC048509A
:104900005D4F04E610E020E430E060E488E70E94B8
:10491000C229892B79F40E94180BC20180959095C9
:104920004090F6025090F702482259225092F70226
:104930004092F6028091DF018823A9F00E9474075B
:104940000091DB011091DC012091DD013091DE014D
:10495000601B710B820B930B6F3F7F4F8F4F9F47F5
:1049600010F40E94FD0AE11001C0F1100E94180B22
:104970000E94AC079091B401891731F00E94AC07F6
:104980008093B4010E94960A0E94E80C0E944A0B90
:104990008091EB02882309F494CE80913A0784FF3A
:1049A00090CE8091E102803209F08BCE0091D5014A
:1049B0001091D6018091C1020115110509F40DC1B4
:1049C0008E3F09F054C18091C202833020F085509F
:1049D000833008F04CC1E091C202EE3008F047C1CC
:1049E000F0E0E454F54D0C94192AA895AFE9BFE026
:1049F0001197F1F700C0000056CD81E191E005CE9E
:104A0000112399F080E00E94960A0E94FD0A0E94FC
:104A10001E15E4ECF1E081919191892B09F081C39D
:104A200081E0E03DF807B9F74CCE8091D10190913B
:104A3000D2010E94A210069708F460CE81E0809314
:104A4000D00180E00E94960A0E94FD0A53CE7F5F4B
:104A5000CC0CDD1C7F3009F077CE0F5F1F4F063086
:104A6000110509F062CE8FEF8E878F87188A0E941A
:104A7000B1108160782F9A8B898B4E855F8568890C
:104A80008A890E94A82087CE8F5F09CFC80126E0BF
:104A9000880F991F2A95E1F79C01220F232F221FCF
:104AA000330B3195220F220F220F53E096958795F5
:104AB0005A95E1F780958870806B80936D00822F06
:104AC0008F7080936E0022952F70206120936F006D
:104AD00001CF80E4A2E7B1E01D928A95E9F7EEEDFF
:104AE000F0E0FE8BED8B06ED10E0A7E08A2EAD899D
:104AF000BE898D91BE8BAD8BF80121918F01240F62
:104B0000352F311D28503D4FE82FF0E0EE58FE4F75
:104B100090E080E0682C681A922C082E01C0990C55
:104B20000A94EAF76901A12CD601BD906D01B92064
:104B3000662D6A196770762E062E000C770BBB2D3A
:104B400001C0BB0F7A94EAF77B2E719561957109CC
:104B50006770772701C0B6946A95EAF77B28B08022
:104B60007B287082A39468E0A612DECF019631966E
:104B70008830910579F686EE90E0AD89BE898A1776
:104B80009B0709F0B4CFF2E7CF2EF1E0DF2E04E669
:104B900010E028E030E0A60160E488E70E94C22926
:104BA000892B09F0C7CEEAEAF1E0EC15FD0509F41E
:104BB000B2CE80916D008F5F80936D0024E630E06F
:104BC00044E050E06CE670E088E70E949C29B8E081
:104BD000CB0ED11C892BD9F2ADCE8D3009F49BC000
:104BE000B8F4843009F474C040F4823059F108F00C
:104BF0005BC0813009F18FEFC4C2863009F488C0F0
:104C000008F476C08C30B9F780E18093C2022FC0DF
:104C1000813109F4E6C040F48F3009F4B0C008F4E3
:104C20007FC00E94B80E23C0833109F40AC108F482
:104C3000DAC08E3F01F7CFCE1092C20289E0809396
:104C4000C30215C08091C202823009F4BCC2833015
:104C500089F0813081F60E9474070E941F2A6093B8
:104C6000C3027093C4028093C5029093C60201EC04
:104C700012E036C28091700090917100892BB9F3D7
:104C8000E4ECF1E0A1ECB2E08081918132961296E1
:104C90009C93129713968C931397129620ED31E004
:104CA0002E173F0789F7E3CF8091C202823009F0C7
:104CB000A2CF6091C3027091C4028091C50290910D
:104CC000C6020E941F2A86E290E00E94602ACFCF8F
:104CD0004091C4026091C3028091C2020E94920D71
:104CE0009827892798279093C6028093C502BFCF43
:104CF0002091C5023091C6023227232732274091E6
:104D0000C4026091C3028091C2020E94F90EAFCF2B
:104D10000E942E0FACCF82E08093C20287E48FCF37
:104D20000091C40210E00D31110508F0A0CFE09011
:104D3000C202F090C302FE24EF24FE24E1ECCE2E4A
:104D4000E2E0DE2E0F531D4FC70187549E4F0C1516
:104D50001D0509F48CCF37E4E31632E0F30660F466
:104D60000E944C2AD60114968C93FFEFEF1AFF0A8B
:104D70002FEFC21AD20AE8CFF6011482F6CF809143
:104D8000700090917100892B09F471CFE090C402FA
:104D9000F12C3DE1E316F10408F069CF0091C20265
:104DA0001091C30210270127102771ECC72E72E063
:104DB000D72EE00EF11EC80187549E4FE016F10673
:104DC00009F455CF073442E0140728F4D6011496AD
:104DD0006C910E94602ABFEFCB1ADB0A0F5F1F4F56
:104DE000EACF82E012CF0091C40210E00D3111052C
:104DF00008F03DCFE090C202F090C302FE24EF2401
:104E0000FE2461ECC62E62E0D62E0F531D4FC70163
:104E10008796C016D10609F42ACFE8E6EE16E1E03F
:104E2000FE0660F40E944C2AD60114968C93FFEF84
:104E3000EF1AFF0A2FEFC21AD20AE9CFF601148245
:104E4000F6CFE090C402F12C3DE1E316F10408F046
:104E50000ECF0091C2021091C30210270127102724
:104E6000083641E0140708F002CF88E691E0801B85
:104E7000910B8E159F0508F4FACE51ECC52E52E029
:104E8000D52EE00EF11EC8018796E016F10609F452
:104E9000EECE083661E0160728F4D60114966C9120
:104EA0000E94602ABFEFCB1ADB0A0F5F1F4FEBCFC8
:104EB00088E0E8E7F0E0DE01119601900D928A9516
:104EC000E1F780E2E1ECF2E011928A95E9F784E003
:104ED0008093C10288E0FE013196A5ECB2E001901A
:104EE0000D928A95E1F7C3CE84E18093C10283E0FD
:104EF0008093C2021092C3021092C402B8CE809175
:104F0000C402682F70E0762F66278091C302860F57
:104F1000972F911D092E000CAA0BBB0B45E0880FA3
:104F2000991FAA1FBB1F4A95D1F7AC01BD01405E76
:104F30005F4F6F4F7F4F481759076A077B0708F489
:104F400096CE8431F3E09F07A105B10508F08FCE1E
:104F5000453123E052076105710520F044E153E03B
:104F600060E070E0481B590BBC016A537C4F81EC38
:104F700092E00E94262A7BCE1091C3020091C402C7
:104F800040E0602F812F0E94690D9827892798277C
:104F90009093C2028093C10241E0602F812F0E9452
:104FA000690D9827892798279093C4028093C3029C
:104FB0005ECE2091C6023091C702322723273227C6
:104FC0004091C5026091C4028091C3020E94C80E44
:104FD0004ECE4EE150E06FEF70E083EC92E00E9425
:104FE000452A809170008093C1020093C2023FCE97
:104FF0003092D6012092D50182E390E09093C301D4
:105000008093C2010E94B11032CE809170008093D3
:10501000C1020093C2028091C20111CE0091C3026D
:105020001091C40240E250E06FEF70E081EC92E03A
:105030000E94452A2AE438E090E080E0AC014E5F0F
:105040005F4F4132510508F012CEF901659174911C
:105050000617170730F48F539D4FDC016D937C9337
:10506000CA01285F3F4FB8E02A393B0739F7FFCD27
:105070002091C3023091C4028AE498E0FC0145917A
:1050800054912417350709F466C00896E8E08A3978
:105090009E07A1F7B0CD8091C3029091C4020AE4AB
:1050A00018E0F801259134918217930709F46CC038
:1050B000085F1F4F2AE938E02017310791F79BCD91
:1050C0000E94950ED4CD8091C3028111D0CD80E293
:1050D000A1ECB2E01D928A95E9F7C9CD0E944A0B76
:1050E0008091110784FFFACF41E157E068E0C801E1
:1050F0000E94940C085F1F4FB2E0013E1B0781F72E
:105100008091110784FF0AC041E157E060E090E020
:1051100080E00E94940C1092E102D3CA0E944A0BD4
:10512000EFCFF89421B3939A822F8C6081BB92B316
:105130003CE0932792BBEFE7F8E341E0E150F04019
:105140004040E1F700C0000082B3832782BB21BB4F
:1051500093987894B6CA9C012E5F3F4FF901459110
:1051600054914032510508F046CDF90145915491D2
:10517000FC0134966591749182EC92E00E943C2A85
:1051800080E08093C10273CDC8010296FC01259195
:1051900034912D31310508F02ECDFC01459154910B
:1051A000F80134968591949165EC72E00E943C2A56
:1051B0000E94780EF801369685919491009701F33C
:1051C000FC010995DDCF86E290E00E944C2A109206
:1051D000C3021092C4021092C5028093C60247CD4A
:1051E00011B88CE080B985B3836085BB86B78460D5
:1051F00086BF86B7816086BF86B7806486BF089504
:105200009F92AF92BF92CF92DF92EF92FF920F9355
:105210001F93CF93DF93B82EEB010E94B1106C0166
:10522000EE24E394F12CC431D10560F025E0E22EA8
:10523000F12CCF3FDC0731F0CE0164E170E00E9439
:10524000F1297B0184EAA82E94E8992E16BEA6BE09
:105250000E94B1108C0106B607FE0BC081B1887F99
:10526000883031F181B1887F803111F10FEF1FEF6C
:1052700009C00E94B110801B910B8E159F0558F339
:105280000EEF1FEFCF3FDC0709F3C6010E94A2100B
:105290008C179D07D8F2C801DF91CF911F910F9114
:1052A000FF90EF90DF90CF90BF90AF909F900895C8
:1052B000B3B896BE0E94B1108C0106B607FE09C0B5
:1052C00081B1887F883111F0803481F610E000E0F0
:1052D000E2CF0E94B110801B910B8E159F0568F3E1
:1052E000CFCF0F931F93CF93DF93EB0183B984E864
:1052F00086BF0E94B1108C0106B607FE10C021B116
:10530000287F81E090E0283211F490E080E09195D0
:1053100081959109DF91CF911F910F910895CF3F12
:10532000DC0751F30E94B110801B910B8C179D0775
:1053300018F38EEF9FEFEECFCF92DF92EF92FF92B6
:105340000F931F93CF93DF936B018A017901B9010A
:105350000E940029E6010C0D1D1DC017D10759F44C
:1053600024E926BFDF91CF911F910F91FF90EF901D
:10537000DF90CF90089597FDF3CFB70189910E94F8
:105380007129EBCFCF92DF92EF92FF920F931F9391
:10539000CF93DF93C62F6A017901B8010E940029DB
:1053A00097FD0CC0B8018C2F0E947129E601EC0C0E
:1053B000FD1CCE15DF0511F097FF0BC024E926BFB9
:1053C000DF91CF911F910F91FF90EF90DF90CF90E1
:1053D0000895B80189910E947129EBCF84E986BFB5
:1053E0000895AA1BBB1B51E107C0AA1FBB1FA6172C
:1053F000B70710F0A61BB70B881F991F5A95A9F77E
:1054000080959095BC01CD01089597FB072E16F469
:10541000009407D077FD09D00E94F12907FC05D040
:105420003EF4909581959F4F0895709561957F4FBB
:105430000895EE0FFF1F0590F491E02D0994692760
:10544000962769277827872778270895FB01DC01AD
:1054500002C005900D9241505040D8F70895FB01CD
:10546000DC0104C08D910190801921F4415050401D
:10547000C8F7881B990B0895FB01DC0102C001905D
:105480000D9241505040D8F70895DC0101C06D9352
:1054900041505040E0F70895E199FECF9FBB8EBB8D
:1054A000E09A99278DB30895A6E1B0E044E050E07A
:1054B0000C94852AA8E1B0E042E050E00C94852AE3
:1054C000262FE199FECF9FBB8EBBE09A01970DB2CC
:1054D000021631F02DBB0FB6F894E29AE19A0FBE96
:1054E00008950396272F0E94612A0E94602A252F83
:1054F0000E94612A242F0C94612A0196272F0E9472
:10550000612A0C94602ADC01CB01FC01E199FECFF9
:1055100006C0FFBBEEBBE09A31960DB20D92415032
:105520005040B8F70895F894FFCF820A820A8B0A98
:105530008B0A8D0A8B0A8B0A8B0A820A820A920ACC
:105540008B0A8B0A920A8D16D516D816EC16EF1612
:1055500002170B1728177A178217A717381765171E
:105560003B1B3B1B741B741B3C1CAE1BAE1BAE1BBE
:10557000561CC31CD41CD41C582774277F27BC2757
:10558000D927E927F827052837260E2838284B2859
:045590006028632804
:105594005E07170D5D07E40CE00C5C0700B000101B
:1055A4000100AF00010CFF5A2D493AE8F51C08A18F
:1055B400818283E200E900EA00B500B600B700CDBD
:1055C400008301CC008A0192019401210223022468
:1055D400022502260227022A02B300B4006F0070DB
:1055E4000036969794379591929360616263640054
:1055F40001050635343300FF0100010000FFFF0000
:1056040000010001FF00000810182028303838304D
:0656140028201810080018
:00000001FF
