:100000000C9493030C94B0030C94CB030C94B003A6
:100010000C94B0030C94B0030C94B0030C94B00394
:100020000C94B0030C94B0030C94A2200C94B00375
:100030000C94B0030C94B0030C94B0030C94B00374
:100040000C94B0030C94B0030C94B0030C94B00364
:100050000C94B0030000000000000000000000004D
:100060000000000000000000000000000000000090
:100070000000000000000000000000000000000080
:100080000000000000000000000000000000000070
:100090000000000000000000000000000000000060
:1000A0000000000000000000000000000000000050
:1000B0000000000000000000000000000000000040
:1000C0000000000000000000000000000000000030
:1000D0000000000000000000000000000C30608004
:1000E0000000000000000000000000000000000010
:1000F0000000000000000000000000000000000000
:1001000000000000000000000000000000000000EF
:10011000000000000000000000000020C30618E1FD
:10012000030CB0600000000000C0000000807800F8
:100130000000E01C0000C07C000000001CE000008B
:10014000047880000038F8F8F0F0E0C0C08080004B
:1001500000000000000000000090FF1F3FFE3E7FF7
:10016000FE7C7F7C3C2020E07C4340C0F887808080
:10017000E01E0100C07C03000000000000011EE042
:1001800000000778808083BFFFFFE3C1C1C1C1F7D2
:10019000FEFEFC7800001090884C64221211080CBE
:1001A0000700000000003C03008078070000E01E0C
:1001B0000101C13D070202F20E0202067EC20203E5
:1001C0001FE1010107788000033FFFFFFFFF7F3F32
:1001D0000F03000002030100000000000000000007
:1001E000000000000000000000070000201E0100C9
:1001F000C07C070000F00F000000000000077CC07A
:1002000000011EE0000007380000030703010000A2
:1002100000000000000000000000000000000000DE
:1002200000000000000000000000000000000000CE
:1002300001000000030000000000000000000003B7
:1002400000000001000000000000000000000000AD
:10025000000000000000000000000000000000009E
:10026000000000000000000080808080000000008E
:10027000008080808080808080000000808080807E
:1002800080000000000000000000000000000000EE
:10029000000000000000000000000000000000005E
:1002A0000000000038FEC783FFFF0181030FFEF04E
:1002B00000FFFF010161FF9F01FEEF83FFFF0101CE
:1002C0000307FEF80000000000000000000000002E
:1002D000000000000000000000000000000000001E
:1002E0000000000000000119FFFF3B79F8CF070173
:1002F00000F1FF0E0E0E040000000101FFFF0301DC
:100300000080FF7F000000000000000000000000EF
:100310000000000030F0F0000010F0F000F0F030CD
:100320003030B0F07090C0E2F3F370303163E3C26C
:100330000083C3E3F3F373333360E08203F3F31317
:1003400063F3B1F0E000000010F0F000C0E07030A6
:100350003030E0C000FFFF303030FFFF801F7FE013
:10036000C0C09F1F00071F38FFFF60601080FFFFA5
:10037000000F1F38FFFF60600080FF7F00FFFF005D
:10038000000103FFFF1C78E0C0FFFF00FFFF00003B
:1003900004E6E763607F7F0002467F7F007C7F6327
:1003A00061616060600000007F7F47070F3F7960F8
:1003B000400000007F7F47070F3F7140007F7F4074
:1003C0000000007F7F400000477F7F001F3F70607C
:1003D000607F7F400000000000000000000000007F
:1003E000000000000000000000000000000000000D
:1003F00000000000000000000000000000000000FD
:1004000000000000000000000000000000000000EC
:1004100000000000000000000000000000000000DC
:1004200000000000000000000000000000000000CC
:1004300000000000000000000000000000000000BC
:1004400000000000000000000000000000000000AC
:1004500000000000A900AA004E004B003A003B003B
:100460003C003D003E003F00400041004200430090
:100470004400450046004700A80035001E001F004C
:100480002000210022002300240025002600270050
:100490002D002E0031002A002B0014001A00080045
:1004A000150017001C0018000C00120013002F008C
:1004B000300031004A00390004001600070009002E
:1004C0000A000B000D000E000F003300340028005E
:1004D0004B004E00E1001D001B0006001900050046
:1004E00011001000360037003800E500E50052002A
:1004F000E100E000E300E20076002C0021522152EE
:100500002C00E600E700E400500051004F002900F5
:10051000007C010001000100010001000100010058
:10052000010001000100010001000100427C010006
:1005300001000100010001000100010001000100B3
:1005400001000100010001000100010001000100A3
:100550000100010001000100010001000100010093
:100560000100010001000100010001000100010083
:100570000100010001000100010001000100010073
:100580000100010001000100010001000100010063
:100590000100010001000100010001000100010053
:1005A0000100010001000100010001000100010043
:1005B0000100010001000100010001000100010033
:1005C0000100017C00AE00AF00DA1281FFD9F1DB3F
:1005D00020A4A62EAF00A0C0D36000A1C8D32000E5
:1005E000AED580A83FDC008D142009023B0002013B
:1005F00000A0FA0904000001030101000921010122
:1006000000012244000705810308000109040100DC
:100610000103000000092101010001227B00070500
:10062000830308000112011001000000089EDCEDA8
:10063000120001010200011803520065006400204D
:1006400000480065007200720069006E00670000DB
:1006500000100364006300700065006400690074AA
:100660000000000403090405010902A10185020933
:1006700001A1000509190129081500250195087532
:100680000181020501093009311581257F95027527
:1006900008810609381581257F95017508810605B1
:1006A0000C0A38021581257F950175088106C0C0A6
:1006B00005010980A101850319012AB7001501264A
:1006C000B700950175108100C0050C0901A10185D5
:1006D0000419012AA002150126A0029501751081B6
:1006E00000C005010906A101050719E029E7150069
:1006F000250195087501810295017508810305079B
:10070000190029FF150026FF0095067508810005D0
:100710000819012905150025019505750191029516
:100720000175039103C011241FBECFE5D8E0DEBFE1
:10073000CDBF11E0A0E6B0E0E4E8FBE402C0059024
:100740000D92A032B107D9F727E0A0E2B1E001C0D5
:100750001D92AD33B207E1F70E9434150C947E254B
:100760000C940000A82FB92F80E090E041E050EAFF
:10077000609530E009C02D9182279795879510F0FC
:1007800084279527305EC8F36F5FA8F30895EADFEA
:100790008D939D930895CF93CFB7CF93DF93C39558
:1007A000839BE9F7839B10C0839B0EC0839B0CC087
:1007B000839B0AC0839B08C0839B06C0C09114071B
:1007C000C395C09314078EC06F93C0911307DD27A4
:1007D000C55ED84F2F9365E5839B03C02F916F9122
:1007E000E1CF0F931F934F9320E040E15F9300B35D
:1007F0000C7003FB27F93F9350E03BE039C01C70BD
:1008000040642F77012F5F5F1EC0406810B31C70DB
:100810002F7752501FC0406400B32F770C70D1F176
:100820005F5F00C023C0406210B32F771C7091F14E
:100830005F5F00C025C00C701027515012F45D5F3F
:100840000000115027952C3F10B3C8F61C700127EB
:10085000015027952C3FC8F64227499300B30C70EE
:1008600010274F73115027952C3FA8F646954695B3
:1008700010B31C7079F00127015027952C3F98F692
:100880006B5A60F3315000B3B0F600C010E81ABFE5
:1008900000271CC03B503195C31BD04010E81ABF45
:1008A0000881033C21F10B3411F1209110071981CB
:1008B000110F1213EDCF4A81441F093679F10D3221
:1008C00011F0013E29F74F7009F0042F009319072A
:1008D0003F915F914F911F910F912F916F91CAB7E7
:1008E000C7FD5DCFDF91CF91CFBFCF9118952091FC
:1008F0001907222369F310911707112309F049C042
:1009000034300AF448C0309317072093120710912F
:1009100013073BE0311B309313073DC000911707CD
:100920000130BCF50AE54F7049F43091780034FD90
:1009300033C000937800CDEED6E032C0433059F09A
:10094000443091F03091F80634FD26C00093F8064B
:10095000C9EFD6E025C03091310734FD1DC00093AA
:100960003107C2E3D7E01CC03091040734FD14C046
:1009700000930407C5E0D7E013C0052710E000C0CE
:10098000000002BB1AC0052710E0221F1DC010E0A6
:1009900021C04AE502C032ED432FC4E1D0E032E08D
:1009A00011B31C60939A02B311BB5CE020E865E3CD
:1009B00020FF052702BB279517951C3FF0F666958B
:1009C000B8F7B1F720FF052702BB279517951C3F05
:1009D000D0F62795179517FF052700001C3F02BB8F
:1009E000B0F629913A9519F7037F10911807110F66
:1009F000C651D04002BB11F01093100710E81ABF87
:100A0000086011B3137F402F437F54E05A95F1F7EC
:100A100002BB11BB42BB5CCF60E080E00E940719C3
:100A200060E074E084E590E00E941E1980E0089583
:100A30008230B8F46630A8F44F3098F450E09FE06C
:100A4000699F400D511D1124FA019AE5899FE00D1F
:100A5000F11D1124EE0FFF1FE45AFB4F8591949175
:100A6000089581E090E008950E941805089582306D
:100A700088F461110FC090E0880F991FE1E0E4272E
:100A8000E80FF92FF11DEE0FFF1FEC5AFB4F859178
:100A90009491089581E090E008950E9437050895AB
:100AA00081E008950E945005089581E008950E9414
:100AB000500508950E945705089508950E945D0508
:100AC0000895A6E0B0E0E7E6F5E00C94E924498358
:100AD0005A839E833091270189819A8131111AC0EE
:100AE0003E81332399F0222389F00E94860B182F30
:100AF000682F89819A810E94530B69817A81812FA5
:100B00000E9493122696E3E00C9405250E946D0B3B
:100B1000182FF3CF0E94860B69817A81F1CFFC01F7
:100B2000262F4081518162817381848195810E9449
:100B300061050895CF93DF93EC0161E00E948F057A
:100B4000BE010E945205DF91CF910895CF93DF93AC
:100B5000EC0160E00E948F05BE010E945E05DF91FE
:100B6000CF91089508950E94280A0E94B2052FEFA0
:100B700084E39CE0215080409040E1F700C00000F9
:100B80000E949E1E08950E94B3050E94C6200895EB
:100B90000E94B3050E94D92008950F931F93CF930D
:100BA000DF938C0161E00E948F05EC01B8010E9487
:100BB000D91C811106C080E0DF91CF911F910F9168
:100BC0000895B801CE010E945A058823A1F3B80107
:100BD000CE010E94051F882371F3B801CE010E9447
:100BE000E21A882341F3B801CE010E94AD1C88238C
:100BF00011F3F8018581882361F0C330FCE7DF073A
:100C0000E9F058F4C115ECE7DE07A9F0C130DC4784
:100C1000B9F0C8010E945505CFCFCB358CE7D80776
:100C2000A9F0CC35ECE7DE0771F0CA35DC4789F76F
:100C30000E94A60FEECF0E94C305BDCF0E94AE0F4B
:100C40000E94C805B8CF0E949C0FE3CF0E94AA0F54
:100C5000E0CF0E9445200E9459060E949A1A0895EA
:100C60000E945D060E944A200895089581E008953B
:100C700081FF02C0D89A0895D8980895CF93DF9342
:100C8000D82F0E943606C82F882319F08D2F0E9476
:100C900038068C2FDF91CF910895D09AD898089577
:100CA000CF93C82F0E9435068C2F0E943E06CF910D
:100CB000089580E00E94500608950E944E1F0E94F1
:100CC00050060895CF930E944E1FC82F8091220195
:100CD0008C1779F0C09322010E9487206093230132
:100CE0007093240180932501909326018C2F0E94FC
:100CF0005006CF910895ADE0B0E0E1E8F6E00C9445
:100D0000EA24488759876A877B878C879D8791115A
:100D10000E94EA0E1F8286E0FE013896DE011196DF
:100D200001900D928A95E1F78D8181110DC0298185
:100D30003A814B815C816D817E818F810E941D0E85
:100D40002D96E2E00C940625CE0101960E949A05AC
:100D50008111EDCFF5CFFC012481213021F4808178
:100D600091810E94B80B0895662329F00E94CB154B
:100D70000E949E1608950E942516FACFCF93C82F81
:100D80008823C9F08238C9F40E945B1F81FD13C01B
:100D900089E30E94A20E0E94230F2FEF87EE93E0BB
:100DA000215080409040E1F700C0000089E30E949C
:100DB000AA0E0E94230FCF9108958338A1F40E94B8
:100DC0005B1F80FDF8CF83E50E94A20E0E94230FD7
:100DD0002FEF81EE94E0215080409040E1F700C079
:100DE000000083E5E4CF8438A1F40E945B1F82FDFC
:100DF000E2CF87E40E94A20E0E94230F2FEF81EE24
:100E000094E0215080409040E1F700C0000087E46A
:100E1000CECF8CEF8C0F813A90F46C2F80916000D4
:100E2000909161000E94D31F882329F08C2F0E948B
:100E3000AA0E0E94230F8C2F0E94A20EBACF80E22E
:100E40008C0F883048F4C77081E001C0880FCA95C4
:100E5000EAF70E94CD0EADCFEBE5EC0FE33040F4A6
:100E6000F0E0E155FF4F808190E00E94771FA3CF13
:100E7000E8E5EC0FEB3150F4F0E0EE0FFF1FE75820
:100E8000FF4F808191810E949C1F95CF83E38C0F3F
:100E9000833108F090CF61E08C2F0E94B4068BCF95
:100EA000882309F456C0823879F40E945B1F81FFC1
:100EB00050C089E30E94A20E0E94230F89E30E9482
:100EC000AA0E0E94230F0895833859F40E945B1FD5
:100ED00080FF3FC083E50E94A20E0E94230F83E59E
:100EE000EECF843859F40E945B1F82FF32C087E442
:100EF0000E94A20E0E94230F87E4E1CF9CEF980F7F
:100F0000913AE8F290E2980F983050F4877091E0AF
:100F100001C0990F8A95EAF7892F0E94D30ED1CF8D
:100F20009BE5980F933028F490E080E00E94771FB3
:100F3000089598E5980F9B3128F490E080E00E9496
:100F40009C1F089593E3980F933118F460E00E947A
:100F5000B40608951F93CF93DF93182FEB010E94DF
:100F6000BE06209739F4812F0E945007DF91CF9160
:100F70001F9108958FE99FE00197F1F700C00000ED
:100F80002197EFCF6AE070E0893311F460E570E0FB
:100F90000E94AA070895882321F00E94CD0E0E9486
:100FA000230F0895882321F00E94D30E0E94230F5F
:100FB0000895B0E0A0E0EFEDF7E00C94E3246C01BD
:100FC000D62FC72FFC011581068102950F700E9454
:100FD000C30EE82E8823E9F0E12E1123D1F08C2FE7
:100FE000807F803451F080E28D0F8830F8F001115D
:100FF00004C08C2F807E8032C9F08091C60282FFAF
:1010000015C082E00E94700F0E94C30E91E0E82E8E
:10101000E926BC2EB2949FE0B922FBE0FB15B8F1A3
:10102000EB2DF0E0E058FA4D0C94D424E12CF1CFF4
:101030000C2F0F70C07F11F00295007F112399F0E3
:10104000002359F080E28D0F883010F0D11107C0D5
:10105000802F0E94CD0E0E94230F8D2F5AC0802F0B
:101060000E94DD0EF8CF8D2F0E945007002379F0EB
:1010700080E28D0F883010F0D11104C0802F0E94C3
:10108000D30E03C0802F0E94E30E0E94230FEB2D8E
:10109000E850FF0B349720F40E944E1F0E94500628
:1010A000EE2089F00E94BF0E80FD0DC0F601158272
:1010B0000E94B90E0E94B10AC6010E94EF090E9467
:1010C000B90E0E94C10ACDB7DEB7E9E00C94FF2447
:1010D0002C2F2F70F22EC07FC03219F0F29480EFC7
:1010E000F822DD2341F0D130D1F1112309F444C0BD
:1010F0000023F1F0B2CF8091C60282FD15C011230A
:1011000059F0FF2029F08F2D0E94CD0E0E94230F51
:1011100080E00E94BE06BBCF80E00E945007FF2007
:1011200009F4B5CF8F2DABCF112369F0011104C0A5
:101130008F2D0E94CB07ABCF013009F0A8CF8F2DA8
:101140000E94010FA4CF0111A2CF8F2D0E94D207C0
:101150008F2D0E940D0F8F2D0E94F10E98CF11231D
:1011600021F0063008F093CFE3CF053008F08FCFA1
:101170008F2D0E94D2078BCF0023D1F3D93369F48E
:101180003FEF87EE93E0315080409040E1F700C0A0
:1011900000008D2F0E9450077ACFEFE3FCE93197D2
:1011A000F1F7F5CF8C2F86958695837069F08130A5
:1011B00009F06DCF8D2F9C2F9370111102C080E02C
:1011C00090E00E949C1F63CF8D2F9C2F9370111174
:1011D00002C080E090E00E94771F59CF612F8D2FD1
:1011E0000E94B40654CF8C2F8370A1F511114FCFFC
:1011F0004D2F429546954770440F440F2D2F2F7069
:1012000030E0042E02C0220F331F0A94E2F790E070
:1012100080E0D4FF09C08FE090E002C0880F991FE2
:101220004A95E2F780959095C695C695C370822B36
:10123000932BC23049F058F4C13019F00E94810A52
:1012400026CF0E94780A23CF0E948A0A20CF0E94CC
:10125000750A1DCF8695112311F08C2F817088237C
:1012600009F415CF4D2F429546954770440F440F12
:101270002D2F2F7030E0042E02C0220F331F0A944E
:10128000E2F790E080E0D4FF09C08FE090E002C078
:10129000880F991F4A95E2F780959095C695C69557
:1012A000C370822B932BC23049F058F4C13019F02F
:1012B0000E94EC0AECCE0E94E30AE9CE0E94F50AF5
:1012C000E6CE0E94990AE3CECF70112329F08C2F2D
:1012D0000E94B10A8D2F2DCF8D2F0E94D2078C2F07
:1012E0000E94C10AD4CED23F41F160F4D03FB9F0A0
:1012F000D13F81F0112309F446C00111AECE8C2FED
:101300008F711FC0D33F01F1D43FA1F78091C60276
:1013100082FD24C08C2F8F71112311F312C0112371
:1013200041F0053008F0B3CE8C2F8F710E94D30AA4
:10133000AECE063008F0ABCEF7CF8C2F8F711111E7
:10134000CFCF0E94B10AA3CE112329F08C2F8F7129
:101350000E94A50A9CCE0E94A00A99CE112349F0B2
:10136000CF718C2F0E94B10A63E08C2F0E94520F24
:101370008ECE81E00E94700F023008F488CE82E0A9
:101380000E94700F84CE002379F0D93341F4FFEF2F
:1013900027EE33E0F15020403040E1F7F8CE8FE304
:1013A0009CE90197F1F7F3CE8C2F8F7199CF0F93B2
:1013B0001F93CF93DF93EC01688179818D810E9427
:1013C000C30B8C010E94FE0A0E94740AB801CE0170
:1013D0000E94D907DF91CF911F910F910895CF936C
:1013E000DF93EC018C81882399F0CE010E94CD051A
:1013F000811111C00E94C30E882351F08D81882372
:1014000039F08091C60282FF03C082E00E94700F13
:10141000DF91CF910895CE010E94D709CE010E949D
:10142000A605F6CF90E080E00E94771F90E080E074
:101430000E949C1F0E94EA0E0E94230F0E94BA166F
:101440000E949E1608950E94B20E0E94120A0895EC
:101450000E94DA0E0E94230A089592959F7096309A
:1014600091F058F4925F9F70923058F4803F19F0D9
:1014700030F4883E30F481E008959A5FF4CF843FE1
:10148000D1F380E00895883EB0F3813FD1F7F3CFE8
:10149000FC012481222339F0808191810E94B80BC4
:1014A0000E942D0A089580E00895A6E0B0E0EBE5E3
:1014B000FAE00C94EA242696E2E00C940625A7E0D4
:1014C000B0E0E5E6FAE00C94EA242796E2E00C941A
:1014D000062508950E94690A08950E946A0A909359
:1014E0005F0180935E01089508950E946D0A08953A
:1014F00020915E0130915F01822B932B0E946D0A37
:10150000089520915E0130915F01822393230E9410
:101510006D0A089520915E0130915F018227932723
:101520000E946D0A08950E94690A08950E94930A14
:1015300008950E94960A90935D0180935C0108953E
:1015400090E080E00E94990A089521E030E0A9012E
:1015500002C0440F551F8A95E2F7CA010E94990AFA
:10156000089521E030E002C0220F331F8A95E2F790
:1015700080915C0190915D01822B932B0E94990ACE
:10158000089521E030E002C0220F331F8A95E2F770
:101590002095309580915C0190915D018223932389
:1015A0000E94990A089521E030E002C0220F331F03
:1015B0008A95E2F780915C0190915D0182279327E3
:1015C0000E94990A089520915C0130915D01822B5F
:1015D000932B0E94990A089520915C0130915D013E
:1015E000822393230E94990A089520915C013091EF
:1015F0005D01822793270E94990A08950895262F56
:10160000277091E001C0990F2A95EAF723E07695BB
:1016100067952A95E1F7660F771F660F771FFA0126
:10162000E60FF71F50E040E0682F70E08191DF0186
:1016300011979B01042E02C0369527950A94E2F774
:10164000217021952827292328272C934F5F5F4F4E
:101650004430510559F70895A82FA77023E09695B7
:1016600087952A95E1F7880F991F880F991FFB012D
:10167000E80FF91F50E040E080E0219130E00A2EB1
:1016800002C0369527950A94E2F721703327042E7D
:1016900001C0220F0A94EAF7822B4F5F5F4F44305C
:1016A000510559F70895282F862F963070F42F3062
:1016B00058F4622F70E02FE0929F600D711D11248D
:1016C0004CE251E00E94FF0A08959C5F9230E0F7DF
:1016D000622F70E048E251E0F5CF292F963068F490
:1016E0008F3090F490E06CE271E03FE0239F800D3A
:1016F000911D11240E942C0B08952C5F223020F4A0
:1017000068E271E090E0F6CF80E00895B0E0A0E0FC
:10171000ECE8FBE00C94E3247C0100915C01109167
:101720005D0180915E0190915F01082B192BCFE044
:10173000D0E0CC24C394D12CBC2EC6010C2E02C008
:10174000880F991F0A94E2F780239123892B49F48B
:10175000219790F7B12C8B2DCDB7DEB7E9E00C9433
:10176000FF24B7018C2F0E94AC12019789F3F3CFAD
:10177000CF93DF93EC010E94860BBE010E94AC1256
:10178000DF91CF9108951F93CF93DF93EB01909159
:101790002701992339F0CB010E94B80BDF91CF913B
:1017A0001F910895882369F0CB010E94860B182FA2
:1017B000682FCE010E94530BBE01812F0E94AC12F4
:1017C000EDCFCB010E946D0B182FF6CF1F93CF9357
:1017D000DF93C091600117E0809161018C1304C018
:1017E000DF91CF911F910895D0E01C9FF0011D9FC4
:1017F000F00D1124EE59FE4F208131814281538139
:101800006481758186810E945F0A2196C770E4CF4A
:1018100020919A0130919B0140919C0150919D0132
:1018200060919E0170919F018091A0010E945F0ACA
:101830000895CF93DF938091A001807F09F04DC080
:1018400080919F01882309F448C0E0916001509184
:101850006101C0919B01D0919A0160919C017091AE
:101860009D0147E05E17C9F18E2F90E0E49FF001E3
:101870001124EE59FE4F2481222391F1489FF0015B
:10188000499FF00D1124DF01AE59BE4F11962C91E6
:1018900011972C1325C02C912D1322C015962C9135
:1018A000159721111DC012962D913C91261B370BC7
:1018B000283C3105A8F48091A0018F70806180934D
:1018C000A001E859FE4F80818F70806180838AE992
:1018D00091E00E94EF090E94E60BDF91CF910895FD
:1018E000FC013196E770BECF482F209160019091A6
:1018F000610157E0291302C080E0089530E0529F53
:10190000F001539FF00D1124EE59FE4F81816813B1
:1019100006C08081481303C085818111EECF2F5FFF
:101920003F4F2770E7CFA4E1B0E0E9E9FCE00C9479
:10193000E0248C0186E0F801DE011F9601900D92F3
:101940008A95E1F7F8018481E5809AE9A92E91E072
:10195000B92E90919E0191111FC08823D1F0EE20E5
:10196000A9F0C8010E94480AF82E882379F087E080
:10197000F801D50101900D928A95E1F7C5010E9409
:10198000AB060E94190C0E94080C5FC0C8010E949F
:10199000EF09FF24F39459C0C080D18082809380E6
:1019A000F0909F0120919C0130919D01A401421B68
:1019B000530BFF2009F4F9C0483C510508F0A7C0BB
:1019C000882309F442C090919B018091A001282FA7
:1019D000207F09F05CC09D1116C090919A01C91238
:1019E00012C0E1104EC08F7080618093A0010E94F0
:1019F000080C8AE991E00E94EF098091A001F801AA
:101A00008683F12C22C0E1103CC06D2D8C2D0E94EC
:101A1000740C6D2D8C2D0E94740CE82E8111F1CF69
:101A2000CF86D88A8F8598890E94B80B292F229556
:101A30002F70243078F49F702230A8F09923B9F0E9
:101A4000F8019681907F99F4FE2C8F2D6496ECE03E
:101A50000C94FC242A5F2F70223068F0C8010E9489
:101A6000EF09EF2CF1CF992311F0882369F3805E01
:101A7000883050F3F3CF803F38F3815F833070F7C5
:101A8000E3CF8091A00181608093A001BACF9D1126
:101A900013C090919A01C9120FC0E1100DC0868346
:101AA000C8010E94EF0987E0F801AAE9B1E00190BE
:101AB0000D928A95E1F767CFC8010E94480A8823F2
:101AC00009F464CFEE2009F461CF8091A001803247
:101AD00088F020919A0130919B01398728879B8655
:101AE0008A8690919E019C871D868E87CE010896DE
:101AF0000E94EF0987E0F801AAE9B1E001900D9298
:101B00008A95E1F70E94190C0E94080C42CF90912F
:101B1000A001292F207FA1F4682D9A8A898AA60125
:101B20007A899E2D0E94550A8AE991E00E94EF0968
:101B300087E0F50111928A95E9F70E94080C61CFC0
:101B4000882309F482CF80919B018D1110C0809170
:101B50009A01C8120CC0E1100AC09683C8010E9405
:101B6000EF0987E0F50111928A95E9F76ECFC80178
:101B70000E94480A882309F409CFEE2009F406CF11
:101B80008091A001803208F4B5CF20919A01309164
:101B90009B013A8329839C828B8290919E019D8335
:101BA0001E828F83CE010196A3CF483C5105B8F524
:101BB000882309F4EECEFE2CEE2009F4E7CE8091C6
:101BC0009B018D111EC080919A01C8121AC080918C
:101BD000A00180FD0DC0982F907F51F08683903F2B
:101BE00009F45ECF982F907F905F8F70892B57CF2D
:101BF00087E0F801AAE9B1E001900D928A95E1F73A
:101C000024CFC8010E94480A811174CF8091A0019D
:101C100081608093A001C8010E94EF0916CF682D52
:101C20009A8A898AA6017A899E2D0E94550A87E0A0
:101C3000F50111928A95E9F7A6CEAEE0B0E0E3E2B5
:101C4000FEE00C94E924288739874A875B876C87F4
:101C50007D878E87CE0108960E94930C8823B1F071
:101C60006C85662341F0288539854A855B857D85AD
:101C70008E850E945F0A17E080916001909161015A
:101C800089133DC02E96E3E00C94052587E0FE0104
:101C90003896DE01119601900D928A95E1F78C85B8
:101CA000882349F32091610130E0C90101968770D2
:101CB0009927409160014817190699F097E0929F83
:101CC000D001939FB00D1124AE59BE4FFE01319645
:101CD00001900D929A95E1F7809361010E94E60BC5
:101CE000CACF0E94280A109261011092600187E019
:101CF000EAE9F1E0DF011D928A95E9F7BCCF819F07
:101D0000C00111248E599E4F0E94930C882309F420
:101D1000B9CFE09160011E9FF0011124EE59FE4FF2
:101D200020813181428153816481758186810E9445
:101D30005F0A8091600190E00196877099278093F7
:101D400060019ACF682F80916000909161000E949D
:101D500009200895682F80916000909161000E9491
:101D60000C20089580916000909161000E940F20E6
:101D700008958091A1018695869586950895809114
:101D8000A101877008959091A101977081E009F4F5
:101D900080E008958091AD0108959091AD01892B67
:101DA0008093AD01089580959091AD019823909313
:101DB000AD0108951092AD0108959091AC01892B69
:101DC0008093AC01089580959091AC0198239093F5
:101DD000AC0108951092AC01089508950E94ED0E93
:101DE00008959091A201292F282331F0809589230D
:101DF0008093A2010E94EE0E089508950E94FD0EA8
:101E000008959091A301292F2823281729F0982BB2
:101E10009093A3010E94FE0E08959091A301292F93
:101E2000282331F0809589238093A3010E94FE0E20
:101E300008958091A301882329F01092A30180E0E6
:101E40000E94FE0E0895E0916000F0916100809183
:101E5000AD018083E0916000F091610080819091FC
:101E6000AC01892B80839091A301992381F0E091AB
:101E70006000F09161008081892B808380916000F7
:101E8000909161000E94C11F81110E94190F8091E1
:101E90006000909161000E945E1F089508950E9465
:101EA0004E0F08959091C60292FF11C098E0899F4D
:101EB00090011124622B6093A1010E94B10A8091CC
:101EC000A1018695869586950E944F0F08950E94E0
:101ED000B10A08951092A10180E00E944F0F089569
:101EE0009091A101809589238093A101282F2770CB
:101EF00069F4891759F09091C60292FF07C0869540
:101F0000869586950E94C10A0E946A0F0895909155
:101F1000C60292FB222720F9281769F080FB92F96C
:101F20009093C6028091C5029091C6020E94CF0F85
:101F300082E00E94700F08958091C60282FB88277C
:101F400080F991E089270E94870F089581E00E941F
:101F5000870F089580E00E94870F08956FEF7FEF4D
:101F600090E080E00E946825089590E080E00E9463
:101F7000352521E0863E9E4F09F020E0822F08950E
:101F800082E090E00E942725089583E090E00E947F
:101F90002725089584E090E00E9435250895BC012E
:101FA00084E090E00E9468250895AB01BC018FE0B9
:101FB00090E00E945C250895AB01BC0183E190E0B4
:101FC0000E945C25089560E070E0CB010E94DC0F68
:101FD000089560E070E0CB010E94D50F0E94E30FEE
:101FE0000895A8E0B0E0E7EFFFE00C94EA2466EE85
:101FF0007EEF90E080E00E94682560E082E090E063
:102000000E944B2560E083E090E00E944B251092F7
:102010005F0110925E0160E074E184E090E00E9454
:10202000682560E086E090E00E944B256FEF87E036
:1020300090E00E944B2540E050E0BA0188E090E03B
:102040000E945C2560E084E290E00E944B2560E005
:1020500087E190E00E944B2560E08CE090E00E94D8
:102060004B2560E08DE090E00E944B2519821A829A
:102070001B821C821D821E821F82188648E050E04F
:1020800068E170E0CE0101960E943B2540E050E0FF
:10209000BA0180E290E00E945C250E94811D0E94AE
:1020A000E90F2896E2E00C9406250E94F10F0895AE
:1020B00080E290E00E942F250895AB01BC0180E2F0
:1020C00090E00E945C250895682F8EE090E00E94C9
:1020D0004B250895A6E0B0E0E0E7F0E10C94E82499
:1020E0000E947B208C018091AE019091AF018017FE
:1020F000910781F019821A820E947B20682F498102
:102100005A81792F80E090E00E947B061093AF0106
:102110000093AE012696E4E00C9404250E948720EB
:102120006093C4017093C5018093C6019093C70169
:102130006093C0017093C1018093C2019093C30169
:1021400008950E9487206093C4017093C501809315
:10215000C6019093C7016093BC017093BD01809349
:10216000BE019093BF010895089508950E94B41090
:10217000089508950E94B910089582EA93E10E949B
:1021800041150E94B5100E94B610089581E008958F
:102190000E94C61008950E94C610089508950895DB
:1021A0000E94CE100E94CF1008950E94C1130E9479
:1021B0004D060E949B1D08950E9474200E94C51B1D
:1021C0000E949C140E94D51080E00E94BB180E94BF
:1021D000BA100895A6E0B0E0E0EFF0E10C94DD2441
:1021E0000E94C810782E811111C00E946A10712CB3
:1021F0000E942F1D0E94E91B882309F46AC00E94D7
:10220000A1100E94B81A0E945E1967C00E94B21401
:1022100020EB822E21E0922E640110E0F601E19085
:10222000F1906F01812F0E94E7131F5F163009F4B0
:102230004BC0E816F90691F38091C80181FD0E9418
:10224000F0130E94CB10682E10E055245394812F78
:102250000E94E7137C01F401A190B1904F018A150F
:102260009B0561F1A826BF2400E0CC24C394D12CA7
:10227000C5018C219D21892BC1F06620B1F0098315
:102280001A830E947B209C838B835D8221E0C7019F
:102290008C219D21892B09F420E049815A816B8191
:1022A0007C818D81922F0E947B060F5FCC0CDD1C00
:1022B0000F30F1F6F4013297F182E0821F5F1630A1
:1022C00031F60E948E1094CFE816F90609F0B4CFCB
:1022D0008CCF0E94B81A711096CF0E94DC160E9413
:1022E00062062696EFE00C94F9241F93CF93DF93B8
:1022F0000E94B112EC01C11580E5D807F0F5C115B7
:1023000080E4D80708F09CC0C03ED10520F5CD3C44
:10231000D10508F082C0C83AD10578F4C53AD10594
:1023200008F073C0C130D10519F1209709F1C4300C
:10233000D105F0F4D0E0C0E01BC0C33CD105D0F71C
:10234000C85AD0E0CC0FDD1FCE54DF4F0990D881A2
:10235000C02DD4640DC0C11580E2D80708F0D1C0EB
:10236000C11581E0D80708F05AC0C83ED10510F762
:10237000CE01DF91CF911F910895C03682E5D80735
:1023800018F5C03482E5D80708F06BC0C03282E58A
:10239000D80708F05FC0C11582E5D80708F497C0D8
:1023A0002C2F2695269580E2289F900111248C2FB2
:1023B0008370C1E0D0E002C0CC0FDD1F8A95E2F748
:1023C000C22BD32BDD68D4CFC03A82E5D80760F4A6
:1023D000C03882E5D80708F459C0CF71D0E0DC2FAF
:1023E000CC27C46FD06AC4CFC03C82E5D80708F4BC
:1023F00062C0C03E82E5D80708F09CCFDC2FCC2716
:10240000CC27DF71C06FD06AB3CFC55AD0E0C851B6
:10241000DF4FC881D0E0D064ABCFD065A9CF8D2F7E
:102420000E945313182FCE0199270E94B112C12F79
:10243000D0E0DC2FCC27CC27DF71C82BD92B98CF4D
:10244000CE0199270E94B112CC27DF70C82BD92B5F
:10245000D06A8ECFCF71D0E0DC2FCC27C16FD06A8D
:1024600087CF2C2F26952695277080E2289F9001F4
:1024700011248C2F8370C1E0D0E002C0CC0FDD1F8F
:102480008A95E2F7C22BD32BDC6872CF2C2F2695CE
:102490002695277080E2289F900111248C2F83704D
:1024A000C1E0D0E002C0CC0FDD1F8A95E2F7C22B5D
:1024B000D32BDA685DCF8C2F8F710E945313C82FF6
:1024C000D0E0DC2FCC27CC27DF71D06251CF8C2F0E
:1024D0008F710E94531355E0D695C7955A95E1F731
:1024E000CF70D0E0DC2FCC27282F30E084FF05C050
:1024F00044E0220F331F4A95E1F7C22BD32BD0695A
:1025000037CF8D2F8F710E945313182FCE0199272B
:102510000E94B112C12FD0E0DC2FCC27CC27DF7175
:10252000C82BD92BD2CF462F672F763028F44F30C7
:1025300080F40E94340508957D3F39F4411109C0AB
:1025400041E060E00E944D0508957C3F11F4442372
:10255000C1F390E080E008950E9493120E947511EB
:10256000089582389105B9F1B0F48133910509F4E9
:102570007DC048F48932910509F46DC08A32910515
:1025800009F47BC008958533910509F45FC0893350
:10259000910509F10895833E9105D9F138F4803E03
:1025A000910529F1823E910579F10895863E9105C4
:1025B000D9F1873E910509F43EC0843E910541F56D
:1025C0002091C60221FF24C08091C50284FD19C05C
:1025D00087EE90E008952091C502237009F05AC05B
:1025E0002091C60223FF14C089E290E00895209153
:1025F000C50220FD38C03091C60230FF09C024FF5B
:1026000043C090E080E008952091C50222FDF7CFFD
:1026100008952091C50222FD3AC03091C60230FDD6
:1026200039C024FFF5CFEDCF2091C50223FFF0CFB5
:1026300024FDE7CFCDCF2091C50223FD2EC03091E0
:10264000C60231FFEECF84EE90E008952091C502DE
:1026500025FFDECFC9CF2091C50225FD21C02091E5
:10266000C60223FFD5CF89E390E0D2CF2091C502E7
:1026700026FFCECF8AE290E008952091C50226FF82
:10268000C7CF81E390E0089583EE90E0089582EE55
:1026900090E0089580EE90E0089586EE90E0089531
:1026A00085E390E008959091C50292FF10C041E04B
:1026B000282F2471243009F040E031E0282F2871C0
:1026C000283009F030E0431711F02CE0822793FF07
:1026D00010C041E0282F2471243109F040E031E09E
:1026E000282F2871283109F030E0431711F02CE031
:1026F00082273091C60230FF10C051E0282F21718F
:10270000213009F050E041E0282F2871283009F0ED
:1027100040E0541711F029E0822731FF10C041E05A
:10272000282F2171213109F040E031E0282F287154
:10273000283109F030E0431711F029E0822794FD99
:10274000877E089580E008950E94AE0F08950E944C
:10275000B2142FEF86E791E0215080409040E1F7DE
:1027600000C000000E94B21485E00E94E71396FFAB
:1027700004C00E94A4130E94C62008950E94A713BB
:1027800008950E94B50F811102C00E9455100E9449
:10279000C00F8093C8010E94CA0F9093C602809315
:1027A000C5020E94BE130E94C50F90E00E94750AE8
:1027B00080915C0190915D010E94960A08950895B0
:1027C0000E94DF13089508950E94E3130895E82FEF
:1027D000F0E0EE0FFF1FED52FD4F808191810895D3
:1027E000089580EA8A95F1F7089500C008950E943F
:1027F000F1130895F894E82FE295EF70F0E031A915
:10280000282F2F7081E090E001C0880F2A95EAF709
:10281000982F9095932391AB92A9892B82AB7894B2
:102820000895CF93DF93CAEFD0E089918F3F11F0E5
:102830000E94FA1381E0C030D807B9F7CBEED0E0A0
:1028400089918F3F11F00E94FA1380E0CA3FD807A8
:10285000B9F7DF91CF910895AF92BF92DF92EF92D7
:10286000FF920F931F93CF93DF938C01D62EC62F29
:10287000D0E0CE0186509F4F7C01FC0120812F3F8C
:1028800009F44DC0F894E22FE295EF70F0E031A921
:102890002F7081E090E001C0880F2A95EAF7932F0E
:1028A000982B91AB92A98095892382AB78940E9452
:1028B000F513EBEEF0E04AEF50E021E030E0B12C10
:1028C000A12C61916F3FA9F1A62FA295AF70B0E046
:1028D000D0968C9190E06F7002C0959587956A951F
:1028E000E2F780FD26C0C901A82AB92A220F331FAA
:1028F0004E175F0731F7F70180818F3F11F00E947B
:10290000FA1361E0A114B10409F460E08D2D0E9476
:10291000F713CC0FDD1FC00FD11FB982A882DF9142
:10292000CF911F910F91FF90EF90DF90BF90AF90EC
:10293000089590E080E0D8CF0E9411148CE0E3ED80
:10294000F2E0DF01982F1D929A95E9F7E7ECF2E0AB
:10295000DF011D928A95E9F786E00E94ED140E943E
:10296000E0130895ACE0B0E0E8EBF4E10C94E72468
:102970008E010F5F1F4F8CE0F80111928A95E9F7E5
:10298000F12C6F2DC8010E942C14F394F6E0FF1275
:10299000F8CF4CE050E0B80187EC92E00E9411259E
:1029A00021E0009709F420E0892B41F08CE0F80148
:1029B000A7ECB2E001900D928A95E1F746E063ED55
:1029C00072E087EC92E00E94EE14182F0E94E4134C
:1029D000812F2C96E5E00C9403250895CF92DF9289
:1029E000EF92FF921F93CF93DF936C017B01C42F73
:1029F000222349F081E08093CB010E947B209093B9
:102A0000CA018093C9011091CB0111110AC010E0D5
:102A1000812FDF91CF911F91FF90EF90DF90CF90AA
:102A200008958091C9019091CA010E949320059751
:102A300070F3D0E0CC0FDD1FAE01B601C7010E94DC
:102A40001125892B41F0AE01B601C7010E941E2558
:102A50001092CB01DDCF10E0FBCF0E94CF210E946E
:102A6000DC100E94E02108950E9462200E94C8218B
:102A70000E94BD100E942D150E94EE210E94D010D0
:102A8000FBCF90932101809320010895282F35EBEF
:102A90002303C001112497FF04C080589109892F96
:102AA000089580589F4FFBCF8091D20180FF0DC0C9
:102AB0006091670070E0660F771F6038710570F5F0
:102AC0006115710569F1862F089581FF07C0609136
:102AD000670084E0689FB0011124EFCF6091670028
:102AE00082FD0AC08091D1018823A9F0209166005F
:102AF00060916700821710F088E0ECCF869FC001DC
:102B0000112433E0880F991F3A95E1F7622F70E0A6
:102B10000E94C024D2CF68E070E0D5CF8FE708953F
:102B200081E008958091D20180FF0CC06091630024
:102B300070E075956795759567956115710549F113
:102B4000862F089581FF06C06091630070E075953F
:102B50006795F3CF6091630082FD0BC09091D00127
:102B60009923A1F06091620080916300961738F07C
:102B7000682F70E06038710500F38FE70895899F32
:102B8000C001112470E00E94C024F4CF61E070E025
:102B9000D7CF81E008958D3C31F40E945415819582
:102BA0008093D60108958E3C19F40E945415F8CFF5
:102BB0008F3C31F40E94541581958093D50108957E
:102BC000803D19F40E945415F8CF893D29F40E94E4
:102BD00092158093D70108958A3D21F40E949215A1
:102BE0008195F7CF8B3D31F40E94921581958093AA
:102BF000D80108958C3D19F40E949215F8CF9FE2F8
:102C0000980F983070F4815D990B21E030E001C09D
:102C1000220F8A95EAF78091D401822B8093D40108
:102C200008958D3D31F48091D20181608093D2016D
:102C300008958E3D21F48091D2018260F7CF8F3DBF
:102C4000B9F78091D2018460F1CF4091D5018D3CDC
:102C500059F48091D60187FF0DC01092D601411121
:102C60000BC01092D10108C08E3C81F48091D60136
:102C700018169CF3442381F08091D7019091D801DC
:102C8000892B09F05AC01092D00108958F3C49F465
:102C900047FFF0CF1092D5018091D6018111ECCF82
:102CA000E0CF803D19F41416ACF3E4CF9091D70136
:102CB000893D29F41916F4F61092D701DBCF8A3D2D
:102CC00019F497FFD7CFF8CF9091D8018B3D29F415
:102CD00097FFD0CF1092D801CDCF8C3D19F41916A3
:102CE000CCF3C8CF9FE2980F983090F4815D990B98
:102CF00021E030E0B90102C0660F771F8A95E2F744
:102D0000CB0180959091D40189238093D401B2CFD7
:102D10008D3D31F48091D2018E7F8093D201AACF74
:102D20008E3D21F48091D2018D7FF7CF8F3D09F048
:102D3000A1CF8091D2018B7FF0CF08950E947B209C
:102D40009C019091D5018091D601982B21F0309370
:102D5000CF012093CE019091D7018091D801982B7B
:102D600021F03093CD012093CC0183ED91E00E94BE
:102D7000691F089586E0E3EDF1E0DF011D928A9579
:102D8000E9F71092D1011092D0011092D20108956A
:102D9000FC01828181110EC0838181110BC084816D
:102DA000811108C091E08581811101C090E0892FD7
:102DB0008170089581E0FCCFA6E0B0E0E2EEF6E19C
:102DC0000C94E92486E0E3EDF1E0DE011196019038
:102DD0000D928A95E1F71092D5011092D6011092CA
:102DE000D7011092D8018B819C81892B89F0809129
:102DF000CE019091CF010E949320AC019091D1011E
:102E00009923C9F1809168008417150608F440C021
:102E10008D819E81892B91F08091CC019091CD0183
:102E20000E949320AC019091D001992309F46AC0CB
:102E3000809164008417150608F472C0BE016F5FAC
:102E40007F4F83ED91E00E941620811105C083ED34
:102E500091E00E94C81681110E949E1686E0FE0134
:102E60003196A3EDB1E001900D928A95E1F7269697
:102E7000E3E00C940525209169008AE0289F9001E9
:102E800011242417350720F69F5F9093D10102C0CB
:102E90009F3FD1F71B81112359F00E9454159FEFDA
:102EA00011160CF491E0899F802D11248093D50197
:102EB0001C81112359F00E9454159FEF11160CF438
:102EC00091E0899F802D11248093D6018091D501B6
:102ED000882309F49DCF1091D601112309F498CFCE
:102EE0000E944615882351F08093D501812F0E94BE
:102EF0004615882329F08093D6018ACF81E0F4CF4C
:102F000081E0F9CF209165008AE0289F900111248B
:102F10002417350708F092CF9F5F9093D00102C02D
:102F20009F3FD1F71D81112359F00E9492159FEF09
:102F300011160CF491E0899F802D11248093D70104
:102F40001E81112359F00E9492159FEF11160CF467
:102F500091E0899F802D11248093D8018091D70121
:102F6000882309F46BCF1091D801112309F466CF9F
:102F70000E944615882351F08093D701812F0E942B
:102F80004615882329F08093D80158CF81E0F4CFEB
:102F900081E0F9CF80936A00089590E0FC01E75248
:102FA000FE4F208121110AC0C59AFC01E352FE4F59
:102FB000108284529E4FFC0110820895C598F5CF6F
:102FC000CF93DF93C82FD0E08091E60680FD06C046
:102FD000FE01E352FE4F908191111DC0FE01E452AB
:102FE000FE4F80FF03C08081811115C0DE01A35216
:102FF000BE4F81E08C9380830E947B20FE01EE0F08
:10300000FF1FE652FE4F91838083C752DE4F8881B7
:10301000882321F0C59ADF91CF910895C598FBCF01
:1030200080E00E94E01708958091DD01882359F126
:103030008091DA019091DB010E94932020916A0037
:103040002817190620F480E00E94CD1708952091DA
:10305000E60620FF18C09091DC0182FD0BC09111A3
:1030600012C081E08093DC018091D901882351F066
:10307000C59A0895992339F01092DC018091D90105
:103080008823B1F3C598089581E08093D901C5984C
:10309000BD9A80E00E94E01708958091D9018111C6
:1030A00002C0C59A0895C5980895AB0124E630E0A2
:1030B000BC0188E70E947F2121E0892B09F020E0F4
:1030C000822F0895B0E0A0E0E8E6F8E10C94E42453
:1030D0006C017B0164E670E088E70E94F2208C01BD
:1030E000E601EC0CFD1CCE15DF0561F40E94C52144
:1030F00081E00115110509F080E0CDB7DEB7E8E009
:103100000C94002517FDF2CFFE01849164E670E077
:103110000E9455218C012196E6CF0F931F939B01AE
:1031200004E610E0AC0160E488E70E949F2121E002
:10313000892B09F020E0822F1F910F9108950E94A2
:10314000E220089508950E94A2180895EFEDF2E09C
:1031500080E094E0DF019C011D9221503040E1F7B6
:10316000F093E406E093E3068FEF9FEF9093240241
:10317000809323020895CF930E94A2180E94A3185F
:1031800080931F0280FD11C080E480931E020E9484
:103190009F186BE070E08FED95E00E94621881113E
:1031A00006C0C0E08C2FCF91089580E8EECF8091CB
:1031B0001F0265E070E081FD27C08AED95E00E9466
:1031C0006218882371F36DE070E088EC95E00E944E
:1031D0006218C82F882329F30E948720605A7541FE
:1031E0008F4F9F4F6093DF067093E0068093E10658
:1031F0009093E2060E94A61881E0809322028093B9
:10320000210210922002CECF85ED95E0D8CF2091FB
:103210001E0236E0839FC0011124629F800D911D24
:103220001124811524E0920714F090E080E081528F
:103230009D4F9093E4068093E3060895CF93DF9328
:103240002091E3063091E4062F5D3240A901460F3C
:10325000571F4130544020F060E074E0621B730B54
:103260004091230250912402FC01C901620F731F97
:10327000C1E0D0E08617970738F0509324024093BE
:103280002302DF91CF9108952491DC01A152BD4F1B
:103290003C91321781F02C939C01A6E0369527953E
:1032A000AA95E1F7DE0102C0AA0FBB1F2A95E2F73B
:1032B0009D014A2B532B01963196DCCF809122023F
:1032C000811103C08091210208950E948720605AD5
:1032D00075418F4F9F4F6093DF067093E006809398
:1032E000E1069093E206809121028111EBCF62E02A
:1032F00070E086EC95E00E946218882319F381E063
:1033000080932102DFCF4F925F927F928F929F92A4
:10331000AF92BF92CF92DF92EF92FF920F931F93E3
:10332000CF93DF938091230290912402892B09F49B
:10333000D3C080912202882309F4CEC0809120025C
:103340008111CAC00E945E1920912302309124028B
:103350002115310509F4C0C080E041E050E0082F9C
:1033600010E02A01082E02C0440C551C0A94E2F712
:10337000B20162237323672B11F48F5FF0CF90911A
:103380001F0290FFB9C0980146E0220F331F4A95F3
:10339000E1F7C901880F892F881F990B9195880F34
:1033A000880F880F63E0369527956A95E1F7209599
:1033B0002870206B20936C00982F9F7090936D0065
:1033C00082958F70806180936E0064E070E08BE680
:1033D00090E00E945518882309F47EC036E0000F63
:1033E000111F3A95E1F780911F0280FF8CC0EEED2E
:1033F000F1E080E4DF011D928A95E9F7A8E0B1E0F1
:1034000090E0E92E91E0F92E27E0922E8824839413
:103410008D91E70149917E01400F512F511D41527D
:103420005D4FE82FF0E0E252FE4F30E020E0792CD3
:10343000721AA82C022E01C0AA0C0A94EAF76A019B
:1034400080E0E60199916E019A21672D681B6770F3
:10345000B62E062E000C770BD92F01C0DD0FBA94C3
:10346000EAF77195619571096770772701C09695A4
:103470006A95EAF76D2F692B9081962B90838F5F69
:103480008830F9F62F5F3F4F31962830310579F6B5
:10349000E1E0A031BE0709F0BBCF0EED11E086E1FF
:1034A000E82E82E0F82E68E070E0C8010E948D18D6
:1034B000882391F0E016F10679F180916C008F5F1E
:1034C00080936C0064E070E08BE690E00E945518F9
:1034D000085F1F4F8111E7CFDF91CF911F910F91AF
:1034E000FF90EF90DF90CF90BF90AF909F908F9024
:1034F0007F905F904F900895806B80936C00109246
:103500006D0080E160CF60E470E0C80181529D4FA2
:103510000E948D18882301F3E201C095D095809117
:10352000230290912402C823D923D0932402C0936C
:103530002302D2CF8091210290912202911103C0E7
:1035400091E089270895882369F062E070E084ECB7
:1035500095E00E946218811103C0809121020895B4
:103560001092210280912102EBCF0E940C05089558
:103570000F931F9380912202882309F160E080E07D
:103580000E9407190E94B51A0E9483198091210296
:103590008823A9F00E9487200091DF061091E006A1
:1035A0002091E1063091E206601B710B820B930BB8
:1035B0006F3F7F4F8F4F9F4710F40E949A1A1F91C1
:1035C0000F910895CF93DF93EC01FB018581882350
:1035D00009F4D2C09E0130572332310508F0B2C041
:1035E0000E94CA0F9093C6028093C502FE01E1506B
:1035F000F047E232F10520F4E457FA4D0C94D4245C
:103600008091C50281608093C50293C08091C602FB
:1036100088608093C6028DC08091C5028260F3CF1E
:103620008091C5028460EFCF8091C5028860EBCFA6
:103630008091C6028160EDCF8091C6028260E9CFA1
:103640008091C5028061DFCF8091C5028062DBCFAF
:103650008091C5028064D7CF0E94280A8091C5025C
:103660008068D1CF8091C5028C60CDCF8091C60299
:103670008360CFCF8091C5028E7FC5CF8091C60277
:10368000877FC7CF8091C5028D7FBDCF8091C50256
:103690008B7FB9CF8091C502877FB5CF8091C6025D
:1036A0008E7FB7CF8091C6028D7FB3CF8091C50248
:1036B0008F7EA9CF8091C5028F7DA5CF8091C50255
:1036C0008F7BA1CF0E94280A8091C5028F779BCF64
:1036D0008091C502837F97CF8091C6028C7F99CF5E
:1036E0008091C50282FB992790F921E0922790FBF7
:1036F00082F990FB83F987CF8091C602982F90952D
:1037000091708E7F892B90FB81F983CF9091C502B8
:10371000892F8F7B96FF806476CF0E94280A909134
:10372000C502892F97FB87F980586DCF81E00E94F1
:1037300064108091C5029091C6020E94CF0F0E9432
:10374000280A80E0DF91CF91089580E0F0CF90913A
:10375000C502892F8F7E94FF806155CF9091C5025D
:10376000892F8E7F90FF81604ECF9091C602892F66
:10377000877F93FF88604DCF81E0E4CF8FE891E0B1
:103780000197F1F700C00000089581E080932602C0
:10379000A298AA9A8F98979A0E94BE1B40912602DF
:1037A00068E272E0FB018E2F861B841708F00895F3
:1037B00083B382FB882780F920B330E0220F232FC8
:1037C000221F330B90E0232B09F092E0892B819389
:1037D000EACFA8E1B0E0EFEEFBE10C94DD2410E0CD
:1037E00000E032E0932E44E0A42EB12C5DEF852E54
:1037F000772473946CEF662E73E0572E8091260227
:10380000181728F0802F6896EFE00C94F924E12E29
:10381000F12CE3B3E2FBEE27E0F980B390E0880FF0
:10382000892F881F990B892B09F095C080E08E2B7A
:10383000D701A85DBD4FEC919E2F9370981709F4A6
:1038400088C0EE0FEE0FE82BEC93EF70F0E0E05F36
:10385000FE4FC701895D9D4F6C018081F60190810B
:10386000890F808320E084309CF1F701EB5DFD4FF0
:1038700080818F5F80830E947B201D876E86682FEA
:103880008F87988B598A7A8A412F5CEF792F83E052
:1038900091E00E947B068FE39CE90197F1F700C05D
:1038A00000000E947B201B8B6C8A682F8D8B9E8B67
:1038B0005F8A188E412F5CEF792F83E090E00E94A1
:1038C0007B06EFE3FCE93197F1F700C0000021E04F
:1038D000F60180818D3F9CF5F701EB5DFD4F808106
:1038E000815080830E947B2019838A82682F8B837A
:1038F0009C839D827E82412F5DEF792F82E091E053
:103900000E947B068FE39CE90197F1F700C000005D
:103910000E947B201F838886682F89879A879B86D1
:103920001C86412F5DEF792F82E090E00E947B069C
:10393000EFE3FCE93197F1F700C0000021E0F60168
:103940008081082E000C990BB5010E94C024808351
:10395000022B1F5F53CF82E06ACFCF93DF93EB013F
:1039600086319C4711F50E94CA0E9D81992399F0DA
:103970008A7A91E009F490E090932902811109C0BC
:1039800089E20E94A20E0E94230F80E0DF91CF9176
:10399000089585E3F6CF80912902811104C089E260
:1039A0000E94AA0EF0CF85E3FBCF81E0EFCF81E04C
:1039B00008950F931F93CF93DF938C01EB018D81BB
:1039C000882361F0F801E054FC47ED30F10530F454
:1039D000E255FA4D0C94D4240E94321D0E944F1ED1
:1039E000882371F08D818823A9F10E94531E8230B3
:1039F00038F4BE01C8010E94D71C81110E949B1E91
:103A000081E0DF91CF911F910F9108950E94421D97
:103A1000E5CF0E94521DE2CF0E94811DDFCF0E94A0
:103A2000661DDCCF0E94071ED9CF0E94D71DD6CFBE
:103A30000E94DE1DD3CF0E94251ED0CF0E943A1EC9
:103A4000CDCF0E947D1ECACF0E94871EC7CF0E9485
:103A5000911EC4CF0E94531E882391F2CACF0E94A8
:103A600014180895E5EEF6E080818160808360910E
:103A7000E5067091E6068091E7069091E8060E94BF
:103A80005D100895E5EEF6E080818E7F8083609181
:103A9000E5067091E6068091E7069091E8060E949F
:103AA0005D1008958091E50680FF0DC00E94421DC3
:103AB0006091E5067091E6068091E7069091E80630
:103AC0000E945D1008950E94321DF2CF9091E80689
:103AD00081E0890F83709C7F892B8093E806982F63
:103AE0009370933019F48C7F8093E8066091E5061B
:103AF0007091E6068091E7069091E8060E945D10BD
:103B00000895E5EEF6E080818160808388E181831D
:103B1000E8EEF6E080818C7F80838CE00E94CA17FB
:103B20006091E5067091E6068091E7069091E806BF
:103B30000E945D1008950E94B50F811102C00E947D
:103B400055100E9458106093E5067093E606809326
:103B5000E7069093E8068091E60686950E94CA17CC
:103B60008091E5069091E606A091E706B091E806FF
:103B7000892B8A2B8B2B21F08091E6068E7F11F406
:103B80000E94811D0E9444180895E5EEF6E0880F1A
:103B900090819170982B90836091E5067091E60674
:103BA0008091E7069091E8060E945D10089580914B
:103BB000E50686958F5F0E94C51D08958091E506F4
:103BC000869581500E94C51D08958093E7066091F7
:103BD000E5067091E6068091E7069091E8060E945E
:103BE0005D10089591E0811101C090E08091E6069A
:103BF00090FB80F98093E6066091E5067091E606F9
:103C00008091E7069091E8060E945D100895E6EE27
:103C1000F6E09081892F8095817080FB90F99083E8
:103C20000E94F21D0895E6EEF6E0880F90819170F3
:103C3000982B90836091E5067091E6068091E706E7
:103C40009091E8060E945D100895CF93DF93C09194
:103C5000E606C695C43658F4D0E021968C2F0E9413
:103C6000CA178C2F0E94131EDF91CF910895C4E0D4
:103C7000D0E0F4CFCF93DF93C091E606C695C53070
:103C800058F0C150DD0B8C2F0E94CA178C2F0E9458
:103C9000131EDF91CF910895C4E6D0E0F4CF809158
:103CA000E506817008958091E50680FF04C080914B
:103CB000E8068370089580E00895E8EEF6E08081DC
:103CC000846080836091E5067091E6068091E70646
:103CD0009091E8060E945D100895E8EEF6E080817C
:103CE0008B7F80836091E5067091E6068091E70600
:103CF0009091E8060E945D1008958091E80682FF89
:103D000003C00E946D1E08950E945D1E089580915B
:103D1000E706883720F4865F0E94E51D089588E74E
:103D2000FBCF8091E706843120F08A500E94E51D88
:103D3000089584E1FBCF0E94101808950E944D1849
:103D400008950F931F93CF93DF93C42FD22FFC01BD
:103D500085818823C9F040932C020E947B20909398
:103D60002B0280932A0280E28C0F883040F4C770C7
:103D700081E001C0880FCA95EAF70E94CB07DF9166
:103D8000CF911F910F91089510912C02141332C0FE
:103D900080912A0290912B020E949320883C9105E9
:103DA00048F5C0E2CD0F1D17B9F080E2810F8830D1
:103DB00040F4177081E001C0880F1A95EAF70E945D
:103DC000D207C83048F481E09D2F977001C0880F5A
:103DD0009A95EAF70E94CB07802F0E94C207C8304D
:103DE00070F6D77081E001C0880FDA95EAF70E947B
:103DF000D207C5CF80E28C0F883008F6C77081E00B
:103E000001C0880FCA95EAF7F2CF0F93DB01885102
:103E10009C4787309105A0F5FC01E554FA4D0C94C0
:103E2000D42406E221EE41EE6AE17CE7CD010E9456
:103E3000A11E80E00F91089507E225EE45EE6BE1AB
:103E40007CE7F4CF06E221EE40EE68E17CE7EECFBE
:103E500007E225EE44EE69E17CE7E8CF06E221EED9
:103E600042EE6CE17CE7E2CF07E225EE46EE6DE143
:103E70007CE7DCCF08E221E045EE6EE17CE7D6CFBF
:103E800015968C91882319F010922C02D3CF81E0E3
:103E9000D1CF90933202809331020895E0913102A4
:103EA000F0913202309729F00190F081E02D0995D0
:103EB000089580E008950E944E1F0895E091310218
:103EC000F0913202309721F00280F381E02D0995C4
:103ED0000895E0913102F0913202309739F022E0FA
:103EE000DC012C930480F581E02D09950895A3E071
:103EF000B0E0EDE7FFE10C94EA2420912F0230912D
:103F0000300228173907A1F09093300280932F02D6
:103F1000E0913102F0913202309751F023E0298391
:103F20009B838A830680F781E02DCE010196099557
:103F30002396E2E00C940625A3E0B0E0E2EAFFE17C
:103F40000C94EA2420912D0230912E022817390773
:103F5000A1F090932E0280932D02E0913102F09116
:103F60003202309751F024E029839B838A830680B4
:103F7000F781E02DCE01019609952396E2E00C949D
:103F800006259C012E5F3F4FAC01485F5F4F80E0EC
:103F90002417350709F40895F90191919F01992398
:103FA000B9F38F5FF5CF662349F0FC01329608968E
:103FB0002191261729F0E817F907D1F780E0089535
:103FC00081E008959C01FC0132969FEF80E04191D1
:103FD000461751F09F3F19F4411101C0982F8F5F90
:103FE0008630A9F79F3F09F40895290F311D97FDE9
:103FF0003A95F90162830895FC0132960896219161
:10400000261303C0DF0111971C92E817F907B9F7CF
:1040100008950E94E21F08950E94FC1F08950296D1
:1040200026E0FC0111922A95E9F70895DC01FB01D5
:1040300011969C9111978181981322C012968C91B0
:104040001297882319F0928189131AC013968C91C4
:104050001397882319F09381891312C015968C91B8
:104060001597882319F0958189130AC014969C919D
:10407000992321F081E02481291303C080E001C04D
:1040800081E081700895089508950E944420089564
:10409000089508950E9443200895CF930E944820D8
:1040A0000E94B2140E944920C0E08C2F0E94E713A6
:1040B000892B31F4CF5FC630C1F780E0CF910895EE
:1040C00081E0FCCF84B7806884BF84B7806884BFF8
:1040D00008958091350281110E94290608950E9459
:1040E000280A0E94300608958BE083BF8AEF8CBFB8
:1040F00082E089BF08952FB7F8948091E9069091E6
:10410000EA06A091EB06B091EC062FBF08952FB7F9
:10411000F8946091E9067091EA068091EB0690911F
:10412000EC062FBF08959C014FB7F8948091E906E3
:104130009091EA06A091EB06B091EC064FBF821B6E
:10414000930B089578941F921FB61F9211248F939A
:104150009F93AF93BF938091E9069091EA06A09157
:10416000EB06B091EC060196A11DB11D8093E90606
:104170009093EA06A093EB06B093EC06BF91AF9143
:104180009F918F911F901FBE1F90189588E198E016
:104190000FB6F894A89581BD0FBE91BDA895F8946F
:1041A000D8E0CEE528E3299320E0299314BEFFCF81
:1041B000089588E198E00FB6F894A89581BD0FBEE8
:1041C00091BDFFCF11B88CE080B985B3836085BB0A
:1041D00086B7846086BF86B7816086BF86B78064F5
:1041E00086BF0895B0E0A0E0E8EFF0E20C94E1248F
:1041F000B82EEB010E947B206C01EE24E394F12C9D
:10420000C431D10560F025E0E22EF12CCF3FDC0770
:1042100031F0CE0164E170E00E94AC247B0184EABD
:10422000A82E94E8992E16BEA6BE0E947B208C0173
:1042300006B607FE0BC081B1887F8830F1F081B1EE
:10424000887F8031D1F00FEF1FEF08C0C8010E94B6
:104250009320E816F90660F70EEF1FEFCF3FDC075B
:1042600011F3C6010E949320C817D907E0F6C801D0
:10427000CDB7DEB7EBE00C94FD24B3B896BE0E9438
:104280007B208C0106B607FE09C081B1887F88318A
:1042900011F08034C1F610E000E0E9CFC8010E94BF
:1042A0009320E816F90670F7D7CF0F931F93CF939B
:1042B000DF93EB0183B984E886BF0E947B208C01E9
:1042C00006B607FE10C021B1287F81E090E02832B9
:1042D00011F490E080E0919581959109DF91CF9163
:1042E0001F910F910895CF3FDC0751F3C8010E9441
:1042F0009320C817D90720F78EEF9FEFEFCFB0E0DC
:10430000A0E0E5E8F1E20C94E4246B018A01790174
:10431000B9010E94F220E6010C0D1D1DC017D10746
:1043200011F097FF07C024E926BFCDB7DEB7E8E05C
:104330000C940025B70189910E945521EFCFB0E080
:10434000A0E0E5EAF1E20C94E424C62F6A017901C9
:10435000B8010E94F22097FD0CC0B8018C2F0E947A
:104360005521E601EC0CFD1CCE15DF0511F097FF81
:1043700007C024E926BFCDB7DEB7E8E00C940025DE
:10438000B80189910E945521EFCF84E986BF089535
:104390000E947B20909334028093330208950E9400
:1043A00091248B9A80E0815019F48B987894089529
:1043B000A895EFE9FFE03197F1F700C00000F3CFD7
:1043C0000E94B3220E94491F2FEF80E792E0215004
:1043D00080409040E1F700C00000089580911407EC
:1043E000882311F1109214070E947B2090933402CD
:1043F0008093330280913502882341F01092350278
:104400000E946F2080913502811112C00E94A12369
:1044100080911A07882329F08091F80684FD0E9474
:10442000EA100E945A22089580913502882301F1F2
:104430000E9469200E944D208823A9F3F89421B39B
:10444000939A822F8C6081BB92B33CE0932792BBFE
:104450004FE788E391E0415080409040E1F700C091
:10446000000082B3832782BB21BB93987894089580
:1044700080913302909134020E949320069708F4B1
:10448000C1CF81E0809335020E946920BBCF80912B
:10449000C40208952091310724FF03C063E00E9405
:1044A0009C2308952091310724FF03C066E00E94F9
:1044B0009C230895CF93DF93CAE0D0E08091F80663
:1044C00084FF1AC08091410290914202981789F0AE
:1044D00028E0829FC001112468E08D5B9D4F0E94FF
:1044E00097238091410290E001968F7099278093E5
:1044F0004102DF91CF9108950E94A1238FE99FE0AF
:104500000197F1F700C000002197C1F6F2CFCF93D9
:10451000DF93EC01A0914202B0E0CD0101968F70D3
:10452000992720914102281779F093E0AA0FBB1F29
:104530009A95E1F7AD5BBD4F98E0FE0101900D92B9
:104540009A95E1F7809342020E94A1230E945A2289
:1045500088E0FE01A9E3B2E001900D928A95E1F7AF
:10456000DF91CF9108958FE690E00895FC0180815E
:1045700080768032F1F48181813061F4848195818B
:10458000892BB9F489E392E090931607809315077D
:1045900088E00895823041F483EC92E0909316070E
:1045A0008093150781E008958A3029F483818093F0
:1045B000C30280E008958930E1F7828193818115FB
:1045C000924069F484819581892B49F481E080933C
:1045D00038028681978190933702809336028FEF5D
:1045E0000895FC018091360290913702892B61F089
:1045F00080913802813041F490819093C4021092EE
:1046000037021092360208958FEF08950895FC0145
:104610009381933059F130F49130C1F09230F1F040
:1046200080E00895913209F440C09232C9F7848144
:104630009581009709F44AC0019791F787E696E0C3
:1046400090931607809315078BE7089585E296E00F
:10465000909316078093150782E108958AEE95E0FE
:1046600090931607809315078BE30895828181301C
:10467000A1F0882351F0823099F687E396E0909379
:1046800016078093150788E1089583E696E09093D6
:1046900016078093150784E0089581E596E09093CE
:1046A00016078093150780E108958281882331F0F1
:1046B000813009F0B5CF85E196E002C08CEF95E03E
:1046C000909316078093150789E0089582EE96E08F
:1046D000909316078093150784E408951F93CF9352
:1046E000DF93E82F792F162FEA01888184FF1CC001
:1046F000298188E828272983CE010296DC012E2F04
:10470000372F512F5E0FF90121912D939F01452FD6
:104710004E1B1416C4F3612F0E94C7031C5F18833D
:10472000DF91CF911F9108958AE58883E5CF48EF07
:1047300056E00E946E23089541E357E00E946E23E5
:104740000895CF93DF9360911707635067FD12C000
:1047500080911307CCE0D0E0C81BD109C55ED84FCB
:1047600080911207803108F054C0CE010E940623C8
:10477000109217078091780084FF3EC080917700E7
:104780008F3FD1F1C82F893008F0C8E0982F9C1BCB
:10479000909377009091ED0628E892279093ED068C
:1047A0008823E9F080911507909116072091110751
:1047B00026FFAEC0FC012C2FAEEEB6E034913D9347
:1047C00031962150D9F79C012F5F3F4F8FEF8C0F0F
:1047D000820F932F911D90931607809315076C2FCE
:1047E0008EEE96E00E94C703CC5FCC3019F08FEFBD
:1047F00080937700C093780084E190B39C7031F48B
:104800008150D9F71092180710921007DF91CF91BD
:1048100008958D3209F069C0683009F0A9CF83ECA2
:104820008093ED068AE580937800109211078881C5
:10483000807671F0CE010E94B6228F3FC1F498813C
:1048400097FD8E8190E8909311078093770090CF29
:104850002A811092F6069981911111C01092F706E3
:1048600026EF36E082E030931607209315079F81EC
:104870009111EBCF9E81981740F7892FE6CF9530A5
:1048800029F42093180726EF36E0EDCF963099F4FF
:104890009B81913021F4CE010E94072308C0923001
:1048A000D1F39330C1F39132B1F39232A1F390E49A
:1048B00090931107C2CF983089F0993019F4209362
:1048C0001A07E1CF9A3071F09B30E9F69BE49093A0
:1048D000F9069093320790930507D5CF2AE137E088
:1048E00081E0C1CF26EF36E0FBCF8091110787FF33
:1048F0003FCFCE010E94F1228F3F21F48EE18093C1
:10490000780036CF882309F433CF1092770030CF68
:10491000DC012C2FEEEEF6E03D9131932150E1F7D2
:1049200052CFCF93DF9385B7886085BF8BB7806800
:104930008BBFC8EFD6E08BE48983A1E3B7E0119683
:104940008C931197E4E0F7E081838AE588838C9368
:104950008083DF91CF910895AA1BBB1B51E107C053
:10496000AA1FBB1FA617B70710F0A61BB70B881FFF
:10497000991F5A95A9F780959095BC01CD0108958E
:1049800097FB072E16F4009407D077FD09D00E94FC
:10499000AC2407FC05D03EF4909581959F4F089577
:1049A000709561957F4F0895EE0FFF1F0590F4916C
:1049B000E02D09942F923F924F925F926F927F92D7
:1049C0008F929F92AF92BF92CF92DF92EF92FF921F
:1049D0000F931F93CF93DF93CDB7DEB7CA1BDB0BCB
:1049E0000FB6F894DEBF0FBECDBF09942A88398870
:1049F00048885F846E847D848C849B84AA84B98477
:104A0000C884DF80EE80FD800C811B81AA81B98182
:104A1000CE0FD11D0FB6F894DEBF0FBECDBFED0196
:104A20000895FB01DC0104C08D910190801921F4EF
:104A300041505040C8F7881B990B0895FB01DC01D9
:104A400002C001900D9241505040D8F70895E1996D
:104A5000FECF9FBB8EBBE09A99278DB30895A6E148
:104A6000B0E044E050E00C947025A8E1B0E042E0F2
:104A700050E00C947025DC01A40FB51F415050404C
:104A800048F0CB01840F951F2E910E944C25415078
:104A90005040D0F70895262FE199FECF9FBB8EBBE3
:104AA000E09A01970DB2021631F02DBB0FB6F894C3
:104AB000E29AE19A0FBE08950396272F0E944C2593
:104AC0000E944B25252F0E944C25242F0C944C2509
:104AD0000196272F0E944C250C944B25DC01CB011D
:104AE000FC01E199FECF06C0FFBBEEBBE09A319618
:104AF0000DB20D9241505040B8F70895F894FFCF91
:104B00001808180868086808D208EE084708470817
:104B1000F3086409730973093A1BAE1B421B0C1B93
:104B2000101B461B141B4A1B561B201BA71B241BB8
:104B30005A1B281B5E1B861B2C1B621B8D1B321BEA
:104B4000681B701B181B4E1B1C1B521B361B6C1B3F
:104B50007C1B961BA51B061B3E1BB51BEC1C061DD8
:104B6000091D0C1D0F1D121D151D181D211D241DB5
:104B7000271D1B1D1E1D221F281F111F1C1F2E1F3E
:044B8000341F3A1F85
:104B8400A401280850011E0A14010C00B0001047AB
:104B940022872252224A22FF5AE200E900EA00B5A3
:104BA40000B600B700CD008301CC008A01920194C5
:104BB400012102230224022502260227022A02B32B
:104BC40000B4006F0070009F01CB019F02A002811E
:104BD4008283E200E900EA00B500B600B700CD0028
:104BE4008301CC008A019201940121022302240250
:104BF4002502260227022A02B300B4006F007000C7
:104C04009F01CB019F02A0028182839192936061F4
:104C140062636400010506353433369697943795FC
:104C240000081018202830383830282018100800C0
:104C340000FF0100010000FFFF0000010001FF0070
:00000001FF
